:100000000C9449000C9441050C944B050C94550537
:100010000C945F050C9469050C9473050C942007EF
:100020000C947D050C9468000C9468000C94E50F0A
:100030000C9483110C940B050C9421050C948705EA
:100040000C94FA040C947F0F0C9468000C946800D4
:100050000C9468000C9468000C9468000C94680080
:100060000C9416050C9468000C9468000C946800BD
:100070000C9468000C9468000C9468000C94680060
:100080000C9468000C9468000C94680000081C181C
:10009000141011241FBECFEFD0E1DEBFCDBF11E0A1
:1000A000A0E0B1E0EAE5FDE300E00BBF02C007908D
:1000B0000D92AE30B107D9F712E0AEE0B1E001C069
:1000C0001D92A63FB107E1F70E94A2190C94AC1E45
:1000D0000C9400008FB7F894992708958FBF089566
:1000E0007FB7F89462B720912601309127014091A3
:1000F00028015091290106B601FE0FC081B792B7C1
:10010000280F311D411D511D2F5F3F4F4F4F5F4F36
:10011000290F311D411D511D04C0260F311D411DE8
:10012000511D872F99278FBFCA01B9010895282F24
:100130009FB7F894E82FFF27EE5BFE4F80818F3F3B
:1001400081F4E091EE02E21771F40BC02093DC021F
:1001500004C0FF27EE5BFE4F20832093EE0220E0D9
:1001600007C025E005C08091DC028F3F91F7EECFFC
:10017000892F99278FBF822F99270895EF920F9388
:100180001F93AE2D99E0899FF0011124E753FE4F94
:10019000408351836283738304831583268337836B
:1001A000A17080858E7F8A2B8260808781E00E948B
:1001B00097001F910F91EF900895109249021092AD
:1001C000480210924B0210924A0210924D02109275
:1001D0004C0210924F0210924E0210925102109255
:1001E0005002109253021092520210925502109235
:1001F00054021092570210925602EBE7F1E08FEF93
:100200009FEF9183808393838283349621E0E73B41
:10021000F207B9F7089520E030E0EBE7F1E08081E4
:1002200091818F5F9F4F31F02F5F3F4F34962F307A
:100230003105A9F7C9010895FC0182819927582F3A
:10024000442781819927482B592BCA01892F992747
:1002500086958695837090708230910559F0833031
:10026000910559F0892B19F420E030E008C02CE901
:100270003FEF05C022E030E002C028E030E0CA01D4
:1002800084E0989F812D992711248230910559F09F
:100290008330910559F0892B19F480E090E008C073
:1002A0008CE99FEF05C082E090E002C088E090E01A
:1002B000280F391F2A5F3F4FCF01820F931F0895E8
:1002C000282F9FB7F894662349F0E82FFF27E65CB4
:1002D000FD4F8081882311F021E006C0E22FFF2727
:1002E000E65CFD4F608320E0892F99278FBF822F26
:1002F00099270895E82F8FB7F894282F332790E097
:10030000FF27E65CFD4F8081861709F491E02FBF3F
:10031000892F99270895882311F06E9A08956E9871
:100320000895882311F06F9A08956F98089580E0DA
:100330000E948B01BA9ABB98B99AB89A6C9A80E0DD
:100340000E9491016B986A9881E00E948B01709ADB
:100350008DB18C7F8DB908950F931F93CF93DF9349
:10036000182F8FB7F894C82FDD270C2F61E080E09D
:100370000E946001882321F0CFBF85E090E024C077
:10038000809105018823A1F480911301823081F4CA
:1003900009C082E080931301109205010E94970129
:1003A000B89AC0981093020180E00FBF99270CC043
:1003B00080911301882369F38FB7F89499271092DD
:1003C0003A028FBF81E0F1CFDF91CF911F910F9162
:1003D00008951F93182F81E00E948B011FB9779B0E
:1003E000FECF8FB199271F9108958F929F92AF9260
:1003F000BF92CF92DF92EF92FF920F931F93CF9312
:10040000DF938FB7F8949927C090E902D090EA0261
:100410008090FF0190900002C091C101D091C20173
:100420002091210130912201EAE0AE2EB12CAC0ED8
:10043000BD1E2A153B0508F459018FBF7401EC0E4F
:10044000FD1E86010C0F1D1F14C0C114D10419F02C
:10045000F801808101C080E00E94E90181149104CB
:1004600011F0F701808321960894E11CF11C0F5FC5
:100470001F4FC5010197C817D90738F381E00E94C3
:1004800091019FB7F894C114D10431F0CC0EDD1E58
:10049000F60180818FB901C01FB8D093C201C0930B
:1004A000C101892F99278FBF80E090E0DF91CF9124
:1004B0001F910F91FF90EF90DF90CF90BF90AF9082
:1004C0009F908F9008952FB7F8943327509322016F
:1004D000409321019093EA028093E9027093000215
:1004E0006093FF011092C2011092C1012FBF452BF2
:1004F00029F08FB10E94F5019927089589E00E94A3
:10050000970080E090E008958FB7F89499271092B3
:100510003C028FBF08958FB7F89499272BB332E030
:1005200023272BBB8FBF08952F923F924F925F924C
:100530006F927F928F929F92AF92BF92CF92DF92F3
:10054000EF92FF920F931F93CF93DF93CDB7DEB758
:1005500029970FB6F894DEBF0FBECDBF6FB7698382
:10056000F8942090650130906601409067015090AA
:100570006801662477248824BEE4AB2EA3E8BA2E53
:10058000CC24DD24EE24FF2400E010E0222D332DC6
:10059000442D552D662D772D882D90E00E94751BDA
:1005A0002A833B834C835D836E837F83888799870F
:1005B000822E932EA42EB52E2401350100E20E9436
:1005C000731CA22EB32EC42ED52EA30192015695D4
:1005D0004795379527952A0D3B1D4C1D5D1D57FFEF
:1005E00005C05F772F5F3F4F4F4F5F4F20936501EF
:1005F000309366014093670150936801E9818E2F23
:1006000099278FBFCA01B90129960FB6F894DEBFAA
:100610000FBECDBFDF91CF911F910F91FF90EF9053
:10062000DF90CF90BF90AF909F908F907F906F9012
:100630005F904F903F902F90089580E880933C0109
:1006400010925D011092E1021092DB0210925701AC
:100650000895CF93DF93FC0115A6DC019E96ED0172
:100660001B821A82198280E886A7DF91CF910895B4
:100670008FB7F8946091C5017091C6012CB53DB556
:1006800006B602FE04C06F5F7F4F2CB53DB59927BB
:100690008FBF88279927CB017727662744275527BF
:1006A000622B732B842B952B0895EF92FF920F935F
:1006B0001F930E9438037B018C0120916F013091C0
:1006C0007001409171015091720180916A01909185
:1006D0006B01A0916C01B0916D01820F931FA41F5B
:1006E000B51FE216F3060407150730F082179307CB
:1006F000A407B50758F005C082179307A407B507EC
:10070000E0F5E816F9060A071B07B8F59C01AD01EC
:100710002E193F09400B510B213060E8360760E08D
:10072000460760E0560768F180E090E8A0E0B0E09E
:10073000E80EF91E0A1F1B1FE0926F01F092700174
:10074000009371011093720180E090E8AFEFBFEF6A
:10075000E80EF91E0A1F1B1F205030484040504031
:1007600020936A0130936B0140936C0150936D01AB
:1007700020E030E840E050E014C020E030E040E00D
:1007800050E080936F0190937001A0937101B0933A
:10079000720110926A0110926B0110926C0110921A
:1007A0006D01A901B7012CB53DB5C9018E199F098D
:1007B00003968417950720F0B9016D5F7F4F02C043
:1007C000640F751F6115710511F461E070E06150EF
:1007D00070407BBD6ABD80E186BF87B7806187BFFF
:1007E0001F910F91FF90EF9008950F931F930FB7F4
:1007F000F894112760936F017093700180937101D9
:100800009093720120936A0130936B0140936C01C5
:1008100050936D010E9455030FBF1F910F910895D2
:100820001092100110920F01DE98DD98DE9A80E0A0
:1008300090E0089597B79F7D97BF90E296BF882379
:1008400019F08EB5806402C08EB58F7B8EBD87B7E0
:10085000806287BF80E090E00895DF92EF92FF9280
:100860000F931F938FB7F894282F3327D22E91B769
:1008700082B746B7981711F041FF02C02FBF6AC078
:100880008091C0018823E1F10E947000E09036025F
:10089000F09037020091380210913902209138010E
:1008A0003091390140913A0150913B016E197F0915
:1008B000800B910B621773078407950720F0109245
:1008C000C00171E01EC02E0D3F1D401F511F8091C1
:1008D000260190912701A0912801B0912901281BA0
:1008E000390B4A0B5B0B273E31054105510540F49E
:1008F000822F223010F070E005C070E082E002C06C
:1009000070E086EE682F615000B601FCFDCF82B723
:10091000681709F46F5F20912601309127014091FB
:10092000280150912901DA01C9010196A11DB11DCB
:10093000860F911DA11DB11D82179307A407B5074E
:1009400010F4622F609561BFDFBE772319F080E05D
:100950000E9497001F910F91FF90EF90DF900895F4
:10096000AFB7F894BB27E1E0E093C0016093360293
:1009700070933702809338029093390220933801A4
:100980003093390140933A0150933B01AFBF0E942D
:100990002D040895AF92BF92CF92DF92EF92FF9213
:1009A0000F931F93CF93DF93CDB7DEB728970FB682
:1009B000F894DEBF0FBECDBF20E070E0E0910001F3
:1009C000F091010132E14DE65CE46FE480910101B8
:1009D0009E2F28960FB6F894DEBF0FBECDBFDF91D5
:1009E000CF911F910F91FF90EF90DF90CF90BF902C
:1009F000AF9008951F920F920FB60F9211248F930C
:100A000083B783BF00B600FCFDCF8F910F900FBE60
:100A10000F901F90189578941F920F920FB60F9217
:100A200011240F900FBE0F901F90189578941F926D
:100A30000F920FB60F9211240F900FBE0F901F90C0
:100A4000189578941F920F920FB60F9211242F933E
:100A50003F938F939F932FB7F89433278091C501CD
:100A60009091C60101969093C6018093C5012FBF56
:100A70009F918F913F912F910F900FBE0F901F90DC
:100A800018951F920F920FB60F9211240F900FBE60
:100A90000F901F9018951F920F920FB60F9211246E
:100AA0000F900FBE0F901F9018951F920F920FB6C8
:100AB0000F9211240F900FBE0F901F9018951F9248
:100AC0000F920FB60F9211240F900FBE0F901F9030
:100AD00018951F920F920FB60F9211240F900FBE10
:100AE0000F901F9018951F920F920FB60F9211241E
:100AF0000F900FBE0F901F9018951F920F920FB678
:100B00000F9211240F900FBE0F901F9018951F92F7
:100B10000F920FB60F9211242F933F934F935F9331
:100B20006F937F938F939F93AF93BF93EF93FF93B5
:100B300083B783BF00B600FCFDCF81B7992701962C
:100B4000AA27BB2720912601309127014091280137
:100B500050912901280F391F4A1F5B1F209326013E
:100B600030932701409328015093290178940E94E3
:100B70002D04FF91EF91BF91AF919F918F917F9144
:100B80006F915F914F913F912F910F900FBE0F90FA
:100B90001F9018950F931F93182F0FB7F89461E0CB
:100BA00080E00E946001882371F51093020180911A
:100BB00005018823A9F580911301823089F588E029
:100BC0000CC00E94970180911301882349F481E0B1
:100BD00080931301109258018AE00E9497002AC066
:100BE00080916E018F3F31F5E0910401EE2311F108
:100BF0001CC01092030104C0FF27E259FE4F10826F
:100C00001092040117C081E090E002C0880F991F84
:100C10001A95E2F720911201282B209312010AC0A5
:100C2000809113018823E1F6CCCF809103018F3F9F
:100C300019F7DFCF802F99278FBF80E090E01F91B9
:100C40000F9108951F9383E00E94AC019927182FFC
:100C5000882319F083E00E94CA05812F99271F91EC
:100C60000895CF92DF92EF92FF920F931F93CF934D
:100C7000DF938C01F62E6A01E22E8FB7F894C82F0D
:100C8000DD2760E080E00E947A01882321F0CFBF59
:100C900080E090E01EC0CFBF0F0D111D802F806837
:100CA0000E94E901F82E16950795802F807C0E94FE
:100CB000E9010E2D0AC0EE2DFF27E01BF109EC0D16
:100CC000FD1D80810E94E90101500023A1F78F2DB5
:100CD0009927DF91CF911F910F91FF90EF90DF90B7
:100CE000CF900895CF93DF93CDB7DEB72C970FB693
:100CF000F894DEBF0FBECDBF8FB7F894282FAE019A
:100D00004F5F5F4FDA01E0E4F2E088E001900D927E
:100D10008150E1F780915E0190915F018987892F71
:100D200099278A8780917301909174018B87892F0D
:100D300099278C872FBF2CE060E080E691E00E942D
:100D400031062C960FB6F894DEBF0FBECDBFDF91F3
:100D5000CF9108951F93CF93DF93182F8FB7F894F7
:100D6000C82FDD2760E080E00E947A01882321F00F
:100D7000CFBF80E090E005C0CFBF812F0E94E90186
:100D80009927DF91CF911F910895EF92FF920F93D2
:100D90001F93CF93DF93182F7B01042F8FB7F89405
:100DA000C82FDD2760E080E00E947A01882321F0CF
:100DB000CFBF80E090E014C0CFBF1064812F99278F
:100DC00090937801809377010E94E901182F402FBA
:100DD0005527B70180E090E00E946302812F992798
:100DE000DF91CF911F910F91FF90EF900895C098E0
:100DF00060911D0170911E0141E08FE30E94C506C4
:100E0000089582E090E0909352018093510181E037
:100E100080935D0120E030E080910201843011F484
:100E200021E030E0232B29F484E00E94AC018823E8
:100E300019F40E94F706089584E00E94CA050895F7
:100E40001F920F920FB60F9211242F933F934F933F
:100E50005F936F937F938F939F93AF93BF93EF9322
:100E6000FF938091510190915201019749F482E0E2
:100E700090E090935201809351010E94010705C0B8
:100E8000809157018F5F80935701FF91EF91BF9140
:100E9000AF919F918F917F916F915F914F913F9112
:100EA0002F910F900FBE0F901F9018951F93809158
:100EB0001201882309F04BC0109102011F3F09F075
:100EC00046C060E00E947A01882309F440C081E0B6
:100ED00080935902809141018823E1F110925902D7
:100EE00085E090E045C0923069F5C09A8091030199
:100EF00020E030E08F3F11F421E030E0232BE9F4D3
:100F0000109305018F3F19F42FEF30E00DC0282F0B
:100F10003327F901E259FE4F8081809303018F3F0F
:100F200011F41093040110832093580181E0809301
:100F300013018AE00E94970005C0109305011092EA
:100F4000130111C080911301882369F00FC081E063
:100F500090E00EC08091050190911301882319F251
:100F6000923021F0EFCF80E00E948B0180E090E092
:100F70001F9108951F93CF93DF939FB7F894C92FC4
:100F8000DD271C2F90910201981721F0CFBF81E03F
:100F900090E03AC08FEF8093020130911201332329
:100FA000F1F48FB7F894992710923A028FBF0E94FC
:100FB0005607CFBF11C02093020181E090E002C02C
:100FC000880F991F4A95E2F78095382330931201D4
:100FD00088E00E9497001FBF80E090E015C080E08D
:100FE00065E0E32FFF270E940F1E292F492F552769
:100FF000CF01042E02C0959587950A94E2F780FDF3
:10100000DACF822F8F5FEFCFDF91CF911F910895BD
:101010001F93CF93DF938FB7F894C82FDD271C2F32
:101020008091510190915201892B29F484E00E9412
:10103000BA07CFBF1EC010925D018091570188236F
:1010400011F0B79904C00E9908C0882319F0815097
:10105000809357010E9401070BC081E090E09093BC
:101060005201809351011092570184E00E94BA0707
:101070001FBFDF91CF911F9108950E941D03C09A59
:10108000C09888E00E94AA0688E00E94AA06C09A3A
:1010900084E00E94BA070E9408080895FF920F9307
:1010A0001F93CF93DF93F82E8B018FB7F894C82F3F
:1010B000DD2760E080E00E947A01882321F0CFBF25
:1010C00080E090E00CC0CFBF8F2D0E94E901812FFE
:1010D00099270E94E901802F0E94E9019927DF9159
:1010E000CF911F910F91FF9008951F931FB7F89410
:1010F00080915601882319F460E070E009C060E037
:101100008091E802882309F461E081E0682777276D
:1011100080916201882319F480E090E00AC090E099
:1011200080913F02882309F491E081E09827892F7C
:101130009927762F6627770F770F770FF4E0880FC0
:10114000991FFA95E1F7826E9262682B792B81E103
:101150000E944E08812F99278FBF1F9108958FB746
:10116000F8949927609158028FBF85E0689FB0017D
:101170001124625D7E4F706488E10E944E080895DC
:10118000EF92FF921F93CF93DF93E0906301F09073
:101190006401F70182A59927182F882309F41FE11C
:1011A000C09880915501811749F0612F77276F71A1
:1011B0007070606E706885E10E944E081093550152
:1011C000F70110818FB7F894C82FDD2760E080E029
:1011D0000E947A01882311F0CFBF12C0CFBF8EE3E7
:1011E00090E090937801809377018EE30E94E9016B
:1011F0001150412F552760E070E0C7010E94630243
:10120000DF91CF911F91FF90EF9008950F931F935F
:10121000CF93DF93EC010FB7F89411270E941C01C4
:10122000FC018FE380830FBF1092E4021092E3026F
:1012300061E082E00E946001882319F085E090E07F
:1012400072C080915A028F5F80935A0281508B83C3
:101250008FB7F894082F112762E081E00E947A018D
:10126000882329F40FBF0E94840281E05BC08FB7FE
:10127000F894992724E020933B028FBFD093BE01BE
:10128000C093BD010FBFFE0131968181298199274D
:10129000982F88273327822B932B80729C7C8983FD
:1012A000892F992781832981982F882733272164C3
:1012B000822B932B8983892F992781831CA618A6BB
:1012C00019A619AA18AA1FA680E88EA761E0609344
:1012D0003E024091BD015091BE018FB7F894282F76
:1012E000332780911401909115018830910511F0F8
:1012F000019711F02FBF15C082E090E09093150187
:10130000809314016093EF02509364014093630152
:10131000109223012FBF0E942206882311F40E94FD
:10132000C00880E09927DF91CF911F910F91089518
:10133000CF93DF93DA01422F2D3118F082E090E055
:101340005EC0ED018B876E83872F99278F832FB720
:10135000F894332780915E0190915F012FBFFD01CA
:101360008483892F992785832FB7F8943327809119
:101370000601909107012FBF8887892F99278987B8
:101380003196818129819927982F882733272064D6
:101390003868822B932B8983892F99278183435F18
:1013A0004C934D5080910901882359F01092090106
:1013B000642FCD010E9406099927282F8823A9F4BC
:1013C00017C0842F99279093B8018093B701B093E9
:1013D0001901A09318018CE00E94970080910901E7
:1013E000882349F489E090E00AC08FEF80930901D7
:1013F000822F992704C01092690180E090E0DF916C
:10140000CF910895CF93DF93FB01DB01169686837E
:10141000892F9927ED01898386E083878091C30115
:101420009091C401892B19F085E090E02BC0F093D6
:10143000C401E093C301435F40834D5080910C0190
:10144000882319F480E090E01DC08385ED01698157
:101450007727762F662726813327622B732B1092EE
:101460000C01242FAF010E9498099927282F882367
:1014700039F081E080930C011092C4011092C301F5
:10148000822F9927DF91CF9108958091000190914B
:10149000010180930E02892F992780930D0285E028
:1014A000809312021092110280911F0190912001ED
:1014B00080931402892F99278093130210921A02A5
:1014C0001092190210921C0210921B0210921D021F
:1014D0000E940B0180931802892F9927809317028D
:1014E00081E0809316021092150241E161E072E002
:1014F0008FEF9FEF0E94020A882311F40E948B0253
:1015000008951F93CF93DF93CDE0D2E080915A01ED
:1015100090915B01019799F58091000190910101F3
:1015200080930E02292F332720930D0280931002FF
:1015300020930F0211E01093120210921102809179
:101540001F019091200180931402892F9927809385
:10155000130210921A021092190210921C02109299
:101560001B0210921D020E940B0180931802892F0A
:1015700099278093170210931602109215028091FA
:101580005A0190915B010297A1F580910001909121
:10159000010180930E02292F332720930D0280939F
:1015A000100220930F0282E0809312021092110227
:1015B00080911F019091200180931402892F992717
:1015C0008093130210921A021092190210921C02B8
:1015D00010921B0210921D020E940B0180931802B0
:1015E000892F99278093170281E080931602109229
:1015F000150280915A0190915B01039709F0ADC0EB
:101600008091E6029091E702019709F041C090E0D5
:1016100080911C01882309F491E09923C9F5109267
:10162000E7021092E60280910001909101018093FF
:101630000E02292F332720930D028093100220934E
:101640000F0283E0809312021092110280911F0119
:101650009091200180931402892F9927809313027F
:1016600010921A021092190210921C0210921B0280
:1016700010921D020E940B0180931802892F992756
:101680008093170281E0809316021092150265C0C4
:10169000E0911A01FF27EE0FFF1FE55AFD4F019061
:1016A000F081E02D80819927982F88272181332789
:1016B000822B932B8983892F992780930D02828116
:1016C0009927982F882723813327822B932B809368
:1016D0001002892F99278A8384819927982F882738
:1016E00025813327822B932B80931202892F9927F0
:1016F0008C8386819927982F882727813327822BEF
:10170000932B80931402892F99278E8384859927A0
:10171000982F882725853327822B932B80931A02B5
:10172000892F99278C8786859927982F8827278541
:101730003327822B932B80931C02892F99278E8726
:101740008089888B0E940B0180931802892F99272A
:101750008A8781E080931602188680915A019091C1
:101760005B01049759F580910001909101018983F3
:10177000292F332720930D02809310022A8384E0BF
:10178000809312021C8280911F019091200180930E
:101790001402892F99278E8310921A021C861092A8
:1017A0001C021E86188A0E940B0180931802892F42
:1017B00099278A8781E08093160218868091BF015D
:1017C000882311F581E08093BF0180915A019091A7
:1017D0005B01019731F48FEF9FEF9093BC018093F1
:1017E000BB0141E161E072E08091BB019091BC01DD
:1017F0000E94020A882341F480915A0190915B0172
:10180000049711F40E948B02DF91CF911F910895EC
:101810001F93182F81E090E090931501809314019D
:10182000109241010E9456078FB7F89499271093A0
:101830000E018FBF84E00E9497001F9108950F93BF
:101840001F930FB7F89411271092150110921401ED
:1018500087B78F7E87BF87B78F7D87BF83E00E9462
:10186000BA07C09A0FBF0FB7F89411271092520110
:10187000109251010E941D03C09A89B78F7B89BFC6
:101880000FBF80E090E01F910F91089562E081E02A
:101890000E947A01882379F08FB7F894992723E082
:1018A00020933B028FBF0E941F0C0E94100483E014
:1018B0000E9497001DC060E081E00E947A018823A9
:1018C00019F089E090E0089564E081E00E947A01D7
:1018D000882341F08FB7F894992723E020933B02A7
:1018E0008FBF06C063E081E00E947A01882319F06F
:1018F00080E090E0089585E090E00895AF92BF9277
:10190000CF92DF92EF920F931F935B016C010E94C5
:101910007000AB01BC01E1E0EE2E9601850181E093
:101920000E94BE001F910F91EF90DF90CF90BF906B
:10193000AF900895EF920F931F938150924009F05A
:101940005EC080915A0190915B010197B9F40E94A9
:1019500070006093F0027093F1028093F202909312
:10196000F3020E947000AB01BC01F1E0EF2E00ED2C
:1019700017E020E030E082E00E94BE0080915A0132
:1019800090915B01039709F03AC0109225011092E3
:1019900024010E94DD001092C8011092C7018091BD
:1019A0001A0190911C01992389F08F5F80931A018D
:1019B000843111F410921A01892F815080931C01F7
:1019C00090E0882309F491E0992369F08091B901AE
:1019D0009091BA01019799F468E873E180E090E092
:1019E0000E947E0C0CC00FB7F894112781E090E0A4
:1019F00090935B0180935A010E94810A0FBF10925D
:101A0000BF011F910F91EF9008950F931F93CF93F4
:101A1000DF93182FEB01042FE82FFF27EE0FFF1F96
:101A2000ED53FE4F1182108210920C01E091C30120
:101A3000F091C401309721F08091E20280FF0EC046
:101A400081E080930C0103C08EE00E949700112377
:101A5000B9F4602FCE010E949A0C12C020812D5043
:101A6000332767817727762F662786819927682B0A
:101A7000792BAF0183850E949809882341F3E4CF35
:101A8000DF91CF911F910F9108959B0180910C01DF
:101A9000882349F46091C3017091C40162177307F0
:101AA00011F40E94050D0895CF92DF92EF92FF92FC
:101AB0000F931F93CFB6F894DD240E949402DC01AB
:101AC000CB0166E470E00E941B1E1BE0E12EF12CAE
:101AD000E80EF91EF092EC02E092EB020E9438034D
:101AE00000271127A80197010E94F503CFBE1F917F
:101AF0000F91FF90EF90DF90CF9008951F93CF93B9
:101B0000DF938FB7F894C82FDD271C2F8091140125
:101B1000909115010897C9F489E00E94AA0683E014
:101B20000E94BA07C09A81E090E0909315018093DB
:101B300014018FB7F894992723E020930E018FBFEB
:101B400084E00E949700CFBF30C0C0988091EF0220
:101B5000882311F085E001C084E00E94AA0683FD7D
:101B600009C080E00E94AA0683FF04C085E090E0DF
:101B700020E003C083E090E021E090931501809382
:101B80001401C09A1FBF222341F01092230183E069
:101B90000E94BA070E94540D08C00E94380320E436
:101BA00031E040E050E00E94F503DF91CF911F91BA
:101BB0000895EF92FF920F931F93CF93DF938B01C2
:101BC000809177019091780186FF40C18F7B8F33A0
:101BD00009F08EC1C0911D01D0911E015881509312
:101BE000530180915101909152018530910509F482
:101BF00043C08630910509F48AC0029709F01FC1DD
:101C000085E090E0909352018093510140913C0116
:101C1000852F99270196242F3327281739074CF150
:101C2000B79906C00E9904C0451B415040933C0132
:101C3000409153014A32E8F44423A1F0BE016F5FA2
:101C40007F4F483018F047E050E007C086E090E052
:101C50009093520180935101552780E090E00E94BB
:101C6000630246C110925D01C09A84E00E94BA07E7
:101C7000E3C00E943D083CC186E090E09093520191
:101C80008093510180916201882309F439C08091C9
:101C90003F028823A9F5898185FF32C08F814E815B
:101CA0002FB7F894332760917301709174012FBF9F
:101CB0009927982F88275527842B952B86179707C8
:101CC00059F08F812E819927982F88273327822BCF
:101CD000932B8F5F9F4FA1F489818770813081F4AE
:101CE000C09AC0988AE00E94AA06C09AC098409103
:101CF000530147502896BE018FE30E94C506F8C0E5
:101D000040915301475055272896BE01A6CFC09A4F
:101D100080915701882339F484E00E94BA078091AA
:101D20005701882311F0B7990AC00E9B08C0909103
:101D3000DB02992321F0809153018B3038F480919C
:101D40001D0190911E010E9429033DC0913001F5B3
:101D5000E091E102FF27EE0FFF1FEE0FFF1FE95793
:101D6000FD4F2081318142815381E0911D01F0912D
:101D70001E0121ABBB27A52F942F832F80ABCA0157
:101D8000AA27BB2787A7252F33274427552726A710
:101D90008091E1029927019668E070E00E942F1E71
:101DA0008093E1028091DB0281508093DB028823E3
:101DB00051F080911D0190911E010E942903109203
:101DC000E1021092DB0280915301FE01E80FF11D48
:101DD000808187FF31C0012B79F169816770E091C3
:101DE0001D01F0911E01623019F5A0916301B091BF
:101DF0006401109709F180911401909115010797E2
:101E0000D9F4ED019B8183819817B1F487B78F7E58
:101E100087BF908181E08CA7E90FF11D82913196F7
:101E200088A780818F7789A780E00E94080C04C072
:101E3000613011F48BE02AC00E94080859C010924A
:101E40005D01C09A84E00E94BA0752C08E3309F047
:101E50004FC0C09A80911401909115010897C9F460
:101E6000C09889E00E94AA06C09A83E00E94BA073F
:101E700081E090E090931501809314018FB7F8945E
:101E8000992723E020930E018FBF84E00E949700E2
:101E90002FC08091EF02882349F484E090E0909372
:101EA0001501809314010E947E0D22C083E00E94E0
:101EB000BA0783E090E090931501809314010E948B
:101EC0009402DC01CB0166E371E00E941B1E0BE073
:101ED000E02EF12CE80EF91EF0923701E092360167
:101EE0000E94380300271127A80197010E94F503DB
:101EF000DF91CF911F910F91FF90EF9008951F9266
:101F00000F920FB60F9211242F933F934F935F932D
:101F10006F937F938F939F93AF93BF93EF93FF93B1
:101F20002FB1E091FF01F0910002309739F08091DC
:101F3000C1019091C201E80FF91F20838091C10176
:101F40009091C20101969093C2018093C10180E0FB
:101F50000E94910140912101509122018091C10183
:101F60009091C2018417950718F40E94F5011CC0D6
:101F70006091FF01709100028091E9029091EA0264
:101F8000109200021092FF011092EA021092E902F0
:101F900010922201109221011092C2011092C101EF
:101FA0002FB120E00E94D90DFF91EF91BF91AF9129
:101FB0009F918F917F916F915F914F913F912F9161
:101FC0000F900FBE0F901F90189578941F920F924C
:101FD0000FB60F9211242F923F924F925F926F9201
:101FE0007F928F929F92AF92BF92CF92DF92EF92A9
:101FF000FF920F931F932F933F934F935F936F9392
:102000007F938F939F93AF93BF93CF93DF93EF9380
:10201000FF93C6B5D7B58FB7F894282E0E94380322
:102020009B012C1B3D0B442755272B013C01421AD9
:10203000530A640A750A8091140190911501853044
:10204000910521F0069709F0E0C0BFC086E090E05E
:10205000909315018093140131E0332E30925C018E
:102060001092160180E00E941A04E0916301F09141
:10207000640141AABB27A72D962D852D80ABC301F6
:10208000AA27BB2787A7872D9927AA27BB2786A71B
:10209000E0916301F091640185A5882309F484C06F
:1020A0006081655077274F01860E971EF4012081CD
:1020B000E1808281A3809927AA27BB27BA2FA92F65
:1020C000982F8827332744275527522F4427332713
:1020D0002227FF24002711278701FF24EE242E2921
:1020E0003F29402B512BBB24CC24DD242A293B291A
:1020F0004C295D29822B932BA42BB52B8419950990
:10210000A609B7098383292F3A2F4B2F55272283FE
:102110009D014427552721838B2F9927AA27BB2769
:102120008083C09824E0A40180E090E00E94310602
:10213000C09AF4012081E1808281A3809927AA2797
:10214000BB27BA2FA92F982F882733274427552735
:10215000522F442733272227FF24002711278701E6
:10216000FF24EE242E293F29402B512BBB24CC24C5
:10217000DD242A293B294C295D29822B932BA42B72
:10218000B52B840D951DA61DB71D8383292F3A2FCE
:102190004B2F552722839D014427552721838B2FC1
:1021A0009927AA27BB278083E0916301F0916401FE
:1021B000818185FF02C03092410183E00E94BA070D
:1021C00087B78F7E87BF84997AC010925C0181E0C7
:1021D0000E941A04E0916301F0916401818185FFFE
:1021E0000FC087E090E090931501809314010E9446
:1021F000380320E031E040E050E00E94F50303C0E6
:1022000080E00E94080C849B5AC0809116018823AC
:1022100091F580915C01882371F511E010935C01C8
:102220000E941A0480B32091DB02283098F4E091D8
:10223000E102E20FFF27E770F070EE0FFF1FEE0FD5
:10224000FF1FE957FD4F40825182628273822F5FE8
:102250002093DB0210931601D0937A01C093790189
:1022600084992DC09927A4E096958795AA95E1F7C2
:10227000182F117001C010E080915C018130F9F4D9
:1022800010925C010E941A04109216011123B9F4F5
:102290008091790190917A01C81BD90B2A9778F423
:1022A0008091DB02882319F081508093DB028091BA
:1022B000630190916401009711F00E9429032FBEE1
:1022C000FF91EF91DF91CF91BF91AF919F918F914E
:1022D0007F916F915F914F913F912F911F910F913E
:1022E000FF90EF90DF90CF90BF90AF909F908F9036
:1022F0007F906F905F904F903F902F900F900FBE08
:102300000F901F90189578941F920F920FB60F920E
:1023100011241F932F933F934F935F936F937F935A
:102320008F939F93AF93BF93EF93FF9387B78F7E66
:1023300087BF78941FB7F89480916A0190916B01E0
:10234000A0916C01B0916D010097A105B10509F054
:1023500051C080911401909115018530910561F172
:102360008630910530F48330910549F0049781F56A
:102370001AC087309105F1F0089751F514C0869B7B
:102380000FC084E090E090931501809314010E94A7
:10239000380327E030E040E050E00E94F50318C029
:1023A0000E94540D15C00E942206882389F40E94C1
:1023B0007E0D0EC080E00AC089E00E94AA0681E07E
:1023C0000E941A0483E00E94BA0787E00E94080C6A
:1023D00080910F0190911001019771F482E090E0DB
:1023E0009093100180930F01DE98DE9A80E00E94A6
:1023F000CA0502C00E945503812F99278FBFFF9104
:10240000EF91BF91AF919F918F917F916F915F916C
:102410004F913F912F911F910F900FBE0F901F90E2
:10242000189561E081E00E9460018823E9F48FB78C
:10243000F894282F332780910F0190911001892B58
:1024400011F02FBF20C081E090E0909310018093A5
:102450000F012FBFDD9A0E94380324E130E040E0F5
:1024600050E00E94F5030FC062E081E00E947A0113
:10247000882319F089E090E0089561E081E00E94EE
:102480007A01882319F080E090E0089585E090E0DB
:102490000895AF92BF92CF92DF92EF92FF920F9387
:1024A0001F93CF93DF935B016C01C0E0D0E0E9ECB8
:1024B000F1E0608561FF6AC02081318142815381F2
:1024C000E480F58006811781D601C501821B930B3C
:1024D000A40BB50B8E159F05A007B10708F456C0D5
:1024E00060FF03C06D7F608708C02E0D3F1D401F39
:1024F000511F2083318342835383C130F1F0C130B7
:1025000030F0C23079F1C33009F046C02EC081E00E
:1025100090E09093E7028093E6028091DF02909131
:10252000E00281309105C1F59093BA018093B90121
:1025300090935B0180935A0115C010926101109233
:1025400060018091DF029091E002019711F40E94F6
:10255000460C8091DF029091E002892BE9F40E9401
:1025600011121AC00E94810A17C08091F402909142
:10257000F502892B41F481E090E09093F50280937D
:10258000F4020E94450A0E94460C06C02196399624
:10259000C630D10509F08DCF81E00E949700DF9110
:1025A000CF911F910F91FF90EF90DF90CF90BF9050
:1025B000AF9008955F926F927F928F929F92AF92A9
:1025C000BF92CF92DF92EF92FF920F931F93CF9320
:1025D000DF93CDB7DEB7A8970FB6F894DEBF0FBE76
:1025E000CDBF873009F4B0C1883098F4833009F446
:1025F00041C1843038F4813009F45BC0823008F086
:10260000B0C024C0853009F47DC1863008F095C182
:102610004BC18B3009F4C5C28C3038F4893009F4D1
:1026200089C28A3008F0A9C2C8C18D3039F08D3016
:1026300008F4FDC58E3009F052C644C68091E2020E
:10264000882309F44CC690E011E01AC68091540129
:10265000882361F5209183023091840240918502A4
:1026600050918602EFB7F894FF276091360270917F
:1026700037028091380290913902E0903801F09051
:10268000390100913A0110913B016E0D7F1D801FB1
:10269000911FEFBF20938302309384024093850201
:1026A00050938602109254010E94B0040E94700060
:1026B00043C00E9470005B016C018FB7F8949927AA
:1026C0001092C0018FBFAFEFEA2EAFEFFA2EAFEF3F
:1026D0000A2FAFE71A2F60E0E9ECF1E0808581FF77
:1026E0001CC080819181A281B381A6019501281B24
:1026F000390B4A0B5B0BDA01C90124813581468114
:102700005781281B390B4A0B5B0B2E153F054007E1
:1027100051071CF479018A0161E0399631E0EF3FFD
:10272000F307E1F6662309F4DAC51E141F04100648
:1027300011062CF0C601B5010E944912D0C5E092E5
:102740008302F0928402009385021093860281E056
:1027500080935401A8019701C601B5010E94B004FD
:10276000BEC50FB7F894112781E00E941A04F1E06A
:10277000EF2EF12CF0921501E09214011092160147
:1027800010924101109255010FBF0FB7F894112715
:102790000E941D03F0925201E092510110925D01DE
:1027A00089B78F7B89BF80E488BF8AB780628ABF80
:1027B0008AB78F7E8ABF89B7806489BF0FBF8FB702
:1027C000F894082F112780910F0190911001049720
:1027D00019F483E00E94AA060FBF0FB7F8941127DF
:1027E000C09A80E00E94BA070FBF8FB7F89499276C
:1027F00022E020933B028FBF81E090E09093E002C3
:102800008093DF02DA9880916001909161010197D5
:1028100069F48091000190910101892B09F05FC555
:102820001092200110921F010E94450A80916001C0
:1028300090916101892B09F052C58091000190911E
:102840000101892B09F44BC51092C8011092C701F0
:102850001092BA011092B9010E947000AB01BC0144
:10286000E1E0EE2E08E813E120E030E080E00E9495
:10287000BE0035C58FB7F894992710923B028FBFE1
:10288000DA9A1092BA011092B9011092C80110920E
:10289000C7011092E0021092DF0268E97AE380E05B
:1028A00090E00E947E0C1BC58FB7F8949927F0909A
:1028B0000E018FBF63E081E00E947A01882341F01E
:1028C0000E941F0C0E94100483E00E94970007C022
:1028D0008FB7F894992722E020933B028FBF009195
:1028E000BD011091BE010E9484028091E30290918B
:1028F000E402892B09F0F3C48FEF809309014F2D77
:10290000B801B5C48FB7F894282F3327122F8091C0
:10291000ED02882309F581E08093ED0280910F019B
:1029200090911001049721F481E00E94CA0503C030
:1029300086E00E9497001FBFD2C48FB7F8949927F2
:102940001092ED028FBFCBC48FB7F894282F332796
:1029500080911101882311F02FBFC1C42FBF80B314
:10296000992736E0969587953A95E1F7182F1170DB
:1029700090917501809176018917D9F01917C9F4E2
:1029800084E090E09093100180930F018FB7F8944A
:10299000992721E0209311018FBF60E070E08DE165
:1029A0000E944E080E947206C09AC09882E00E945F
:1029B00097001093760187E06DC08FB7F894992740
:1029C000109102018FBF123009F467C0133030F448
:1029D000112359F0113009F082C448C0133009F4B2
:1029E00076C0143009F07BC4A2C0C0988FB7F894A9
:1029F000082F112780910F01909110010297A1F5E6
:102A000083E090E09093100180930F0168E170E003
:102A10008DE10E944E0881E08093750110921101B2
:102A200080B3992726E0969587952A95E1F78170DE
:102A300090708093760187E00E94970081E00E9469
:102A4000AA066FE772E08CE10E944E080E94AF0870
:102A50000E94750866E57AE287E10E944E086FEFF2
:102A600070E885E10E944E080FBF39C4C09886E027
:102A70000E94AA060E94AF080E9475080E94720672
:102A8000C09AC09883E00E94AA06C09A81E00E9482
:102A9000BA0786E00E94970022C4C0988FB7F894C6
:102AA000082F112760E080E00E947A01882311F04E
:102AB0000FBF0AC00FBF83E50E94E90180E00E94BA
:102AC000E90180E00E94E901C09A82E02DC08FB741
:102AD000F8949927209114018FBF243039F02830C1
:102AE00041F0223001F50E94C008F9C30E947E0D1A
:102AF000F6C3C09889E00E94AA06C09A83E00E94AB
:102B0000BA078FB7F894992721E030E03093150188
:102B1000209314018FBF8FB7F894992710930E015B
:102B20008FBF84E0B7CF83E00E94BA07D8C30E946A
:102B3000F706D5C30FB7F8941127409121015091A2
:102B400022016091FF01709100028091E902909151
:102B5000EA02109200021092FF011092EA02109213
:102B6000E90210922201109221011092C2011092EA
:102B7000C10120E00E94D90D77CF2FB7F8943327F9
:102B8000809158018093050182E0809313012FBF4B
:102B900080910501882309F0A2C3B89AC09888E003
:102BA00079CFA0911D01B0911E01FC909D012F0DC8
:102BB000311DF9018081881F8827881FFD0183A7A7
:102BC000F90180818F77FD0181A721503040F90103
:102BD0008081FD0180A7A0911D01B0911E01FD0122
:102BE00032818FB7F8949927209156018FBF222305
:102BF00009F490C0832F9927969587959695879588
:102C0000837090708230910541F5878146812FB79E
:102C1000F894332760917301709174012FBF992745
:102C2000982F88275527842B952B8617970719F4FB
:102C300081E090E06CC0FD018781268140E050E09A
:102C40009927982F88273327822B932B8F5F9F4FAD
:102C500011F441E050E0CA015AC0039709F0DEC206
:102C60009E012F5F3F4F40E452E088E0FA0101905F
:102C7000AF01F90101929F018150C1F79E012F5DC3
:102C80003F4FAE014F5F5F4F88E0FA010190AF0107
:102C9000F90101929F018150C1F79E01275F3F4FCB
:102CA000AE014F5D5F4F88E0FA010190AF01F9017D
:102CB00001929F018150C1F79E012F5E3F4FAE01EF
:102CC000475F5F4F88E0FA010190AF01F90101927F
:102CD0009F018150C1F79E01275E3F4FAE014F5EBD
:102CE0005F4F88E0FA010190AF01F90101929F0165
:102CF0008150C1F748E050E0BE01675E7F4FCD01D3
:102D000006960E94981E892B09F088C203C088236A
:102D100009F484C2FCE0FF1508F080C280901D0118
:102D200090901E01F4012281822F9927F6E096955A
:102D30008795FA95E1F7039719F468E070E002C00F
:102D400062E070E0822F99279695879596958795F2
:102D500083709070039719F488E090E002C082E0DD
:102D600090E026E030E0820E931E40E050E020E04C
:102D700030E0F401E80FF91F8AEF9FEF880E991EEB
:102D800005C08191480F511D2F5F3F4F2617370710
:102D9000C4F3F40163818FEF8093E5028FB7F89459
:102DA000782F20E030E0EAE2F1E080819181841721
:102DB000950729F48281861731F12093E5022F5F70
:102DC0003F4F33962430310581F77FBF9091E50264
:102DD0003FB7F8949F3F21F0809117018917A9F51B
:102DE00020911701822F9927FC01EE0FFF1FE80F9A
:102DF000F91FE65DFE4F5183408362832F5F23708E
:102E0000209317012EC07FBF05C2D6018C91F60119
:102E10002181DA01AA0FBB1FAA0FBB1FA558BE4F05
:102E20009927982F88273327822B932B11969C93D1
:102E30008E93828523859927982F88273327822B85
:102E4000932BFD0193838283D1C0892F9927FC01A5
:102E5000EE0FFF1FE80FF91FE65DFE4F5183408321
:102E60006283832F99278FBF0FB7F8941127C4016E
:102E70000E941C01FC0190810FBFF40183A58823EF
:102E800009F4C8C19F3309F0C5C1878146812FB7B6
:102E9000F894332760910601709107012FBF99279D
:102EA000982F88275527842B952B8617970761F035
:102EB000878126819927982F88273327822B932B68
:102EC0008F5F9F4F09F0A6C1F4018385863009F01A
:102ED000A1C1FEE1FF1609F09DC18CE0C82ED12CE6
:102EE000C80CD91C00E1602E712C680C791CF4010F
:102EF000808911E1A12EB12CA80CB91C2189992738
:102F0000982F88273327822B932B049771F40FB7C0
:102F1000F89411270E94700060933D0170933E0168
:102F200080933F01909340010FBFF4018089218974
:102F30009927982F88273327822B932B0197C1F449
:102F40000FB7F894112782E090E090935B01809393
:102F50005A01848525859927982F88273327822B26
:102F6000932B9093BC018093BB010E94810A0FBFF9
:102F7000F401808921899927982F88273327822B6C
:102F8000932B029709F0B3C0809100019091010149
:102F9000892B09F4ACC05FB6F894828923899927FC
:102FA000982F88273327822B932B20911F01309154
:102FB000200128173907D0F0809124019091250134
:102FC0000196909325018093240140E050E0ABE707
:102FD000B1E08D919C9111978F5F9F4F09F415CFB0
:102FE0004F5F5F4F14964F30510599F76091240160
:102FF00070912501882777FD8095982F0E94F81CF5
:103000007B018C010E940B01AA2797FDA095BA2F86
:10301000BC01CD010E94F81C2DEC3CEC4CE45FE3BC
:103020000E94371D9B01AC01C801B7010E94331DEE
:1030300088230CF459C08091240190912501181621
:1030400019060CF051C08091E3018D7F8093E3015C
:1030500083E090E090935B0180935A01ABE7B1E08D
:1030600080E090E0BC016F5F7F4F8C01000F111F6B
:10307000000F111F05581E4FAB0123C0FD01228117
:103080003381F8018681978182179307B4F4121671
:1030900013069CF41816190684F4FD0193838283A9
:1030A000F801378326832D913C9111978481958176
:1030B00011969C938E93358324834F5F5F4F0C5FF3
:1030C0001F4F4F305105D4F214966F30710511F037
:1030D000CB01C8CF80917B0190917C019093BC0182
:1030E0008093BB010E94810A852D99278FBFD30150
:1030F0008C91F50120819927982F88273327822BDF
:10310000932B039709F048C00FB7F894112784E078
:1031100090E090935B0180935A01F60182812381B4
:103120009927982F88273327822B932B9093BC01C4
:103130008093BB010E94810A0FBF80910001909192
:103140000101009749F1F6018383892F9927828332
:1031500090911C019431A0F480911B01E82FFF276E
:10316000EE0FFF1FE55AFD4FD182C0828F5F809323
:103170001B01843111F410921B019F5F90931C017D
:103180000FB7F894112781E090E090935B01809352
:103190005A010E94810A0FBFD3018C91F501208151
:1031A0009927982F88273327822B932B059791F502
:1031B0008091000190910101892B61F1F6018681D6
:1031C00027819927982F88273327822B932B2091AB
:1031D0001F013091200128173907E0F00E94940266
:1031E0007B018C010E9470005B016C01C70161E4EE
:1031F00070E00E941B1E685D7C4D882777FD8095DE
:10320000982FE1E0EE2E8B019C01B601A50183E031
:103210000E94BE0090921E0180921D018FB7F8940B
:10322000992710925D018FBF0E94080858C09091A5
:10323000690180910901981709F451C0909309011F
:103240009923D1F400911801109119016091B701EF
:10325000C8010E940609482F5527442309F43FC09E
:103260008FEF809309016091180170911901F801A5
:1032700083850E94450D33C08FEF809309012FC0D5
:103280002091E202812F8223C1F0E92FFF27EE0F68
:10329000FF1FED53FE4F4081518111821082812F1B
:1032A000809528232093E202992339F463E0CA0130
:1032B0000E949A0C110F91E0E3CF9F5F983078F451
:1032C000110FDECF80910C01E82FFF27EE0FFF1FBB
:1032D000ED53FE4F6081718141E00E94050DA8967B
:1032E0000FB6F894DEBF0FBECDBFDF91CF911F9117
:1032F0000F91FF90EF90DF90CF90BF90AF909F9095
:103300008F907F906F905F9008958091DC028F3F47
:10331000B1F0282F3327F901EE5BFE4F80818093B7
:10332000DC028F3F11F48093EE028FEF80832F3FFA
:1033300031F0822F0E94DA1281E090E0089580E05F
:1033400090E008951F93CF93DF93CDB7DEB7E0975A
:103350000FB6F894DEBF0FBECDBF1FB7F8944FE095
:1033600050E06FEF70E082E491E00E94A51E8FEFC5
:103370008093DC028093EE0281E08EBD88E080BF06
:1033800083E083BF8CB59DB54AE72CB53DB52817C2
:10339000390708F44150442311F0C901F6CF92B720
:1033A00082B78917E9F32CB53DB592B782B7891773
:1033B000E9F38CB59DB5821B930B4096B5E09695CD
:1033C0008795BA95E1F79093DE028093DD0213BEF4
:1033D00083B78EBD8EB580BF12BE1DBC1CBC8FEFE7
:1033E00086BF86B780937C0080B7992787709070DE
:1033F000892BD1F7D29AD19AD09ADA9AD99AD89AB7
:1034000015BA8FEF84BBD498DC981DBC1CBC87B761
:10341000846087BF8EB5887F84608EBD0E948519C9
:103420008823E1F78FEF80935901EAE2F1E08FEF13
:103430009FEF918380831282339621E0E633F20777
:10344000C1F70E94940260935A028091000190910A
:1034500001010196AA27BB2780936501909366011D
:10346000A0936701B093680187EA92E090931E01F0
:1034700080931D018E98B89A8C988FEF80936E017F
:1034800010923A0210923B0210923C0210923D02BE
:10349000B89AD69AD59A8FB7F894992720910601B1
:1034A000309107018FBF30937401209373010E9404
:1034B000CA0429A73AA74BA75CA76DA77EA78FA729
:1034C00098ABDE019196FE01B99688E001900D92CD
:1034D0008150E1F7DE015196FE01B19688E001903E
:1034E0000D928150E1F7DE015996FE01719688E058
:1034F00001900D928150E1F7A0E4B2E0FE017996CF
:1035000088E001900D928150E1F7809108019927A0
:1035100090935F0180935E018FE1809335028AE191
:10352000809358020E94CA0429A73AA74BA75CA718
:103530006DA77EA78FA798ABDE019196FE01B99685
:1035400088E001900D928150E1F7DE011196FE01B5
:10355000B19688E001900D928150E1F7DE01199655
:10356000FE01319688E001900D928150E1F7A0E4D0
:10357000B2E0FE01399688E001900D928150E1F7AA
:10358000A0E4B2E0FD0137969C9180818D939083F9
:10359000319782E0E334F807B9F781E08093560170
:1035A0001092E8028093620110923F0280B7886017
:1035B00080BF8BE083BF86EE81BF87B7826087BF05
:1035C0000E942D040E9485198823E1F7812F9927F5
:1035D0008FBF78948FEF9FEF9093200180931F010E
:1035E00010922501109224011092E7021092E60237
:1035F00081E090E090936101809360011092F50268
:103600001092F40210925B0110925A010E94DD00A8
:103610000E9411128FB7F894482F55274BC087B7D7
:10362000992783709070892B19F4E5E0F0E013C0BE
:1036300080B7992787709070892BD1F781B792B79F
:10364000891B8C3030F082B7853F18F4E3E0F0E05E
:1036500002C0E2E0F0E087B7887BC1F480917D0092
:103660008B7FA1F46E9912C08AB190919A00892B38
:10367000887161F48091740082FD08C0379B03C09B
:1036800081E090E005C085E090E002C080E090E03D
:1036900025B78E1708F4E82FFF27E457FF4FE49172
:1036A000237E2062E22BE5BF78948895F89485B755
:1036B0008F7D85BF8091DC028F3F09F4B0CF282F2A
:1036C0003327F901EE5BFE4F80818093DC028F3F50
:1036D00011F48093EE028FEF80832F3F09F49FCF88
:1036E0004FBF822F0E94DA1295CFACE2B0E0EBE739
:1036F000FBE10C94611E222E332E442E552E662E95
:10370000772E882E992EFE013196A8E01192AA9567
:10371000E9F729823A824B825C826D827E828F82B7
:103720009886FE013996B8E01192BA95E9F7A98614
:10373000BA86CB86DC86ED86FE860F87188B89815C
:103740009A81AB81BC8189A79AA7ABA7BCA77C0152
:103750008D018FEF9FEFA0E0B0E0E822F9220A236D
:103760001B2389A59AA5ABA5BCA51D0144245524FE
:1037700089859A85AB85BC858DA39EA3AFA3B8A789
:103780005C016D018FEF9FEFA0E0B0E0A822B922AD
:10379000CA22DB228DA19EA1AFA1B8A53D0188243C
:1037A0009924C801B701A60195010E94421E69A390
:1037B0007AA38BA39CA3C801B701A40193010E9423
:1037C000421E7B018C01C201B101A60195010E943C
:1037D000421E5B016C01C201B101A40193010E9470
:1037E000421E3B014C01EA0CFB1C0C1D1D1D89A156
:1037F0009AA1ABA1BCA19D01442755272E0D3F1DC9
:10380000401F511F2A153B054C055D0540F480E023
:1038100090E0A1E0B0E0680E791E8A1E9B1ECA01EE
:10382000AA27BB27860D971DA81DB91D8D8F9E8FBA
:10383000AF8FB8A3A9013327222789A19AA1ABA1F1
:10384000BCA1A070B070280F391F4A1F5B1F298FC1
:103850003A8F4B8F5C8FA98CBA8CCB8CDC8CED8C27
:10386000FE8C0F8D18A1FE01719698E011929A9529
:10387000E9F7ED8AFE8A0F8B188F2D813E814F81EB
:1038800058856DA17EA18FA198A50E94421E3B0183
:103890004C012D853E854F85588969A57AA58BA554
:1038A0009CA50E94421E2D893E894F89588D260F66
:1038B000371F481F591F260D371D481D591D2D8BB9
:1038C0003E8B4F8B588F6D887E888F88988C2A2DE1
:1038D0003B2D4C2D5D2D662D772D882D992DE2E108
:1038E000AC960C947D1EA0E1B0E0E9E7FCE10C94FD
:1038F000611E222E332E442E552E662E772E882EB4
:10390000992E002309F466C088E0FE0131961192D9
:103910008A95E9F729833A834B835C836D837E83A1
:103920008F829887E0E2E01B1E16CCF52D813E8148
:103930004F815885602F772767FD7095DA01C9019F
:10394000062E04C0B695A795979587950A94D2F749
:103950008D879E87AF87B88B04C0220F331F441F0B
:10396000551FEA95D2F789819A81AB81BC8104C049
:10397000B695A795979587956A95D2F7282B392BF9
:103980004A2B5B2B29873A874B875C8729843A84AB
:103990004B845C846D847E848F8498881BC01D86D4
:1039A0001E861F86188A2E2F332727FD30953095C7
:1039B00021953F4F8D819E81AF81B88504C0B6951A
:1039C000A795979587952A95D2F789879A87AB8788
:1039D000BC87DCCF222D332D442D552D662D772D20
:1039E000882D992DE2E160960C947D1EE89409C023
:1039F00097FB3EF490958095709561957F4F8F4F22
:103A00009F4F9923A9F0F92F96E9BB279395F69537
:103A1000879577956795B795F111F8CFFAF4BB0FB5
:103A200011F460FF1BC06F5F7F4F8F4F9F4F16C019
:103A3000882311F096E911C0772321F09EE8872FA3
:103A4000762F05C0662371F096E8862F70E060E05F
:103A50002AF09A95660F771F881FDAF7880F9695D8
:103A6000879597F9089566D008F48FEF08950BD0E5
:103A70009CC08DD028F092D018F0952309F07EC01C
:103A800083C01124C6C0A2D0A0F3959FD1F3950F97
:103A900050E0551F629FF001729FBB27F00DB11DD2
:103AA000639FAA27F00DB11DAA1F649F6627B00D62
:103AB000A11D661F829F2227B00DA11D621F739F4B
:103AC000B00DA11D621F839FA00D611D221F749F59
:103AD0003327A00D611D231F849F600D211D822FA0
:103AE000762F6A2F11249F5750408AF0E1F08823E7
:103AF0004AF0EE0FFF1FBB1F661F771F881F9150F4
:103B00005040A9F79E3F510570F038C082C05F3F1A
:103B1000ECF3983EDCF3869577956795B795F79526
:103B2000E7959F5FC1F7FE2B880F911D96958795AE
:103B300097F90895990F0008550FAA0BE0E8FEEFDA
:103B400016161706E807F907C0F012161306E40761
:103B5000F50798F0621B730B840B950B39F40A265A
:103B600061F0232B242B252B21F408950A2609F438
:103B7000A140A6958FEF811D811D089597F99F673C
:103B800080E870E060E008959FEF80EC08950024E5
:103B90000A941616170618060906089500240A94B2
:103BA00012161306140605060895092E0394000C38
:103BB00011F4882352F0BB0F40F4BF2B11F460FFC7
:103BC00004C06F5F7F4F8F4F9F4F089557FD9058F0
:103BD000440F551F59F05F3F71F04795880F97FBD1
:103BE000991F61F09F3F79F087950895121613068B
:103BF0001406551FF2CF4695F1DF08C016161706BA
:103C00001806991FF1CF86957105610508940895EE
:103C1000E894BB2766277727CB0197F90895991B6E
:103C200079E004C0991F961708F0961B881F7A95B3
:103C3000C9F780950895AA1BBB1B51E107C0AA1FB5
:103C4000BB1FA617B70710F0A61BB70B881F991F3D
:103C50005A95A9F780959095BC01CD01089597FBE1
:103C6000092E07260AD077FD04D0E5DF06D0002014
:103C70001AF4709561957F4F0895F6F790958195A8
:103C80009F4F0895629FD001739FF001829FE00DC6
:103C9000F11D649FE00DF11D929FF00D839FF00DCB
:103CA000749FF00D659FF00D9927729FB00DE11D77
:103CB000F91F639FB00DE11DF91FBD01CF01112454
:103CC00008952F923F924F925F926F927F928F92C0
:103CD0009F92AF92BF92CF92DF92EF92FF920F939B
:103CE0001F93CF93DF93CDB7DEB7CA1BDB0B0FB6A5
:103CF000F894DEBF0FBECDBF09942A883988488862
:103D00005F846E847D848C849B84AA84B984C884F7
:103D1000DF80EE80FD800C811B81AA81B981CE0FEE
:103D2000D11D0FB6F894DEBF0FBECDBFED010895D3
:103D3000FB01DC0104C08D910190801921F44150F8
:103D40005040C8F7881B990B0895DC0101C06D93A2
:0A3D500041505040E0F70895FFCF06
:0E3D5A000100FFFFFFFF010022FFFFFF01003D
:00000001FF
