S01800006275696C642F6D6963617A2F6D61696E2E73726563E5
S11300000C9449000C9499050C94A3050C94AD052B
S11300100C94B7050C94C1050C94CB050C9499066B
S11300200C94D5050C9468000C9468000C947F1A09
S11300300C94D70E0C9463050C9479050C94DF058D
S11300400C9452050C940B110C9468000C946800E9
S11300500C9468000C9468000C9468000C9468007C
S11300600C946E050C9468000C9468000C94680061
S11300700C9468000C9468000C9468000C9468005C
S11300800C9468000C9468000C94680000081C1818
S1130090141011241FBECFEFD0E1DEBFCDBF11E09D
S11300A0A0E0B1E0EAEAFEE300E00BBF02C0079083
S11300B00D92AE30B107D9F714E0AEE0B1E001C063
S11300C01D92AA38B107E1F70E949A180C94541FA4
S11300D00C9400008FB7F894992708958FBF089562
S11300E07FB7F89462B7209126013091270140919F
S11300F028015091290106B601FE0FC081B792B7BD
S1130100280F311D411D511D2F5F3F4F4F4F5F4F32
S1130110290F311D411D511D04C0260F311D411DE4
S1130120511D872F99278FBFCA01B9010895282F20
S11301309FB7F894E82FFF27EC5BFE4F80818F3F39
S113014081F4E091F202E21771F40BC02093E00213
S113015004C0FF27EC5BFE4F20832093F20220E0D3
S113016007C025E005C08091E0028F3F91F7EECFF4
S1130170892F99278FBF822F99270895EF920F9384
S11301801F93AE2D99E0899FF0011124E353FE4F94
S11301904083518362837383048315832683378367
S11301A0A17080858E7F8A2B8260808781E00E9487
S11301B097001F910F91EF90089510924D021092A5
S11301C04C0210924F0210924E0210925102109261
S11301D05002109253021092520210925502109241
S11301E05402109257021092560210925902109221
S11301F0580210925B0210925A02EFE7F1E08FEF7F
S11302009FEF9183808393838283349621E0EB3B39
S1130210F207B9F70895AF92BF92CF92DF92EF92AF
S11302200F931F935B016C010E947000AB01BC0132
S113023081E0E82E9601850181E00E94BE001F91B5
S11302400F91EF90DF90CF90BF90AF90089520E092
S113025030E0EFE7F1E0808191818F5F9F4F31F0D3
S11302602F5F3F4F34962F303105A9F7C901089508
S1130270FC0182819927582F442781819927482B93
S1130280592BCA01892F992786958695837090707A
S11302908230910559F08330910559F0892B19F476
S11302A020E030E008C02CE93FEF05C022E030E058
S11302B002C028E030E0CA0184E0989F812D99278C
S11302C011248230910559F08330910559F0892B1E
S11302D019F480E090E008C08CE99FEF05C082E04B
S11302E090E002C088E090E0280F391F2A5F3F4F5A
S11302F0CF01820F931F0895282F9FB7F894662388
S113030049F0E82FFF27E25CFD4F8081882311F03C
S113031021E006C0E22FFF27E25CFD4F608320E06E
S1130320892F99278FBF822F99270895E82F8FB798
S1130330F894282F332790E0FF27E25CFD4F80815B
S1130340861709F491E02FBF892F992708958823F0
S113035011F06E9A08956E980895882311F06F9A9B
S113036008956F98089580E00E94A701BA9ABB98F7
S1130370B99AB89A6C9A80E00E94AD016B986A9819
S113038081E00E94A701709A8DB18C7F8DB9089588
S11303900F931F93CF93DF93182F8FB7F894C82F21
S11303A0DD270C2F61E080E00E947C01882321F08E
S11303B0CFBF85E090E024C0809105018823A1F49B
S11303C080911301823081F409C082E0809313018B
S11303D0109205010E94B301B89AC09810930201CB
S11303E080E00FBF99270CC080911301882369F323
S11303F08FB7F894992710923E028FBF81E0F1CF16
S1130400DF91CF911F910F9108951F93182F81E0D1
S11304100E94A7011FB9779BFECF8FB199271F9127
S113042008958F929F92AF92BF92CF92DF92EF92F4
S1130430FF920F931F93CF93DF938FB7F89499276D
S1130440C090ED02D090EE028090030290900402DE
S1130450C091C501D091C6012091210130912201A2
S1130460EAE0AE2EB12CAC0EBD1E2A153B0508F4F5
S113047059018FBF7401EC0EFD1E86010C0F1D1F68
S113048014C0C114D10419F0F801808101C080E0C6
S11304900E9405028114910411F0F70180832196D2
S11304A00894E11CF11C0F5F1F4FC5010197C81789
S11304B0D90738F381E00E94AD019FB7F894C114C5
S11304C0D10431F0CC0EDD1EF60180818FB901C05C
S11304D01FB8D093C601C093C501892F99278FBF38
S11304E080E090E0DF91CF911F910F91FF90EF900A
S11304F0DF90CF90BF90AF909F908F9008952FB7CB
S1130500F894332750932201409321019093EE02F3
S11305108093ED0270930402609303021092C6016B
S11305201092C5012FBF452B29F08FB10E941102F3
S11305309927089589E00E94970080E090E008954B
S11305408FB7F8949927109240028FBF08958FB700
S1130550F89499272BB332E023272BBB8FBF089540
S11305602F923F924F925F926F927F928F929F92BF
S1130570AF92BF92CF92DF92EF92FF920F931F93AD
S1130580CF93DF93CDB7DEB729970FB6F894DEBFCC
S11305900FBECDBF6FB76983F89420906901309086
S11305A06A0140906B0150906C0166247724882482
S11305B0BEE4AB2EA3E8BA2ECC24DD24EE24FF2423
S11305C000E010E0222D332D442D552D662D772D7E
S11305D0882D90E00E941D1C2A833B834C835D83FD
S11305E06E837F8388879987822E932EA42EB52EBF
S11305F02401350100E20E941B1DA22EB32EC42E3D
S1130600D52EA301920156954795379527952A0D26
S11306103B1D4C1D5D1D57FF05C05F772F5F3F4F8E
S11306204F4F5F4F2093690130936A0140936B01F0
S113063050936C01E9818E2F99278FBFCA01B901AC
S113064029960FB6F894DEBF0FBECDBFDF91CF91D0
S11306501F910F91FF90EF90DF90CF90BF90AF90DC
S11306609F908F907F906F905F904F903F902F90CE
S11306700895EF92FF920F931F93CF93DF93182F58
S11306807B01042F8FB7F894C82FDD2760E080E04A
S11306900E949601882321F0CFBF80E090E014C02F
S11306A0CFBF1064812F992790937C0180937B01A5
S11306B00E940502182F402F5527B70180E090E0D3
S11306C00E947F02812F9927DF91CF911F910F9173
S11306D0FF90EF900895C09860911D0170911E01E4
S11306E041E08FE30E943903089580E880933E013E
S11306F010925F011092E5021092DF0210925901EC
S11307000895CF93DF93FC0115A6DC019E96ED01BD
S11307101B821A82198280E886A7DF91CF910895FF
S11307208FB7F8946091C9017091CA012CB53DB599
S113073006B602FE04C06F5F7F4F2CB53DB5992706
S11307408FBF88279927CB0177276627442755270A
S1130750622B732B842B952B0895EF92FF920F93AA
S11307601F930E9490037B018C01209173013091AF
S11307707401409175015091760180916E019091C0
S11307806F01A0917001B0917101820F931FA41F9A
S1130790B51FE216F3060407150730F08217930716
S11307A0A407B50758F005C082179307A407B50737
S11307B0E0F5E816F9060A071B07B8F59C01AD0138
S11307C02E193F09400B510B213060E8360760E0D9
S11307D0460760E0560768F180E090E8A0E0B0E0EA
S11307E0E80EF91E0A1F1B1FE0927301F0927401B8
S11307F0009375011093760180E090E8AFEFBFEFAE
S1130800E80EF91E0A1F1B1F20503048404050407C
S113081020936E0130936F014093700150937101E6
S113082020E030E840E050E014C020E030E040E058
S113083050E08093730190937401A0937501B09379
S1130840760110926E0110926F0110927001109255
S11308507101A901B7012CB53DB5C9018E199F09D4
S113086003968417950720F0B9016D5F7F4F02C08E
S1130870640F751F6115710511F461E070E061503A
S113088070407BBD6ABD80E186BF87B7806187BF4A
S11308901F910F91FF90EF9008950F931F930FB73F
S11308A0F894112760937301709374018093750118
S11308B09093760120936E0130936F014093700101
S11308C0509371010E94AD030FBF1F910F910895C2
S11308D01092100110920F01DE98DD98DE9A80E0EC
S11308E090E0089597B79F7D97BF90E296BF8823C5
S11308F019F08EB5806402C08EB58F7B8EBD87B72C
S1130900806287BF80E090E00895DF92EF92FF92CB
S11309100F931F938FB7F894282F3327D22E91B7B4
S113092082B746B7981711F041FF02C02FBF6AC0C3
S11309308091C4018823E1F10E947000E0903A02A2
S1130940F0903B0200913C0210913D0220913A014B
S113095030913B0140913C0150913D016E197F095A
S1130960800B910B621773078407950720F0109290
S1130970C40171E01EC02E0D3F1D401F511F809108
S1130980260190912701A0912801B0912901281BEB
S1130990390B4A0B5B0B273E31054105510540F4E9
S11309A0822F223010F070E005C070E082E002C0B7
S11309B070E086EE682F615000B601FCFDCF82B76F
S11309C0681709F46F5F2091260130912701409147
S11309D0280150912901DA01C9010196A11DB11D17
S11309E0860F911DA11DB11D82179307A407B5079A
S11309F010F4622F609561BFDFBE772319F080E0A9
S1130A000E9497001F910F91FF90EF90DF9008953F
S1130A10AFB7F894BB27E1E0E093C40160933A02D6
S1130A2070933B0280933C0290933D0220933A01E1
S1130A3030933B0140933C0150933D01AFBF0E9472
S1130A4085040895AF92BF92CF92DF92EF92FF9206
S1130A500F931F93CF93DF93CDB7DEB728970FB6CD
S1130A60F894DEBF0FBECDBF20E070E0E09100013E
S1130A70F091010132E14DE65CE46FE48091010103
S1130A809E2F28960FB6F894DEBF0FBECDBFDF9120
S1130A90CF911F910F91FF90EF90DF90CF90BF9077
S1130AA0AF9008951F920F920FB60F9211248F9357
S1130AB083B783BF00B600FCFDCF8F910F900FBEAC
S1130AC00F901F90189578941F920F920FB60F9263
S1130AD011240F900FBE0F901F90189578941F92B9
S1130AE00F920FB60F9211240F900FBE0F901F900C
S1130AF0189578941F920F920FB60F9211242F938A
S1130B003F938F939F932FB7F89433278091C90114
S1130B109091CA0101969093CA018093C9012FBF95
S1130B209F918F913F912F910F900FBE0F901F9027
S1130B3018951F920F920FB60F9211240F900FBEAB
S1130B400F901F9018951F920F920FB60F921124B9
S1130B500F900FBE0F901F9018951F920F920FB613
S1130B600F9211240F900FBE0F901F9018951F9293
S1130B700F920FB60F9211240F900FBE0F901F907B
S1130B8018951F920F920FB60F9211240F900FBE5B
S1130B900F901F9018951F920F920FB60F92112469
S1130BA00F900FBE0F901F9018951F920F920FB6C3
S1130BB00F9211240F900FBE0F901F9018951F9243
S1130BC00F920FB60F9211242F933F934F935F937D
S1130BD06F937F938F939F93AF93BF93EF93FF9301
S1130BE083B783BF00B600FCFDCF81B79927019678
S1130BF0AA27BB2720912601309127014091280183
S1130C0050912901280F391F4A1F5B1F2093260189
S1130C1030932701409328015093290178940E942E
S1130C208504FF91EF91BF91AF919F918F917F9137
S1130C306F915F914F913F912F910F900FBE0F9045
S1130C401F9018950F931F93182F0FB7F89461E016
S1130C5080E00E947C01882371F510930201809149
S1130C6005018823A9F580911301823089F588E074
S1130C700CC00E94B30180911301882349F481E0E0
S1130C808093130110925A018AE00E9497002AC0AF
S1130C90809172018F3F31F5E0910401EE2311F14F
S1130CA01CC01092030104C0FF27EE58FE4F1082AF
S1130CB01092040117C081E090E002C0880F991FD0
S1130CC01A95E2F720911201282B209312010AC0F1
S1130CD0809113018823E1F6CCCF809103018F3FEB
S1130CE019F7DFCF802F99278FBF80E090E01F9105
S1130CF00F91089582E090E0909354018093530102
S1130D0081E080935F0120E030E080910201843033
S1130D1011F421E030E0232B29F484E00E94C8017F
S1130D20882319F40E946B03089584E00E9422062C
S1130D3008951F920F920FB60F9211242F933F9391
S1130D404F935F936F937F938F939F93AF93BF93CF
S1130D50EF93FF938091530190915401019749F4CB
S1130D6082E090E090935401809353010E947A06AC
S1130D7005C0809159018F5F80935901FF91EF91D4
S1130D80BF91AF919F918F917F916F915F914F919F
S1130D903F912F910F900FBE0F901F9018951F93A6
S1130DA083E00E94C8019927182F882319F083E053
S1130DB00E942206812F99271F9108951F938091E5
S1130DC01201882309F04BC0109102011F3F09F062
S1130DD046C060E00E949601882309F440C081E087
S1130DE080935D02809143018823E1F110925D02BA
S1130DF085E090E045C0923069F5C09A8091030186
S1130E0020E030E08F3F11F421E030E0232BE9F4BF
S1130E10109305018F3F19F42FEF30E00DC0282FF8
S1130E203327F901EE58FE4F8081809303018F3FF1
S1130E3011F410930401108320935A0181E08093EC
S1130E4013018AE00E94970005C0109305011092D7
S1130E50130111C080911301882369F00FC081E050
S1130E6090E00EC08091050190911301882319F23E
S1130E70923021F0EFCF80E00E94A70180E090E063
S1130E801F9108951F93CF93DF939FB7F894C92FB1
S1130E90DD271C2F90910201981721F0CFBF81E02C
S1130EA090E03AC08FEF8093020130911201332316
S1130EB0F1F48FB7F894992710923E028FBF0E94E5
S1130EC0DE06CFBF11C02093020181E090E002C092
S1130ED0880F991F4A95E2F78095382330931201C1
S1130EE088E00E9497001FBF80E090E015C080E07A
S1130EF065E0E32FFF270E94B71E292F492F5527AE
S1130F00CF01042E02C0959587950A94E2F780FDDF
S1130F10DACF822F8F5FEFCFDF91CF911F910895AA
S1130F201F93CF93DF938FB7F894C82FDD271C2F1F
S1130F308091530190915401892B29F484E00E94FB
S1130F404207CFBF1EC010925F01809159018823D0
S1130F5011F0B79904C00E9908C0882319F0815084
S1130F60809359010E947A060BC081E090E090932F
S1130F705401809353011092590184E00E94420766
S1130F801FBFDF91CF911F910895FF920F931F937D
S1130F90CF93DF93F82E8B018FB7F894C82FDD27FA
S1130FA060E080E00E949601882321F0CFBF80E0BA
S1130FB090E00CC0CFBF8F2D0E940502812F99278E
S1130FC00E940502802F0E9405029927DF91CF918C
S1130FD01F910F91FF9008951F931FB7F89480916C
S1130FE05801882319F460E070E009C060E0809142
S1130FF0EC02882309F461E081E068277727809177
S11310006601882319F480E090E00AC090E08091A2
S11310104302882309F491E081E09827892F9927D6
S1131020762F6627770F770F770FE4E0880F991FE5
S1131030EA95E1F7826E9262682B792B81E10E9436
S1131040C507812F99278FBF1F9108958FB7F894F3
S1131050992760915C028FBF85E0689FB0011124DD
S1131060625D7E4F706488E10E94C5070895EF9227
S1131070FF921F93CF93DF93E0906701F090680194
S1131080F70182A59927182F882309F41FE1C09836
S113109080915701811749F0612F77276F71707024
S11310A0606E706885E10E94C50710935701F701CF
S11310B010818FB7F894C82FDD2760E080E00E948C
S11310C09601882311F0CFBF12C0CFBF8EE390E00A
S11310D090937C0180937B018EE30E940502115062
S11310E0412F552760E070E0C7010E947F02DF9125
S11310F0CF911F91FF90EF900895CF92DF92EF92DE
S1131100FF920F931F93CF93DF938C01F62E6A0106
S1131110E22E8FB7F894C82FDD2760E080E00E94AC
S11311209601882321F0CFBF80E090E01EC0CFBF9E
S11311300F0D111D802F80680E940502F82E169550
S11311400795802F807C0E9405020E2D0AC0EE2D8B
S1131150FF27E01BF109EC0DFD1D80810E940502B3
S113116001500023A1F78F2D9927DF91CF911F9173
S11311700F91FF90EF90DF90CF900895CF93DF937E
S1131180CDB7DEB72C970FB6F894DEBF0FBECDBF38
S11311908FB7F894282FAE014F5F5F4FDA01E4E474
S11311A0F2E088E001900D928150E1F780916201B4
S11311B0909163018987892F99278A878091770184
S11311C0909178018B87892F99278C872FBF2CE0EA
S11311D060E080E691E00E947D082C960FB6F894BA
S11311E0DEBF0FBECDBFDF91CF9108951F93CF9384
S11311F0DF93182F8FB7F894C82FDD2760E080E0C5
S11312000E949601882321F0CFBF80E090E005C0C2
S1131210CFBF812F0E9405029927DF91CF911F91A3
S113122008950E947503C09AC09888E00E94F60849
S113123088E00E94F608C09A84E00E9442070E9457
S1131240900708950F931F93CF93DF93EC010FB78B
S1131250F89411270E943801FC018FE380830FBFAB
S11312601092E8021092E70261E082E00E947C01A1
S1131270882319F085E090E072C080915E028F5F50
S113128080935E0281508B838FB7F894082F1127C7
S113129062E081E00E949601882329F40FBF0E9436
S11312A0A00281E05BC08FB7F894992724E02093D3
S11312B03F028FBFD093C201C093C1010FBFFE0193
S11312C03196818129819927982F88273327822B6A
S11312D0932B80729C7C8983892F99278183298110
S11312E0982F882733272164822B932B8983892F76
S11312F0992781831CA618A619A619AA18AA1FA69D
S113130080E88EA761E0609342024091C101509150
S1131310C2018FB7F894282F33278091140190913C
S113132015018830910511F0019711F02FBF15C0F8
S113133082E090E090931501809314016093F3028E
S11313405093680140936701109223012FBF0E94BC
S1131350CF06882311F40E94370880E09927DF9193
S1131360CF911F910F910895CF93DF93DA01422F0C
S11313702D3118F082E090E05EC0ED018B876E8322
S1131380872F99278F832FB7F89433278091620191
S1131390909163012FBFFD018483892F9927858351
S11313A02FB7F894332780910601909107012FBF3E
S11313B08887892F9927898731968181298199275F
S11313C0982F8827332720643868822B932B8983AE
S11313D0892F99278183435F4C934D508091090154
S11313E0882359F010920901642FCD010E9422092B
S11313F09927282F8823A9F417C0842F992790931D
S1131400BC018093BB01B0931901A09318018CE037
S11314100E94970080910901882349F489E090E0B3
S11314200AC08FEF80930901822F992704C010927C
S11314306D0180E090E0DF91CF910895CF93DF9329
S1131440FB01DB0116968683892F9927ED01898399
S113145086E083878091C7019091C801892B19F098
S113146085E090E02BC07093C8016093C701435F8F
S113147040834D5080910C01882319F480E090E062
S11314801DC08385ED0169817727762F6627268124
S11314903327622B732B10920C01242FAF010E946F
S11314A0B4099927282F882339F081E080930C010F
S11314B01092C8011092C701822F9927DF91CF9112
S11314C00895809100019091010180931202892F67
S11314D099278093110285E08093160210921502D9
S11314E080911F019091200180931A02892F9927DE
S11314F08093190210921C0210921B0210921E0279
S113150010921D02109221020E9427018093200252
S1131510892F992780931F0281E0809318021092EB
S1131520170241E165E072E08FEF9FEF0E941E0A0F
S1131530882311F40E94A70208951F93CF93DF9389
S1131540C1E1D2E080915C0190915D01019799F530
S1131550809100019091010180931202292F332779
S113156020931102809314022093130211E010932C
S113157016021092150280911F0190912001809310
S11315801A02892F99278093190210921C02109233
S11315901B0210921E0210921D02109221020E9440
S11315A0270180932002892F992780931F0210938B
S11315B018021092170280915C0190915D010297CC
S11315C0A1F5809100019091010180931202292FCD
S11315D0332720931102809314022093130282E094
S11315E0809316021092150280911F0190912001A0
S11315F080931A02892F99278093190210921C0252
S113160010921B0210921E0210921D0210922102CF
S11316100E94270180932002892F992780931F021B
S113162081E0809318021092170280915C019091DE
S11316305D01039709F0ABC08091EA029091EB023F
S1131640019791F51092EB021092EA028091000149
S11316509091010180931202292F332720931102C4
S1131660809314022093130283E080931602109255
S1131670150280911F019091200180931A02892FF5
S11316809927809319028091F4029091F502809336
S11316901C02892F992780931B0210921E0210921C
S11316A01D021092210266C090E080911C018823E3
S11316B009F491E0992309F09BC0E0911A01FF27F6
S11316C0EE0FFF1FE15AFD4F0190F081E02D808164
S11316D09927982F882721813327822B932B809356
S11316E01202892F99278093110280910001909111
S11316F0010180931402892F992780931302848116
S11317009927982F882725813327822B932B809321
S11317101602892F99278093150280859927982F7F
S1131720882721853327822B932B80931A02892FB4
S113173099278093190282859927982F88272385D2
S11317403327822B932B80931C02892F9927809314
S11317501B0284859927982F882725853327822B78
S1131760932B80931E02892F992780931D028089D1
S1131770809321020E94270180932002892F9927B8
S113178080931F0281E080931802109217028091C7
S11317905C0190915D01049759F58091000190914D
S11317A001018983292F3327209311028093140286
S11317B02A8384E0809316021C8280911F019091F9
S11317C0200180931A02892F9927888710921C027E
S11317D01A8610921E021C86188A0E942701809382
S11317E02002892F99278E8781E0809318021E8218
S11317F08091C3018823E1F481E08093C301809147
S11318005C0190915D01019731F48FEF9FEF90930C
S1131810C0018093BF0141E165E072E08091BF01A6
S11318209091C0010E941E0A882311F40E94A7020D
S1131830DF91CF911F9108951F93182F81E090E0BD
S11318409093150180931401109243010E94DE06C7
S11318508FB7F894992710930E018FBF84E00E94EC
S113186097001F9108950F931F930FB7F8941127B2
S1131870109215011092140187B78F7E87BF87B726
S11318808F7D87BF83E00E944207C09A0FBF0FB7C6
S1131890F894112710925401109253010E94750379
S11318A0C09A89B78F7B89BF0FBF80E090E01F91FA
S11318B00F91089562E081E00E949601882379F0F7
S11318C08FB7F894992723E020933F028FBF0E949B
S11318D0330C0E94680483E00E9497001DC060E0FE
S11318E081E00E949601882319F089E090E0089530
S11318F064E081E00E949601882341F08FB7F89458
S1131900992723E020933F028FBF06C063E081E064
S11319100E949601882319F080E090E0089585E004
S113192090E00895EF920F931F931092C301855096
S1131930924009F094C080915C0190915D010197FF
S113194061F580916001909161010196909361012C
S1131950809360018091F4029091F502A091F602C7
S1131960B091F7020097A105B10551F40E947000EF
S11319706093F4027093F5028093F6029093F70259
S11319800E947000AB01BC01B1E0EB2E04EF11E04A
S113199020E030E082E00E94BE0080915C019091E2
S11319A05D01039709F042C01092250110922401B1
S11319B00E94DD001092CC011092CB0180911A019B
S11319C090911C01992351F08F5F80931A01843107
S11319D011F410921A01915090931C011FB7F894BE
S11319E090E080911C01882309F491E0992369F027
S11319F08091BD019091BE010197A9F468E873E15B
S1131A0080E090E00E940B010EC081E090E0909392
S1131A105D0180935C018091000190910101892B0B
S1131A2011F00E949D0A812F99278FBF80915C013C
S1131A3090915D01049799F41FB7F89481E090E0C8
S1131A4090935D0180935C0180910001909101016C
S1131A50892B11F00E949D0A812F99278FBF1F9116
S1131A600F91EF9008950F931F93CF93DF93182F47
S1131A70EB01042FE82FFF27EE0FFF1FE953FE4F62
S1131A801182108210920C01E091C701F091C801FB
S1131A90309721F08091E60280FF0EC081E08093B0
S1131AA00C0103C08EE00E9497001123B9F4602F4B
S1131AB0CE010E94920C12C020812D5033276781E1
S1131AC07727762F662786819927682B792BAF0194
S1131AD083850E94B409882341F3E4CFDF91CF9139
S1131AE01F910F9108959B0180910C01882349F463
S1131AF06091C7017091C8016217730711F40E94C5
S1131B00330D089561E081E00E947C018823E9F4AB
S1131B108FB7F894282F332780910F0190911001EB
S1131B20892B11F02FBF20C081E090E09093100129
S1131B3080930F012FBFDD9A0E94900324E130E0CF
S1131B4040E050E00E944D040FC062E081E00E943A
S1131B509601882319F089E090E0089561E081E01E
S1131B600E949601882319F080E090E0089585E0B2
S1131B7090E00895AF92BF92CF92DF92EF92FF92DE
S1131B800F931F93CF93DF935B016C01C0E0D0E010
S1131B90EDECF1E0608561FF71C02081318142810B
S1131BA05381E480F58006811781D601C501821B2B
S1131BB0930BA40BB50B8E159F05A007B10708F472
S1131BC05DC060FF03C06D7F608708C02E0D3F1DA0
S1131BD0401F511F2083318342835383C130F9F066
S1131BE0C13030F0C23081F1C33009F04DC035C08E
S1131BF081E090E09093EB028093EA028091E3020B
S1131C009091E4028130910509F03EC09093BE01A9
S1131C108093BD0190935D0180935C0115C0109287
S1131C206501109264018091E3029091E4020197AE
S1131C3011F40E945A0C8091E3029091E402892BE2
S1131C4019F50E94820D20C080910001909101013C
S1131C50892BD1F00E949D0A17C08091F8029091BF
S1131C60F902892B41F481E090E09093F90280938A
S1131C70F8020E94610A0E945A0C06C02196399605
S1131C80C630D10509F086CF81E00E949700DF912C
S1131C90CF911F910F91FF90EF90DF90CF90BF9065
S1131CA0AF900895CF92DF92EF92FF920F931F931C
S1131CB0CFB6F894DD240E94B002DC01CB0166E4C7
S1131CC070E00E94C31E2BE0E22EF12CE80EF91EF8
S1131CD0F092F002E092EF020E9490030027112795
S1131CE0A80197010E944D04CFBE1F910F91FF9050
S1131CF0EF90DF90CF9008951F93CF93DF938FB72A
S1131D00F894C82FDD271C2F8091140190911501A0
S1131D100897C9F489E00E94F60883E00E9442070C
S1131D20C09A81E090E090931501809314018FB7DD
S1131D30F894992723E020930E018FBF84E00E943A
S1131D409700CFBF30C0C0988091F302882311F070
S1131D5085E001C084E00E94F60883FD09C080E0AC
S1131D600E94F60883FF04C085E090E020E003C0F1
S1131D7083E090E021E09093150180931401C09AD0
S1131D801FBF222341F01092230183E00E944207E7
S1131D900E94520E08C00E94900320E431E040E00B
S1131DA050E00E944D04DF91CF911F9108957894E3
S1131DB01F920F920FB60F9211241F932F933F93EC
S1131DC04F935F936F937F938F939F93AF93BF933F
S1131DD0EF93FF9387B78F7E87BF78941FB7F894EC
S1131DE080916E0190916F01A0917001B091710189
S1131DF00097A105B10509F051C08091140190919B
S1131E0015018530910561F18630910530F48330F8
S1131E10910549F0049781F51AC087309105F1F0D6
S1131E20089751F514C0869B0FC084E090E090930E
S1131E301501809314010E94900327E030E040E0F4
S1131E4050E00E944D0418C00E94520E15C00E941A
S1131E50CF06882389F40E947C0E0EC080E00AC05D
S1131E6089E00E94F60881E00E94720483E00E94E7
S1131E70420787E00E941C0C80910F019091100191
S1131E80019771F482E090E09093100180930F0128
S1131E90DE98DE9A80E00E94220602C00E94AD0312
S1131EA0812F99278FBFFF91EF91BF91AF919F91A0
S1131EB08F917F916F915F914F913F912F911F91DE
S1131EC00F900FBE0F901F901895EF92FF920F93F3
S1131ED01F93CF93DF938B0180917B0190917C01C1
S1131EE086FF40C18F7B8F3309F08EC1C0911D01E5
S1131EF0D0911E01588150935501809153019091C6
S1131F0054018530910509F443C08630910509F4E4
S1131F108AC0029709F01FC185E090E090935401B4
S1131F208093530140913E01852F99270196242FD8
S1131F303327281739074CF1B79906C00E9904C006
S1131F40451B415040933E01409155014A32E8F40B
S1131F504423A1F0BE016F5F7F4F483018F047E083
S1131F6050E007C086E090E09093540180935301C1
S1131F70552780E090E00E947F0246C110925F01E5
S1131F80C09A84E00E944207E3C00E9411093CC148
S1131F9086E090E090935401809353018091660110
S1131FA0882309F439C0809143028823A9F58981E3
S1131FB085FF32C08F814E812FB7F894332760910B
S1131FC07701709178012FBF9927982F882755277B
S1131FD0842B952B8617970759F08F812E8199278B
S1131FE0982F88273327822B932B8F5F9F4FA1F441
S1131FF089818770813081F4C09AC0988AE00E94F8
S1132000F608C09AC0984091550147502896BE01E1
S11320108FE30E943903F8C040915501475055277A
S11320202896BE01A6CFC09A80915901882339F41D
S113203084E00E94420780915901882311F0B799E6
S11320400AC00E9B08C09091DF02992321F0809171
S113205055018B3038F480911D0190911E010E942E
S113206081033DC0913001F5E091E502FF27EE0FB9
S1132070FF1FEE0FFF1FE557FD4F20813181428185
S11320805381E0911D01F0911E0121ABBB27A52FC7
S1132090942F832F80ABCA01AA27BB2787A7252F9C
S11320A033274427552726A78091E50299270196CF
S11320B068E070E00E94D71E8093E5028091DF0201
S11320C081508093DF02882351F080911D0190910B
S11320D01E010E9481031092E5021092DF0280919A
S11320E05501FE01E80FF11D808187FF31C0012BEE
S11320F079F169816770E0911D01F0911E016230F0
S113210019F5A0916701B0916801109709F18091C8
S11321101401909115010797D9F4ED019B818381F6
S11321209817B1F487B78F7E87BF908181E08CA721
S1132130E90FF11D8291319688A780818F7789A755
S113214080E00E941C0C04C0613011F48BE02AC0B2
S11321500E94900759C010925F01C09A84E00E94C7
S1132160420752C08E3309F04FC0C09A80911401C7
S1132170909115010897C9F4C09889E00E94F60867
S1132180C09A83E00E94420781E090E09093150199
S1132190809314018FB7F894992723E020930E01BC
S11321A08FBF84E00E9497002FC08091F3028823A0
S11321B049F484E090E090931501809314010E9407
S11321C07C0E22C083E00E94420783E090E090935B
S11321D01501809314010E94B002DC01CB0166E377
S11321E071E00E94C31E3BE0E32EF12CE80EF91EC1
S11321F0F0923701E09236010E94900300271127E4
S1132200A80197010E944D04DF91CF911F910F9176
S1132210FF90EF9008951F920F920FB60F92112422
S11322202F933F934F935F936F937F938F939F93DA
S1132230AF93BF93EF93FF932FB1E0910302F0911B
S11322400402309739F08091C5019091C601E80FDE
S1132250F91F20838091C5019091C6010196909346
S1132260C6018093C50180E00E94AD014091210127
S1132270509122018091C5019091C6018417950760
S113228018F40E9411021CC06091030270910402B0
S11322908091ED029091EE021092040210920302DA
S11322A01092EE021092ED0210922201109221017E
S11322B01092C6011092C5012FB120E00E94650F53
S11322C0FF91EF91BF91AF919F918F917F916F910A
S11322D05F914F913F912F910F900FBE0F901F90E0
S11322E018955F926F927F928F929F92AF92BF9256
S11322F0CF92DF92EF92FF920F931F93CF93DF93CE
S1132300CDB7DEB7A8970FB6F894DEBF0FBECDBF2A
S1132310873009F4C9C1883098F4833009F45AC16C
S1132320843038F4813009F45BC0823008F0B0C0E6
S113233024C0853009F496C1863008F0AEC164C16A
S11323408B3009F4DEC28C3038F4893009F4A2C22F
S11323508A3008F0C2C2E1C18D3039F08D3008F402
S11323605EC68E3009F0B3C6A5C68091E602882306
S113237009F4ADC690E011E07BC680915601882334
S113238061F5209187023091880240918902509131
S11323908A02EFB7F894FF2760913A0270913B02EA
S11323A080913C0290913D02E0903A01F0903B0113
S11323B000913C0110913D016E0D7F1D801F911F06
S11323C0EFBF209387023093880240938902509391
S11323D08A02109256010E9408050E94700043C0B0
S11323E00E9470005B016C018FB7F89499271092DA
S11323F0C4018FBFAFEFEA2EAFEFFA2EAFEF0A2F73
S1132400AFE71A2F60E0EDECF1E0808581FF1CC09E
S113241080819181A281B381A6019501281B390B8A
S11324204A0B5B0BDA01C90124813581468157814E
S1132430281B390B4A0B5B0B2E153F054007510730
S11324401CF479018A0161E0399632E0E330F30744
S1132450E1F6662309F43BC61E141F041006110698
S11324602CF0C601B5010E94BA0D31C6E092870274
S1132470F09288020093890210938A0281E080938B
S11324805601A8019701C601B5010E9408051FC69F
S11324900FB7F894112781E00E947204F1E0EF2E47
S11324A0F12CF0921501E092140110921601109291
S11324B04301109257010FBF0FB7F89411270E94E0
S11324C07503F0925401E092530110925F0189B7B1
S11324D08F7B89BF80E488BF8AB780628ABF8AB74E
S11324E08F7E8ABF89B7806489BF0FBF8FB7F89486
S11324F0082F112780910F0190911001049719F46E
S113250083E00E94F6080FBF0FB7F8941127C09A12
S113251080E00E9442070FBF8FB7F894992722E00A
S113252020933F028FBF8091380190913901019629
S113253090933901809338011092F4021092F502BD
S11325401092F6021092F70210923F01109240018D
S1132550109241011092420181E090E09093E402D4
S11325608093E302DA988091640190916501019768
S113257069F48091000190910101892B09F0A7C5AC
S11325801092200110921F010E94610A809164013F
S113259090916501892B09F09AC580910001909171
S11325A00101892B09F493C51092CC011092CB013F
S11325B01092BE011092BD010E947000AB01BC01DB
S11325C0E1E0EE2E08E813E120E030E080E00E9434
S11325D0BE007DC58FB7F894992710923F028FBF34
S11325E0DA9A1092BE011092BD011092CC011092A1
S11325F0CB011092E4021092E30260EF79E482E0EE
S113260090E00E940B0163C58FB7F8949927F0906E
S11326100E018FBF63E081E00E949601882341F0A0
S11326200E94330C0E94680483E00E94970007C054
S11326308FB7F894992722E020933F028FBF00912F
S1132640C1011091C2010E94A0028091E702909101
S1132650E802892B09F03BC58FEF809309014F2DC8
S1132660B801FDC48FB7F894282F3327122F809117
S1132670F102882309F581E08093F10280910F0132
S113268090911001049721F481E00E94220603C076
S113269086E00E9497001FBF1AC58FB7F894992748
S11326A01092F1028FBF13C58FB7F894282F3327E8
S11326B080911101882311F02FBF09C52FBF80B36A
S11326C0992736E0969587953A95E1F7182F11707A
S11326D09091790180917A018917D9F01917C9F479
S11326E084E090E09093100180930F018FB7F894E9
S11326F0992721E0209311018FBF60E070E08DE104
S11327000E94C5070E94BE08C09AC09882E00E9439
S1132710970010937A0187E06DC08FB7F8949927DA
S1132720109102018FBF123009F467C0133030F4E6
S1132730112359F0113009F0CAC448C0133009F408
S113274076C0143009F0C3C4A2C0C0988FB7F894FF
S1132750082F112780910F01909110010297A1F584
S113276083E090E09093100180930F0168E170E0A2
S11327708DE10E94C50781E08093790110921101D7
S113278080B3992726E0969587952A95E1F781707D
S1132790907080937A0187E00E94970081E00E9404
S11327A0F6086FE772E08CE10E94C5070E942608D4
S11327B00E94EC0766E57AE287E10E94C5076FEFA5
S11327C070E885E10E94C5070FBF81C4C09886E008
S11327D00E94F6080E9426080E94EC070E94BE0888
S11327E0C09AC09883E00E94F608C09A81E00E94D3
S11327F0420786E00E9497006AC4C0988FB7F89495
S1132800082F112760E080E00E949601882311F0D0
S11328100FBF0AC00FBF83E50E94050280E00E943B
S1132820050280E00E940502C09A82E02DC08FB7A5
S1132830F8949927209114018FBF243039F028305F
S113284041F0223001F50E94370841C40E947C0EF9
S11328503EC4C09889E00E94F608C09A83E00E94B2
S113286042078FB7F894992721E030E0309315019F
S1132870209314018FBF8FB7F894992710930E01FA
S11328808FBF84E0B7CF83E00E94420720C40E9438
S11328906B031DC40FB7F894112740912101509187
S11328A0220160910302709104028091ED029091E3
S11328B0EE0210920402109203021092EE021092A1
S11328C0ED0210922201109221011092C601109281
S11328D0C50120E00E94650F77CF2FB7F894332706
S11328E080915A018093050182E0809313012FBFE8
S11328F080910501882309F0EAC3B89AC09888E05A
S113290079CFA0911D01B0911E01FC909D012F0D66
S1132910311DF9018081881F8827881FFD0183A745
S1132920F90180818F77FD0181A721503040F901A1
S11329308081FD0180A7A0911D01B0911E01FD01C0
S113294032818FB7F8949927209158018FBF2223A1
S113295009F490C0832F9927969587959695879526
S1132960837090708230910541F5878146812FB73D
S1132970F894332760917701709178012FBF9927DC
S1132980982F88275527842B952B8617970719F49A
S113299081E090E06CC0FD018781268140E050E039
S11329A09927982F88273327822B932B8F5F9F4F4C
S11329B011F441E050E0CA015AC0039709F026C35C
S11329C09E012F5F3F4F44E452E088E0FA010190FA
S11329D0AF01F90101929F018150C1F79E012F5D62
S11329E03F4FAE014F5F5F4F88E0FA010190AF01A6
S11329F0F90101929F018150C1F79E01275F3F4F6A
S1132A00AE014F5D5F4F88E0FA010190AF01F9011B
S1132A1001929F018150C1F79E012F5E3F4FAE018D
S1132A20475F5F4F88E0FA010190AF01F90101921D
S1132A309F018150C1F79E01275E3F4FAE014F5E5B
S1132A405F4F88E0FA010190AF01F90101929F0103
S1132A508150C1F748E050E0BE01675E7F4FCD0171
S1132A6006960E94401F892B09F0D0C203C0882318
S1132A7009F4CCC2FCE0FF1508F0C8C280901D0127
S1132A8090901E01F4012281822F992736E09695B9
S1132A9087953A95E1F7039719F468E070E002C06E
S1132AA062E070E0822F9927969587959695879591
S1132AB083709070039719F488E090E002C082E07C
S1132AC090E026E030E0820E931E40E050E020E0EB
S1132AD030E0F401E80FF91F8AEF9FEF880E991E8A
S1132AE005C08191480F511D2F5F3F4F26173707AF
S1132AF0C4F3F40163818FEF8093E9028FB7F894F4
S1132B00782F20E030E0EAE2F1E0808191818417BF
S1132B10950731F48281861709F41CC22093E902D7
S1132B202F5F3F4F33962430310579F77FBF909163
S1132B30E9023FB7F8949F3F29F080911701891764
S1132B4009F04CC020911701822F9927FC01EE0F48
S1132B50FF1FE80FF91FE65DFE4F51834083628338
S1132B602F5F23702093170145C0EE0FFF1FEE0F58
S1132B70FF1FE650FD4F8091F4029091F502A09161
S1132B80F602B091F702281B390B4A0B5B0B20832A
S1132B90318342835383A5C0D6018C91F6012181F0
S1132BA0000F111F000F111F01581E4F9927982F56
S1132BB088273327822B932BD8018D939C930E94D3
S1132BC0B002F601868527859927982F8827332711
S1132BD0822B932BF8019383828307C1892F992732
S1132BE0FC01EE0FFF1FE80FF91FE65DFE4F518356
S1132BF040836283832F99278FBF0FB7F8941127DF
S1132C00C4010E943801FC0190810FBFF40183A527
S1132C10882309F4F7C19F3309F0F4C18781468101
S1132C202FB7F894332760910601709107012FBFE5
S1132C309927982F88275527842B952B8617970734
S1132C4061F0878126819927982F88273327822B43
S1132C50932B8F5F9F4F09F0D5C1F4018385863094
S1132C6009F0D0C1FEE1FF1609F0CCC11CE0C12E71
S1132C70D12CC80CD91CB0E16B2E712C680C791CBA
S1132C80F4018089A1E1AA2EB12CA80CB91C2189D8
S1132C909927982F88273327822B932B049789F51C
S1132CA00E9470009B01AC0160933F01709340014E
S1132CB08093410190934201E0E0F0E06AEF72E01A
S1132CC0DB01ED90FD900D911C91E114F1040105DF
S1132CD0110509F44ACF31966C5F7F4FE436F10554
S1132CE079F71092F4021092F5021092F602109203
S1132CF0F70210923F01109240011092410110928C
S1132D004201F3018081D5012C919927982F8827BE
S1132D103327822B932B019749F51FB7F894F601BB
S1132D20808521859927982F88273327822B932BF9
S1132D3020911F013091200128173907A0F482E067
S1132D4090E090935D0180935C01808121819927BB
S1132D50982F88273327822B932B9093C00180933D
S1132D60BF010E949D0A812F99278FBFD3018C91A7
S1132D70F50120819927982F88273327822B932BBD
S1132D80029709F0B3C08091000190910101892B51
S1132D9009F4ACC05FB6F894F601808521859927C3
S1132DA0982F88273327822B932B20911F01309152
S1132DB0200128173907C8F080912401909125013A
S1132DC00196909325018093240100E010E0EFE741
S1132DD0F1E0808191818F5F9F4F09F4DDCE0F5F19
S1132DE01F4F34960F301105A1F7609124017091A3
S1132DF02501882777FD8095982F0E94A01D7B01CF
S1132E008C010E942701AA2797FDA095BA2FBC0127
S1132E10CD010E94A01D2DEC3CEC4CE45FE30E942C
S1132E20DF1D9B01AC01C801B7010E94DB1D882393
S1132E300CF459C0809124019091250118161906AB
S1132E400CF051C08091E7018D7F8093E70183E00E
S1132E5090E090935D0180935C01AFE7B1E080E086
S1132E6090E0BC016F5F7F4F8C01000F111F000FBA
S1132E70111F01581E4FAB0123C0FD012281338174
S1132E80F8018681978182179307B4F4121613060A
S1132E909CF41816190684F4FD0193838283F801C7
S1132EA0378326832D913C911197848195811196C6
S1132EB09C938E93358324834F5F5F4F0C5F1F4F2A
S1132EC04F305105D4F214966F30710511F0CB01D7
S1132ED0C8CF80917F01909180019093C00180932D
S1132EE0BF010E949D0A852D99278FBFD3018C9124
S1132EF0F50120819927982F88273327822B932B3C
S1132F00039709F041C00FB7F894112784E090E0CB
S1132F1090935D0180935C01F6018281238199275E
S1132F20982F88273327822B932B9093C00180936B
S1132F30BF010E949D0A0FBF809100019091010181
S1132F40892B51F40E947000F6016587672F77275B
S1132F5064871AC07FBF56C090911C019431A0F4BD
S1132F6080911B01E82FFF27EE0FFF1FE15AFD4F51
S1132F70D182C0828F5F80931B01843111F410923F
S1132F801B019F5F90931C01D3018C91F50120815B
S1132F909927982F88273327822B932B059791F510
S1132FA08091000190910101892B61F1F6018085E6
S1132FB021859927982F88273327822B932B2091BB
S1132FC01F013091200128173907E0F00E94B00258
S1132FD07B018C010E9470005B016C01C70161E4FC
S1132FE070E00E94C31E685D7C4D882777FD809544
S1132FF0982F41E0E42E8B019C01B601A50183E0EA
S11330000E94BE0090921E0180921D018FB7F89419
S1133010992710925F018FBF0E94900758C090912A
S11330206D0180910901981709F451C09093090129
S11330309923D1F400911801109119016091BB01F9
S1133040C8010E942209482F5527442309F43FC090
S11330508FEF809309016091180170911901F801B3
S113306083850E94730D33C08FEF809309012FC0B5
S11330702091E602812F8223C1F0E92FFF27EE0F72
S1133080FF1FE953FE4F4081518111821082812F2D
S1133090809528232093E602992339F463E0CA013A
S11330A00E94920C110F91E0E3CF9F5F983078F467
S11330B0110FDECF80910C01E82FFF27EE0FFF1FC9
S11330C0E953FE4F6081718141E00E94330DA8965F
S11330D00FB6F894DEBF0FBECDBFDF91CF911F9125
S11330E00F91FF90EF90DF90CF90BF90AF909F90A3
S11330F08F907F906F905F9008958091E0028F3F52
S1133100B1F0282F3327F901EC5BFE4F80818093C7
S1133110E0028F3F11F48093F2028FEF80832F3F00
S113312031F0822F0E94711181E090E0089580E0D7
S113313090E008951F93CF93DF93CDB7DEB7E09768
S11331400FB6F894DEBF0FBECDBF1FB7F8944FE0A3
S113315050E06FEF70E084E491E00E944D1F8FEF28
S11331608093E0028093F20281E08EBD88E080BF0C
S113317083E083BF8CB59DB54AE72CB53DB52817D0
S1133180390708F44150442311F0C901F6CF92B72E
S113319082B78917E9F32CB53DB592B782B7891781
S11331A0E9F38CB59DB5821B930B4096B5E09695DB
S11331B08795BA95E1F79093E2028093E10213BEFA
S11331C083B78EBD8EB580BF12BE1DBC1CBC8FEFF5
S11331D086BF86B780937C0080B7992787709070EC
S11331E0892BD1F7D29AD19AD09ADA9AD99AD89AC5
S11331F015BA8FEF84BBD498DC981DBC1CBC87B770
S1133200846087BF8EB5887F84608EBD0E947D18E0
S11332108823E1F78FEF80935B01EAE2F1E08FEF1F
S11332209FEF918380831282339621E0E633F20785
S1133230C1F70E94B00260935E02809100019091F8
S113324001010196AA27BB278093690190936A0123
S1133250A0936B01B0936C018BEA92E090931E01F2
S113326080931D018E98B89A8C988FEF8093720189
S113327010923E0210923F021092400210924102BC
S1133280B89AD69AD59A8FB7F894992720910601BF
S1133290309107018FBF30937801209377010E940A
S11332A0220529A73AA74BA75CA76DA77EA78FA7DE
S11332B098ABDE019196FE01B99688E001900D92DB
S11332C08150E1F7DE015196FE01B19688E001904C
S11332D00D928150E1F7DE015996FE01719688E066
S11332E001900D928150E1F7A4E4B2E0FE017996D9
S11332F088E001900D928150E1F7809108019927AF
S113330090936301809362018FE1809339028AE193
S113331080935C020E94220529A73AA74BA75CA7C9
S11333206DA77EA78FA798ABDE019196FE01B99693
S113333088E001900D928150E1F7DE011196FE01C3
S1133340B19688E001900D928150E1F7DE01199663
S1133350FE01319688E001900D928150E1F7A4E4DA
S1133360B2E0FE01399688E001900D928150E1F7B8
S1133370A4E4B2E0FD0137969C9180818D93908303
S1133380319782E0E734F807B9F781E08093580178
S11333901092EC02809366011092430280B7886019
S11333A080BF8BE083BF86EE81BF87B7826087BF13
S11333B00E9485040E947D188823E1F7812F9927B4
S11333C08FBF7894EAEFF2E0119211921192119268
S11333D024E0EA38F207C1F78FEF9FEF90932001C2
S11333E080931F011092250110922401109239013B
S11333F01092380110926101109260011092EB0258
S11334001092EA0281E090E0909365018093640158
S11334101092F9021092F80210925D0110925C0170
S11334200E94DD000E94820D8FB7F894482F552723
S11334304BC087B7992783709070892B19F4E5E006
S1133440F0E013C080B7992787709070892BD1F76B
S113345081B792B7891B8C3030F082B7853F18F45E
S1133460E3E0F0E002C0E2E0F0E087B7887BC1F47B
S113347080917D008B7FA1F46E9912C08AB19091E6
S11334809A00892B887161F48091740082FD08C0D0
S1133490379B03C081E090E005C085E090E002C066
S11334A080E090E025B78E1708F4E82FFF27E45753
S11334B0FF4FE491237E2062E22BE5BF7894889548
S11334C0F89485B78F7D85BF8091E0028F3F09F422
S11334D0B0CF282F3327F901EC5BFE4F8081809316
S11334E0E0028F3F11F48093F2028FEF80832F3F2D
S11334F009F49FCF4FBF822F0E94711195CF78940A
S11335001F920F920FB60F9211242F923F924F9257
S11335105F926F927F928F929F92AF92BF92CF925F
S1133520DF92EF92FF920F931F932F933F934F934A
S11335305F936F937F938F939F93AF93BF93CF9337
S1133540DF93EF93FF93C6B5D7B58FB7F894282EC2
S11335500E9490039B012C1B3D0B442755272B01F4
S11335603C01421A530A640A750A8091140190912D
S113357015018530910521F0069709F0E0C0BFC020
S113358086E090E0909315018093140131E0332E8E
S113359030925E011092160180E00E947204E09164
S11335A06701F091680141AABB27A72D962D852DAF
S11335B080ABC301AA27BB2787A7872D9927AA27F2
S11335C0BB2786A7E0916701F091680185A5882350
S11335D009F484C06081655077274F01860E971ED9
S11335E0F4012081E1808281A3809927AA27BB2747
S11335F0BA2FA92F982F8827332744275527522FCE
S1133600442733272227FF24002711278701FF247B
S1133610EE242E293F29402B512BBB24CC24DD241E
S11336202A293B294C295D29822B932BA42BB52BCA
S113363084199509A609B7098383292F3A2F4B2F9B
S1133640552722839D014427552721838B2F9927B2
S1133650AA27BB278083C09824E0A40180E090E0DF
S11336600E947D08C09AF4012081E1808281A380B8
S11336709927AA27BB27BA2FA92F982F8827332742
S113368044275527522F442733272227FF24002776
S113369011278701FF24EE242E293F29402B512B8B
S11336A0BB24CC24DD242A293B294C295D29822BE7
S11336B0932BA42BB52B840D951DA61DB71D8383B9
S11336C0292F3A2F4B2F552722839D014427552715
S11336D021838B2F9927AA27BB278083E091670139
S11336E0F0916801818185FF02C03092430183E03B
S11336F00E94420787B78F7E87BF84997AC0109251
S11337005E0181E00E947204E0916701F09168011A
S1133710818185FF0FC087E090E09093150180932D
S113372014010E94900320E031E040E050E00E9448
S11337304D0403C080E00E941C0C849B5AC08091FD
S11337401601882391F580915E01882371F511E0BB
S113375010935E010E94720480B32091DF0228302E
S113376098F4E091E502E20FFF27E770F070EE0FA6
S1133770FF1FEE0FFF1FE557FD4F4082518262820B
S113378073822F5F2093DF0210931601D0937E0182
S1133790C0937D0184992DC0992714E0969587954F
S11337A01A95E1F7182F117001C010E080915E01A5
S11337B08130F9F410925E010E9472041092160195
S11337C01123B9F480917D0190917E01C81BD90B1E
S11337D02A9778F48091DF02882319F0815080932E
S11337E0DF028091670190916801009711F00E94B7
S11337F081032FBEFF91EF91DF91CF91BF91AF91E4
S11338009F918F917F916F915F914F913F912F91F4
S11338101F910F91FF90EF90DF90CF90BF90AF90EA
S11338209F908F907F906F905F904F903F902F90DC
S11338300F900FBE0F901F901895ACE2B0E0E3E23A
S1133840FCE10C94091F222E332E442E552E662E95
S1133850772E882E992EFE013196A8E01192AA9512
S1133860E9F729823A824B825C826D827E828F8262
S11338709886FE013996B8E01192BA95E9F7A986BF
S1133880BA86CB86DC86ED86FE860F87188B898107
S11338909A81AB81BC8189A79AA7ABA7BCA77C01FD
S11338A08D018FEF9FEFA0E0B0E0E822F9220A2318
S11338B01B2389A59AA5ABA5BCA51D0144245524A9
S11338C089859A85AB85BC858DA39EA3AFA3B8A734
S11338D05C016D018FEF9FEFA0E0B0E0A822B92258
S11338E0CA22DB228DA19EA1AFA1B8A53D018824E7
S11338F09924C801B701A60195010E94EA1E69A393
S11339007AA38BA39CA3C801B701A40193010E94CD
S1133910EA1E7B018C01C201B101A60195010E943E
S1133920EA1E5B016C01C201B101A40193010E9472
S1133930EA1E3B014C01EA0CFB1C0C1D1D1D89A158
S11339409AA1ABA1BCA19D01442755272E0D3F1D73
S1133950401F511F2A153B054C055D0540F480E0CE
S113396090E0A1E0B0E0680E791E8A1E9B1ECA0199
S1133970AA27BB27860D971DA81DB91D8D8F9E8F65
S1133980AF8FB8A3A9013327222789A19AA1ABA19C
S1133990BCA1A070B070280F391F4A1F5B1F298F6C
S11339A03A8F4B8F5C8FA98CBA8CCB8CDC8CED8CD2
S11339B0FE8C0F8D18A1FE01719698E011929A95D4
S11339C0E9F7ED8AFE8A0F8B188F2D813E814F8196
S11339D058856DA17EA18FA198A50E94EA1E3B0186
S11339E04C012D853E854F85588969A57AA58BA5FF
S11339F09CA50E94EA1E2D893E894F89588D260F69
S1133A00371F481F591F260D371D481D591D2D8B63
S1133A103E8B4F8B588F6D887E888F88988C2A2D8B
S1133A203B2D4C2D5D2D662D772D882D992DE2E1B2
S1133A30AC960C94251FA0E1B0E0E1E2FDE10C940A
S1133A40091F222E332E442E552E662E772E882EB5
S1133A50992E002309F466C088E0FE013196119284
S1133A608A95E9F729833A834B835C836D837E834C
S1133A708F829887E0E2E01B1E16CCF52D813E81F3
S1133A804F815885602F772767FD7095DA01C9014A
S1133A90062E04C0B695A795979587950A94D2F7F4
S1133AA08D879E87AF87B88B04C0220F331F441FB6
S1133AB0551FEA95D2F789819A81AB81BC8104C0F4
S1133AC0B695A795979587956A95D2F7282B392BA4
S1133AD04A2B5B2B29873A874B875C8729843A8456
S1133AE04B845C846D847E848F8498881BC01D867F
S1133AF01E861F86188A2E2F332727FD3095309572
S1133B0021953F4F8D819E81AF81B88504C0B695C4
S1133B10A795979587952A95D2F789879A87AB8732
S1133B20BC87DCCF222D332D442D552D662D772DCA
S1133B30882D992DE2E160960C94251FE89409C024
S1133B4097FB3EF490958095709561957F4F8F4FCC
S1133B509F4F9923A9F0F92F96E9BB279395F695E2
S1133B60879577956795B795F111F8CFFAF4BB0F60
S1133B7011F460FF1BC06F5F7F4F8F4F9F4F16C0C4
S1133B80882311F096E911C0772321F09EE8872F4E
S1133B90762F05C0662371F096E8862F70E060E00A
S1133BA02AF09A95660F771F881FDAF7880F969583
S1133BB0879597F9089566D008F48FEF08950BD090
S1133BC09CC08DD028F092D018F0952309F07EC0C7
S1133BD083C01124C6C0A2D0A0F3959FD1F3950F42
S1133BE050E0551F629FF001729FBB27F00DB11D7D
S1133BF0639FAA27F00DB11DAA1F649F6627B00D0D
S1133C00A11D661F829F2227B00DA11D621F739FF5
S1133C10B00DA11D621F839FA00D611D221F749F03
S1133C203327A00D611D231F849F600D211D822F4A
S1133C30762F6A2F11249F5750408AF0E1F0882391
S1133C404AF0EE0FFF1FBB1F661F771F881F91509E
S1133C505040A9F79E3F510570F038C082C05F3FC5
S1133C60ECF3983EDCF3869577956795B795F795D1
S1133C70E7959F5FC1F7FE2B880F911D9695879559
S1133C8097F90895990F0008550FAA0BE0E8FEEF85
S1133C9016161706E807F907C0F012161306E4070C
S1133CA0F50798F0621B730B840B950B39F40A2605
S1133CB061F0232B242B252B21F408950A2609F4E3
S1133CC0A140A6958FEF811D811D089597F99F67E7
S1133CD080E870E060E008959FEF80EC0895002490
S1133CE00A941616170618060906089500240A945D
S1133CF012161306140605060895092E0394000CE3
S1133D0011F4882352F0BB0F40F4BF2B11F460FF71
S1133D1004C06F5F7F4F8F4F9F4F089557FD90589A
S1133D20440F551F59F05F3F71F04795880F97FB7B
S1133D30991F61F09F3F79F0879508951216130635
S1133D401406551FF2CF4695F1DF08C01616170664
S1133D501806991FF1CF8695710561050894089599
S1133D60E894BB2766277727CB0197F90895991B19
S1133D7079E004C0991F961708F0961B881F7A955E
S1133D80C9F780950895AA1BBB1B51E107C0AA1F60
S1133D90BB1FA617B70710F0A61BB70B881F991FE8
S1133DA05A95A9F780959095BC01CD01089597FB8C
S1133DB0092E07260AD077FD04D0E5DF06D00020BF
S1133DC01AF4709561957F4F0895F6F79095819553
S1133DD09F4F0895629FD001739FF001829FE00D71
S1133DE0F11D649FE00DF11D929FF00D839FF00D76
S1133DF0749FF00D659FF00D9927729FB00DE11D22
S1133E00F91F639FB00DE11DF91FBD01CF011124FE
S1133E1008952F923F924F925F926F927F928F926A
S1133E209F92AF92BF92CF92DF92EF92FF920F9345
S1133E301F93CF93DF93CDB7DEB7CA1BDB0B0FB64F
S1133E40F894DEBF0FBECDBF09942A88398848880C
S1133E505F846E847D848C849B84AA84B984C884A2
S1133E60DF80EE80FD800C811B81AA81B981CE0F99
S1133E70D11D0FB6F894DEBF0FBECDBFED0108957E
S1133E80FB01DC0104C08D910190801921F44150A3
S1133E905040C8F7881B990B0895DC0101C06D934D
S10D3EA041505040E0F70895FFCFB1
S1113EAA0100FFFFFFFF010022FFFFFF0100E8
S9030000FC
