S01800006275696C642F6D6963617A2F6D61696E2E73726563E5
S11300000C9449000C940A050C9414050C941E05D8
S11300100C9428050C9432050C943C050C9421078F
S11300200C9446050C9468000C9468000C944B18CE
S11300300C94E9190C94D4040C94EA040C9450051F
S11300400C94C3040C94B60E0C9468000C946800D1
S11300500C9468000C9468000C9468000C9468007C
S11300600C94DF040C9468000C9468000C946800F1
S11300700C9468000C9468000C9468000C9468005C
S11300800C9468000C9468000C94680000081C1818
S1130090141011241FBECFEFD0E1DEBFCDBF11E09D
S11300A0A0E0B1E0ECE2F9E300E00BBF02C007908E
S11300B00D92AE30B107D9F712E0AEE0B1E001C065
S11300C01D92A13EB107E1F70E9471160C94951C94
S11300D00C9400008FB7F894992708958FBF089562
S11300E07FB7F89462B720912401309125014091A3
S11300F026015091270106B601FE0FC081B792B7C1
S1130100280F311D411D511D2F5F3F4F4F4F5F4F32
S1130110290F311D411D511D04C0260F311D411DE4
S1130120511D872F99278FBFCA01B9010895282F20
S11301309FB7F894E82FFF27E25CFE4F80818F3F42
S113014081F4E091DB02E21771F40BC02093C90241
S113015004C0FF27E25CFE4F20832093DB0220E0F3
S113016007C025E005C08091C9028F3F91F7EECF0B
S1130170892F99278FBF822F99270895EF920F9384
S11301801F93AE2D99E0899FF0011124EA53FE4F8D
S11301904083518362837383048315832683378367
S11301A0A17080858E7F8A2B8260808782E00E9486
S11301B097001F910F91EF900895FC018281992778
S11301C0582F442781819927482B592BCA01892FFD
S11301D0992786958695837090708230910559F0A1
S11301E08330910559F0892B19F420E030E008C0E0
S11301F02CE93FEF05C022E030E002C028E030E007
S1130200CA0184E0989F812D992711248230910599
S113021059F08330910559F0892B19F480E090E06E
S113022008C08CE99FEF05C082E090E002C088E03E
S113023090E0280F391F2A5F3F4FCF01820F931F91
S11302400895282F9FB7F894662349F0E82FFF27D5
S1130250E95CFD4F8081882311F021E006C0E22F84
S1130260FF27E95CFD4F608320E0892F99278FBF2A
S1130270822F99270895E82F8FB7F894282F3327D2
S113028090E0FF27E95CFD4F8081861709F491E037
S11302902FBF892F99270895882311F06E9A089506
S11302A06E980895882311F06F9A08956F980895B1
S11302B080E00E944C01BA9ABB98B99AB89A6C9A99
S11302C080E00E9452016B986A9881E00E944C0180
S11302D0709A8DB18C7F8DB908950F931F93CF932E
S11302E0DF93182F8FB7F894C82FDD270C2F61E008
S11302F080E00E942101882321F0CFBF85E090E0B7
S113030024C0809105018823A1F4809113018230D7
S113031081F409C082E080931301109205010E94C8
S11303205801B89AC0981093020180E00FBF992732
S11303300CC080911301882369F38FB7F89499272F
S1130340109237028FBF81E0F1CFDF91CF911F91DF
S11303500F9108951F93182F81E00E944C011FB93B
S1130360779BFECF8FB199271F9108958F929F920B
S1130370AF92BF92CF92DF92EF92FF920F931F93AF
S1130380CF93DF938FB7F8949927C090D602D0907B
S1130390D7028090FC019090FD01C091BE01D091E4
S11303A0BF012091210130912201EAE0AE2EB12C4F
S11303B0AC0EBD1E2A153B0508F459018FBF74010C
S11303C0EC0EFD1E86010C0F1D1F14C0C114D104B8
S11303D019F0F801808101C080E00E94AA01811413
S11303E0910411F0F701808321960894E11CF11C1B
S11303F00F5F1F4FC5010197C817D90738F381E074
S11304000E9452019FB7F894C114D10431F0CC0E6C
S1130410DD1EF60180818FB901C01FB8D093BF01E2
S1130420C093BE01892F99278FBF80E090E0DF91B0
S1130430CF911F910F91FF90EF90DF90CF90BF90DD
S1130440AF909F908F9008952FB7F89433275093CF
S11304502201409321019093D7028093D602709396
S1130460FD016093FC011092BF011092BE012FBFE9
S1130470452B29F08FB10E94B601992708958AE08F
S11304800E94970080E090E008958FB7F894992730
S1130490109239028FBF089580E880933A01109238
S11304A05A011092CE021092C8021092540108957B
S11304B0CF93DF93FC0115A6DC019E96ED011B8210
S11304C01A82198280E886A7DF91CF9108952F922E
S11304D03F924F925F926F927F928F929F92AF92D0
S11304E0BF92CF92DF92EF92FF920F931F93CF931D
S11304F0DF93CDB7DEB728970FB6F894DEBF0FBEF3
S1130500CDBF20906201309063014090640150900F
S11305106501662477248824BEE4AB2EA3E8BA2EB2
S1130520CC24DD24EE24FF2400E010E0222D332D22
S1130530442D552D662D772D882D90E00E94771A35
S113054029833A834B835C836D837E838F8398876F
S1130550822E932EA42EB52E2401350100E20E9492
S1130560751BA22EB32EC42ED52EC301B2019695AF
S11305708795779567956A0D7B1D8C1D9D1D97FF4B
S113058005C09F776F5F7F4F8F4F9F4F60936201CE
S113059070936301809364019093650128960FB66C
S11305A0F894DEBF0FBECDBFDF91CF911F910F91A5
S11305B0FF90EF90DF90CF90BF90AF909F908F907F
S11305C07F906F905F904F903F902F9008958FB7DA
S11305D0F8946091C2017091C3012CB53DB506B683
S11305E002FE04C06F5F7F4F2CB53DB599278FBFC6
S11305F088279927CB017727662744275527622B1D
S1130600732B842B952B0895EF92FF920F931F93D6
S11306100E94E7027B018C0120916C0130916D01F5
S113062040916E0150916F01809167019091680132
S1130630A0916901B0916A01820F931FA41FB51F95
S1130640E216F3060407150730F082179307A40790
S1130650B50758F005C082179307A407B507E0F55E
S1130660E816F9060A071B07B8F59C01AD012E1917
S11306703F09400B510B213060E8360760E0460724
S113068060E0560768F180E090E8A0E0B0E0E80E92
S1130690F91E0A1F1B1FE0926C01F0926D0100937A
S11306A06E0110936F0180E090E8AFEFBFEFE80EAA
S11306B0F91E0A1F1B1F2050304840405040209311
S11306C06701309368014093690150936A0120E007
S11306D030E840E050E014C020E030E040E050E07A
S11306E080936C0190936D01A0936E01B0936F01A0
S11306F010926701109268011092690110926A01C8
S1130700A901B7012CB53DB5C9018E199F090396FE
S11307108417950720F0B9016D5F7F4F02C0640F05
S1130720751F6115710511F461E070E0615070404E
S11307307BBD6ABD80E186BF87B7806187BF1F919B
S11307400F91FF90EF9008950F931F930FB7F894B4
S1130750112760936C0170936D0180936E019093E7
S11307606F012093670130936801409369015093AE
S11307706A010E9404030FBF1F910F910895109204
S1130780100110920F01DE98DD98DE9A80E090E06F
S1130790089597B79F7D97BF90E296BF882319F07D
S11307A08EB5806402C08EB58F7B8EBD87B78062A4
S11307B087BF80E090E0089520E030E0E8E7F1E0D2
S11307C0808191818F5F9F4F31F02F5F3F4F34962F
S11307D02F303105A9F7C90108958FB7F8949927E7
S11307E02BB332E023272BBB8FBF0895DF92EF9208
S11307F0FF920F931F938FB7F894282F3327D22E8D
S113080091B782B746B7981711F041FF02C02FBFC6
S11308106AC08091BD018823E1F10E947000E090DC
S11308203302F09034020091350210913602209187
S113083036013091370140913801509139016E19D8
S11308407F09800B910B621773078407950720F0CB
S11308501092BD0171E01EC02E0D3F1D401F511F9F
S11308608091240190912501A0912601B091270146
S1130870281B390B4A0B5B0B273E310541055105FB
S113088040F4822F223010F070E005C070E082E066
S113089002C070E086EE682F615000B601FCFDCF07
S11308A082B7681709F46F5F209124013091250104
S11308B04091260150912701DA01C9010196A11D39
S11308C0B11D860F911DA11DB11D82179307A407A9
S11308D0B50710F4622F609561BFDFBE772319F06E
S11308E081E00E9497001F910F91FF90EF90DF909D
S11308F00895AFB7F894BB27E1E0E093BD0160939E
S1130900330270933402809335029093360220931D
S11309103601309337014093380150933901AFBF0A
S11309200E94F6030895AF92BF92CF92DF92EF92A6
S1130930FF920F931F93CF93DF93CDB7DEB7289722
S11309400FB6F894DEBF0FBECDBF20E070E0E0919B
S11309500001F091010132E14DE65CE46FE4809125
S113096001019E2F28960FB6F894DEBF0FBECDBFAF
S1130970DF91CF911F910F91FF90EF90DF90CF9077
S1130980BF90AF9008951F920F920FB60F9211244B
S11309908F9383B783BF00B600FCFDCF8F910F9078
S11309A00FBE0F901F90189578941F920F920FB658
S11309B00F9211240F900FBE0F901F9018957894EA
S11309C01F920F920FB60F9211240F900FBE0F902B
S11309D01F90189578941F920F920FB60F921124BE
S11309E02F933F938F939F932FB7F894332780913E
S11309F0C2019091C30101969093C3018093C201F7
S1130A002FBF9F918F913F912F910F900FBE0F9009
S1130A101F9018951F920F920FB60F9211240F90EA
S1130A200FBE0F901F9018951F920F920FB60F9242
S1130A3011240F900FBE0F901F9018951F920F92C4
S1130A400FB60F9211240F900FBE0F901F901895A0
S1130A501F920F920FB60F9211240F900FBE0F909A
S1130A601F9018951F920F920FB60F9211240F909A
S1130A700FBE0F901F9018951F920F920FB60F92F2
S1130A8011240F900FBE0F901F9018951F920F9274
S1130A900FB60F9211240F900FBE0F901F90189550
S1130AA01F920F920FB60F9211242F933F934F93DF
S1130AB05F936F937F938F939F93AF93BF93EF93C2
S1130AC0FF9383B783BF00B600FCFDCF81B799279E
S1130AD00196AA27BB27209124013091250140913A
S1130AE0260150912701280F391F4A1F5B1F2093AD
S1130AF024013093250140932601509327017894D3
S1130B000E94F603FF91EF91BF91AF919F918F9156
S1130B107F916F915F914F913F912F910F900FBEF5
S1130B200F901F9018950F931F93182F0FB7F894D9
S1130B3061E080E00E942101882371F51093020195
S1130B40809105018823A9F580911301823089F5EC
S1130B5089E00CC00E94580180911301882349F454
S1130B6081E080931301109255018BE00E9497005D
S1130B702AC080916B018F3F31F5E0910401EE238F
S1130B8011F11CC01092030104C0FF27E559FE4F68
S1130B9010821092040117C081E090E002C0880F17
S1130BA0991F1A95E2F720911201282B2093120124
S1130BB00AC0809113018823E1F6CCCF8091030110
S1130BC08F3F19F7DFCF802F99278FBF80E090E008
S1130BD01F910F9108951F9383E00E946D0199273F
S1130BE0182F882319F083E00E949305812F9927F9
S1130BF01F91089561E081E00E9421018823E9F4B6
S1130C008FB7F894282F332780910F01909110010A
S1130C10892B11F02FBF20C081E090E09093100148
S1130C2080930F012FBFDD9A0E94E70224E130E098
S1130C3040E050E00E94A4030FC062E081E00E9403
S1130C403B01882319F089E090E0089561E081E098
S1130C500E943B01882319F080E090E0089585E02C
S1130C6090E00895CF92DF92EF92FF920F931F933B
S1130C70CF93DF938C01F62E6A01E22E8FB7F8949E
S1130C80C82FDD2760E080E00E943B01882321F02B
S1130C90CFBF80E090E01EC0CFBF0F0D111D802F8D
S1130CA080680E94AA01F82E16950795802F807CF3
S1130CB00E94AA010E2D0AC0EE2DFF27E01BF109A8
S1130CC0EC0DFD1D80810E94AA0101500023A1F7B3
S1130CD08F2D9927DF91CF911F910F91FF90EF9066
S1130CE0DF90CF900895CF93DF93CDB7DEB72C97E5
S1130CF00FB6F894DEBF0FBECDBF8FB7F894282F80
S1130D00AE014F5F5F4FDA01EDE3F2E088E001905E
S1130D100D928150E1F780915B0190915C0189878C
S1130D20892F99278A8780917001909171018B870F
S1130D30892F99278C872FBF2CE060E080E691E013
S1130D400E9432062C960FB6F894DEBF0FBECDBFBC
S1130D50DF91CF9108951F93CF93DF93182F8FB70F
S1130D60F894C82FDD2760E080E00E943B018823CF
S1130D7021F0CFBF80E090E005C0CFBF812F0E945B
S1130D80AA019927DF91CF911F910895EF92FF92C5
S1130D900F931F93CF93DF93182F7B01042F8FB7EB
S1130DA0F894C82FDD2760E080E00E943B0188238F
S1130DB021F0CFBF80E090E014C0CFBF1064812F3A
S1130DC0992790937501809374010E94AA01182FAA
S1130DD0402F5527B70180E090E00E942402812F24
S1130DE09927DF91CF911F910F91FF90EF90089574
S1130DF0C09860911D0170911E0141E08FE30E9433
S1130E00C606089582E090E090934F0180934E01CE
S1130E1081E080935A0120E030E080910201843027
S1130E2011F421E030E0232B29F484E00E946D01C9
S1130E30882319F40E94F806089584E00E9493051B
S1130E4008951F920F920FB60F9211242F933F9380
S1130E504F935F936F937F938F939F93AF93BF93BE
S1130E60EF93FF9380914E0190914F01019749F4C4
S1130E7082E090E090934F0180934E010E9402071C
S1130E8005C0809154018F5F80935401FF91EF91CD
S1130E90BF91AF919F918F917F916F915F914F918E
S1130EA03F912F910F900FBE0F901F9018951F9395
S1130EB080911201882309F04BC0109102011F3F59
S1130EC009F046C060E00E943B01882309F440C059
S1130ED081E08093460280913D018823E1F11092E4
S1130EE0460285E090E045C0923069F5C09A809151
S1130EF0030120E030E08F3F11F421E030E0232BA8
S1130F00E9F4109305018F3F19F42FEF30E00DC081
S1130F10282F3327F901E559FE4F8081809303017F
S1130F208F3F11F41093040110832093550181E045
S1130F30809313018BE00E94970005C01093050174
S1130F401092130111C080911301882369F00FC01E
S1130F5081E090E00EC080910501909113018823F7
S1130F6019F2923021F0EFCF80E00E944C0180E032
S1130F7090E01F9108951F93CF93DF939FB7F89448
S1130F80C92FDD271C2F90910201981721F0CFBFA4
S1130F9081E090E03AC08FEF80930201309112011A
S1130FA03323F1F48FB7F8949927109237028FBF47
S1130FB00E945707CFBF11C02093020181E090E047
S1130FC002C0880F991F4A95E2F780953823309321
S1130FD0120189E00E9497001FBF80E090E015C0D5
S1130FE080E065E0E32FFF270E94F81B292F492F9B
S1130FF05527CF01042E02C0959587950A94E2F7F0
S113100080FDDACF822F8F5FEFCFDF91CF911F91D9
S113101008951F93CF93DF938FB7F894C82FDD27DC
S11310201C2F80914E0190914F01892B29F484E06B
S11310300E94BB07CFBF1EC010925A018091540179
S1131040882311F0B79904C00E9908C0882319F0B9
S11310508150809354010E9402070BC081E090E00C
S113106090934F0180934E011092540184E00E94AA
S1131070BB071FBFDF91CF911F9108950E944C02BF
S1131080C09AC09888E00E94AB0688E00E94AB0634
S1131090C09A84E00E94BB070E9409080895FF9249
S11310A00F931F93CF93DF93F82E8B018FB7F89490
S11310B0C82FDD2760E080E00E943B01882321F0F7
S11310C0CFBF80E090E00CC0CFBF8F2D0E94AA015B
S11310D0812F99270E94AA01802F0E94AA01992793
S11310E0DF91CF911F910F91FF9008951F931FB728
S11310F0F89480915301882319F460E070E009C0EA
S113110060E08091D502882309F461E081E06827DA
S1131110772780915F01882319F480E090E00AC06A
S113112090E080913C02882309F491E081E09827C3
S1131130892F9927762F6627770F770F770FF4E09B
S1131140880F991FFA95E1F7826E9262682B792BCA
S113115081E10E944F08812F99278FBF1F91089525
S11311608FB7F8949927609145028FBF85E0689FF7
S1131170B0011124625D7E4F706488E10E944F08C3
S11311800895EF92FF921F93CF93DF93E090600155
S1131190F0906101F70182A59927182F882309F49B
S11311A01FE1C09880915201811749F0612F772780
S11311B06F717070606E706885E10E944F081093C3
S11311C05201F70110818FB7F894C82FDD2760E032
S11311D080E00E943B01882311F0CFBF12C0CFBF33
S11311E08EE390E090937501809374018EE30E94E6
S11311F0AA011150412F552760E070E0C7010E94F9
S11312002402DF91CF911F91FF90EF9008950F93E7
S11312101F93CF93DF93EC010FB7F89411270E942B
S1131220DD00FC018FE380830FBF1092D102109286
S1131230D00261E082E00E942101882319F085E058
S113124090E072C0809147028F5F80934702815083
S11312508B838FB7F894082F112762E081E00E94F6
S11312603B01882329F40FBF0E94450281E05BC043
S11312708FB7F894992724E0209338028FBFD09336
S1131280BB01C093BA010FBFFE0131968181298150
S11312909927982F88273327822B932B80729C7C45
S11312A08983892F992781832981982F8827332738
S11312B02164822B932B8983892F992781831CA6F0
S11312C018A619A619AA18AA1FA680E88EA761E075
S11312D060933B024091BA015091BB018FB7F894DF
S11312E0282F33278091140190911501883091059E
S11312F011F0019711F02FBF15C082E090E0909398
S11313001501809314016093DC02509361014093B2
S11313106001109223012FBF0E94EB05882311F472
S11313200E94C10880E09927DF91CF911F910F910E
S11313300895CF93DF93DA01422F2D3118F082E024
S113134090E05EC0ED018B876E83872F99278F8392
S11313502FB7F894332780915B0190915C012FBFE4
S1131360FD018483892F992785832FB7F894332728
S113137080910601909107012FBF8887892F9927B3
S113138089873196818129819927982F8827332746
S113139020643868822B932B8983892F9927818332
S11313A0435F4C934D5080910901882359F010926A
S11313B00901642FCD010E9407099927282F88234A
S11313C0A9F417C0842F99279093B5018093B40191
S11313D0B0931901A09318018DE00E9497008091A9
S11313E00901882349F489E090E00AC08FEF8093D3
S11313F00901822F992704C01092660180E090E0D1
S1131400DF91CF910895CF93DF93FB01DB01169613
S11314108683892F9927ED01898386E083878091CC
S1131420C0019091C101892B19F085E090E02BC097
S1131430F093C101E093C001435F40834D5080911C
S11314400C01882319F480E090E01DC08385ED0130
S113145069817727762F662726813327622B732BA2
S113146010920C01242FAF010E9499099927282F6B
S1131470882339F081E080930C011092C10110920D
S1131480C001822F9927DF91CF91089580910001A7
S11314909091010180930B02292F332720930A0294
S11314A025E020930D0210920C0220911F0130912F
S11314B0200120930F02232F332720930E02109232
S11314C0170210921602109219021092180210922A
S11314D01A020E94DC0380931502892F99278093B6
S11314E0140281E0809313021092120241E16EEF24
S11314F071E08FEF9FEF0E94030A882311F40E948A
S1131500ED0308951F93182F81E090E09093150147
S11315108093140110923D010E9457078FB7F894ED
S1131520992710930E018FBF85E00E9497001F91A9
S113153008950F931F930FB7F89411271092150174
S11315401092140187B78F7E87BF87B78F7D87BFBF
S113155083E00E94BB07C09A0FBF0FB7F89411270E
S113156010924F0110924E010E944C02C09A89B70A
S11315708F7B89BF0FBF80E090E01F910F9108958A
S113158062E081E00E943B01882379F08FB7F894F0
S1131590992723E0209338028FBF0E94990A0E9462
S11315A0BF0384E00E9497001DC060E081E00E94B8
S11315B03B01882319F089E090E0089564E081E01C
S11315C00E943B01882341F08FB7F894992723E0C8
S11315D0209338028FBF06C063E081E00E943B0184
S11315E0882319F080E090E0089585E090E0089564
S11315F0AF92BF92CF92DF92EF92FF920F931F931D
S1131600CF93DF935B016C01C0E0D0E0E6ECF1E046
S1131610608561FF9FC02081318142815381E480D4
S1131620F58006811781D601C501821B930BA40B9B
S1131630B50B8E159F05A007B10708F48BC060FF9A
S113164003C06D7F608708C02E0D3F1D401F511FD2
S11316502083318342835383C23009F477C0C3307B
S113166030F4CC2351F0C13009F07AC01DC0C3302E
S113167089F1C43009F074C03EC081E090E09093D9
S1131680D4028093D3028091CC029091CD02813018
S1131690910509F065C09093B7018093B6019093CA
S11316A058018093570152C010925E0110925D015F
S11316B08091CC029091CD02019711F40E94C00A4E
S11316C08091CC029091CD02892B09F049C00E94EF
S11316D0FA0546C08091DF029091E002892B41F423
S11316E081E090E09093E0028093DF020E94460A3A
S11316F00E94C00A35C083E090E090935801809323
S1131700570160E070E0AAE7B1E0C2E0D0E06F5FAB
S11317107F4F2496FE01E858FE4F9B0110C04D9167
S11317205C91119780819181841795072CF411960F
S11317309C938E93518340832F5F3F4F34962F3079
S113174031056CF314966F30710509F780E00E943F
S1131750970006C021963996C630D10509F058CFB6
S113176082E00E949700DF91CF911F910F91FF902B
S1131770EF90DF90CF90BF90AF900895AF92BF925B
S1131780CF92DF92EF920F931F935B016C010E9443
S11317907000AB01BC01A1E0EA2E9601850181E055
S11317A00E94BE001F910F91EF90DF90CF90BF90E9
S11317B0AF900895EF920F931F938E5F914009F0BD
S11317C055C0809157019091580181309105B9F429
S11317D09093C5018093C4010E9470007093DE024F
S11317E06093DD020E947000AB01BC01B1E0EB2EFE
S11317F000ED17E020E030E082E00E94BE0080911E
S1131800570190915801039789F580911A0190919D
S11318101C01992389F08F5F80931A01843111F49C
S113182010921A01892F815080931C0190E0882323
S113183009F491E09923D1F08091B6019091B70118
S1131840019739F460ED77E080E090E00E94BE0BF0
S11318500DC00FB7F894112783E090E090935801DE
S11318608093570180E00E9497000FBF1092BC0143
S11318701F910F91EF9008950F931F93CF93DF93D0
S1131880182FEB01042FE82FFF27EE0FFF1FE05462
S1131890FE4F1182108210920C01E091C001F09170
S11318A0C101309721F08091CF0280FF0EC081E00A
S11318B080930C0103C08FE00E9497001123B9F4B8
S11318C0602FCE010E94DA0B12C020812D503327E5
S11318D067817727762F662786819927682B792B4E
S11318E0AF0183850E949909882341F3E4CFDF91F6
S11318F0CF911F910F9108959B0180910C01882332
S113190049F46091C0017091C1016217730711F429
S11319100E943C0C0895CF92DF92EF92FF920F93B6
S11319201F93CFB6F894DD240E946702DC01CB013B
S113193066E470E00E94041C2BE0E22EF12CE80E19
S1131940F91EF092D902E092D8020E94E702002721
S11319501127A80197010E94A403CFBE1F910F91E4
S1131960FF90EF90DF90CF9008951F93CF93DF9374
S11319708FB7F894C82FDD271C2F80911401909104
S113198015010897C9F489E00E94AB0683E00E9420
S1131990BB07C09A81E090E09093150180931401F5
S11319A08FB7F894992723E020930E018FBF85E029
S11319B00E949700CFBF30C0C0988091DC0288237A
S11319C011F085E001C084E00E94AB0683FD09C0EC
S11319D080E00E94AB0683FF04C085E090E020E035
S11319E003C083E090E021E09093150180931401FB
S11319F0C09A1FBF222341F01092230183E00E946A
S1131A00BB070E948B0C08C00E94E70220E431E06F
S1131A1040E050E00E94A403DF91CF911F9108950C
S1131A20EF92FF920F931F93CF93DF938B018091DB
S1131A3074019091750186FF40C18F7B8F3309F04B
S1131A408EC1C0911D01D0911E0158815093500147
S1131A5080914E0190914F018530910509F443C066
S1131A608630910509F48AC0029709F01FC185E008
S1131A7090E090934F0180934E0140913A01852F5D
S1131A8099270196242F3327281739074CF1B79942
S1131A9006C00E9904C0451B415040933A01409141
S1131AA050014A32E8F44423A1F0BE016F5F7F4F36
S1131AB0483018F047E050E007C086E090E090938B
S1131AC04F0180934E01552780E090E00E9424024C
S1131AD046C110925A01C09A84E00E94BB07E3C039
S1131AE00E943E083CC186E090E090934F018093B1
S1131AF04E0180915F01882309F439C080913C0232
S1131B008823A9F5898185FF32C08F814E812FB743
S1131B10F894332760917001709171012FBF992758
S1131B20982F88275527842B952B8617970759F0CC
S1131B308F812E819927982F88273327822B932BE7
S1131B408F5F9F4FA1F489818770813081F4C09A9F
S1131B50C0988AE00E94AB06C09AC0984091500198
S1131B6047502896BE018FE30E94C606F8C04091F4
S1131B705001475055272896BE01A6CFC09A8091A0
S1131B805401882339F484E00E94BB0780915401F6
S1131B90882311F0B7990AC00E9B08C09091C8021F
S1131BA0992321F0809150018B3038F480911D01EC
S1131BB090911E010E9458023DC0913001F5E091C0
S1131BC0CE02FF27EE0FFF1FEE0FFF1FEC58FD4F55
S1131BD02081318142815381E0911D01F0911E01E8
S1131BE021ABBB27A52F942F832F80ABCA01AA2733
S1131BF0BB2787A7252F33274427552726A780915E
S1131C00CE029927019668E070E00E94181C809328
S1131C10CE028091C80281508093C802882351F07B
S1131C2080911D0190911E010E9458021092CE02D3
S1131C301092C80280915001FE01E80FF11D8081CD
S1131C4087FF31C0012B79F169816770E0911D0133
S1131C50F0911E01623019F5A0916001B09161010B
S1131C60109709F180911401909115010797D9F407
S1131C70ED019B8183819817B1F487B78F7E87BF6D
S1131C80908181E08CA7E90FF11D8291319688A79C
S1131C9080818F7789A780E00E94820A04C0613026
S1131CA011F48CE02AC00E94090859C010925A010C
S1131CB0C09A84E00E94BB0752C08E3309F04FC023
S1131CC0C09A80911401909115010897C9F4C098A5
S1131CD089E00E94AB06C09A83E00E94BB0781E0C2
S1131CE090E090931501809314018FB7F89499278D
S1131CF023E020930E018FBF85E00E9497002FC040
S1131D008091DC02882349F484E090E090931501EB
S1131D10809314010E94B50C22C083E00E94BB078B
S1131D2083E090E090931501809314010E94670270
S1131D30DC01CB0166E371E00E94041C3BE0E32E6E
S1131D40F12CE80EF91EF0923501E09234010E9464
S1131D50E70200271127A80197010E94A403DF913D
S1131D60CF911F910F91FF90EF9008951F920F92C2
S1131D700FB60F9211242F933F934F935F936F935A
S1131D807F938F939F93AF93BF93EF93FF932FB161
S1131D90E091FC01F091FD01309739F08091BE0192
S1131DA09091BF01E80FF91F20838091BE019091AB
S1131DB0BF0101969093BF018093BE0180E00E9411
S1131DC0520140912101509122018091BE019091D4
S1131DD0BF018417950718F40E94B6011CC06091D6
S1131DE0FC017091FD018091D6029091D70210926E
S1131DF0FD011092FC011092D7021092D6021092AB
S1131E002201109221011092BF011092BE012FB144
S1131E1020E00E94100DFF91EF91BF91AF919F912F
S1131E208F917F916F915F914F913F912F910F907F
S1131E300FBE0F901F9018954F925F926F927F92F2
S1131E408F929F92AF92BF92CF92DF92EF92FF92C6
S1131E500F931F93CF93DF93CDB7DEB7A8970FB639
S1131E60F894DEBF0FBECDBF873009F4ABC2883013
S1131E7098F4833009F4C1C1843038F4813009F412
S1131E8031C1823008F061C127C0853009F451C2E4
S1131E90863008F07CC233C28B3009F4B3C38C3073
S1131EA038F4893009F4CEC28A3008F088C391C26C
S1131EB08D3009F48AC68D3008F4B8C38E3021F011
S1131EC08F3009F0DAC6CCC68091CF02882309F49A
S1131ED0D4C690E011E0A2C68091570190915801B8
S1131EE0019779F5809100019091010180930B0293
S1131EF0292F332720930A0211E010930D02109228
S1131F000C0220911F013091200120930F02232FF6
S1131F10332720930E021092170210921602109289
S1131F2019021092180210921A020E94DC03809384
S1131F301502892F9927809314021093130210928B
S1131F4012028091570190915801029781F5809176
S1131F5000019091010180930B02292F33272093D4
S1131F600A0222E020930D0210920C0220911F011C
S1131F703091200120930F02232F332720930E0248
S1131F80109217021092160210921902109218025F
S1131F9010921A020E94DC0380931502892F99275C
S1131FA08093140281E080931302109212028091B4
S1131FB0570190915801039781F580910001909108
S1131FC0010180930B02292F332720930A0223E077
S1131FD020930D0210920C0220911F0130912001D8
S1131FE020930F02232F332720930E0210921702FF
S1131FF010921602109219021092180210921A02EC
S11320000E94DC0380931502892F99278093140280
S113201081E08093130210921202809157019091F3
S11320205801049781F580910001909101018093FA
S11320300B02292F332720930A0224E020930D0258
S113204010920C0220911F013091200120930F0265
S1132050232F332720930E02109217021092160298
S1132060109219021092180210921A020E94DC03B4
S113207080931502892F99278093140281E080931D
S11320801302109212028091BC01882309F0F5C555
S113209081E08093BC012091570130915801213097
S11320A0310531F48FEF9FEF9093B9018093B8011C
S11320B02330310541F48091780190917901909316
S11320C0B9018093B80141E16EEF71E08091B801EC
S11320D09091B9010E94030A882309F0CEC50E9499
S11320E0ED03CBC580915101882361F520917002E5
S11320F0309171024091720250917302EFB7F894DB
S1132100FF276091330270913402809135029091DF
S11321103602E0903601F0903701009138011091B9
S113212039016E0D7F1D801F911FEFBF2093700238
S113213030937102409372025093730210925101D2
S11321400E9479040E94700043C00E9470005B01E9
S11321506C018FB7F89499271092BD018FBFAFEF30
S1132160EA2EAFEFFA2EAFEF0A2FAFE71A2F60E097
S1132170E6ECF1E0808581FF1CC080819181A28121
S1132180B381A6019501281B390B4A0B5B0BDA01BD
S1132190C9012481358146815781281B390B4A0B9B
S11321A05B0B2E153F05400751071CF479018A018A
S11321B061E0399631E0EC3FF307E1F6662309F478
S11321C05CC51E141F04100611062CF0C601B501CF
S11321D00E94F80A52C5E0927002F09271020093D4
S11321E072021093730281E080935101A801970158
S11321F0C601B5010E94790440C50FB7F8941127B0
S113220081E00E94C903F1E0EF2EF12CF092150158
S1132210E09214011092160110923D0110925201A5
S11322200FBF0FB7F89411270E944C02F0924F0190
S1132230E0924E0110925A0189B78F7B89BF80E4E6
S113224088BF8AB780628ABF8AB78F7E8ABF89B700
S1132250806489BF0FBF8FB7F894082F112780912E
S11322600F0190911001049719F483E00E94AB06CA
S11322700FBF0FB7F8941127C09A80E00E94BB07E4
S11322800FBF8FB7F894992722E0209338028FBFAD
S113229081E090E09093CD028093CC02DA98809113
S11322A05D0190915E01019769F480910001909124
S11322B00101892B09F0E1C41092200110921F0141
S11322C00E94460A80915D0190915E01892B09F07C
S11322D0D4C41092C5011092C4011092B701109297
S11322E0B6010E947000AB01BC01E1E0EE2E08E8EB
S11322F013E120E030E080E00E94BE00BEC48FB74E
S1132300F8949927109238028FBFDA9A1092B70185
S11323101092B6011092C5011092C4011092CD0220
S11323201092CC0268E97AE380E090E00E94BE0B50
S1132330A4C48FB7F8949927F0900E018FBF63E07F
S113234081E00E943B01882341F00E94990A0E9487
S1132350BF0384E00E94970007C08FB7F8949927C1
S113236022E0209338028FBF0091BA011091BB0183
S11323700E9445028091D0029091D102892B09F0EC
S11323807CC48FEF809309014F2DB8013EC48FB7F1
S1132390F894282F3327122F8091DA02882309F525
S11323A081E08093DA0280910F01909110010497EB
S11323B021F481E00E94930503C087E00E94970006
S11323C01FBF5BC48FB7F89499271092DA028FBFAE
S11323D054C48FB7F894282F332780911101882390
S11323E011F02FBF4AC42FBF80B3992736E09695CA
S11323F087953A95E1F7182F1170909172018091A9
S113240073018917D9F01917C9F484E090E0909307
S1132410100180930F018FB7F894992721E020933E
S113242011018FBF60E070E08DE10E944F080E94AF
S11324307306C09AC09883E00E94970010937301BA
S113244088E06DC08FB7F8949927109102018FBF6F
S1132450123009F467C0133030F4112359F01130ED
S113246009F00BC448C0133009F476C0143009F0E5
S113247004C4A2C0C0988FB7F894082F1127809184
S11324800F01909110010297A1F583E090E09093E1
S1132490100180930F0168E170E08DE10E944F0804
S11324A081E0809372011092110180B3992726E094
S11324B0969587952A95E1F78170907080937301C2
S11324C088E00E94970081E00E94AB066FE772E00B
S11324D08CE10E944F080E94B0080E94760866E5CD
S11324E07AE287E10E944F086FEF70E885E10E946D
S11324F04F080FBFC2C3C09886E00E94AB060E947B
S1132500B0080E9476080E947306C09AC09883E0BF
S11325100E94AB06C09A81E00E94BB0787E00E943C
S11325209700ABC3C0988FB7F894082F112760E0C9
S113253080E00E943B01882311F00FBF0AC00FBF47
S113254083E50E94AA0180E00E94AA0180E00E9423
S1132550AA01C09A82E02DC08FB7F89499272091E0
S113256014018FBF243039F0283041F0223001F5B6
S11325700E94C10882C30E94B50C7FC3C09889E041
S11325800E94AB06C09A83E00E94BB078FB7F89401
S1132590992721E030E030931501209314018FBF77
S11325A08FB7F894992710930E018FBF85E0B7CFAA
S11325B083E00E94BB0761C30E94F8065EC30FB7A5
S11325C0F894112740912101509122016091FC015E
S11325D07091FD018091D6029091D7021092FD0175
S11325E01092FC011092D7021092D602109222018E
S11325F0109221011092BF011092BE0120E00E94AE
S1132600100D77CF2FB7F89433278091550180931D
S1132610050182E0809313012FBF80910501882377
S113262009F02BC3B89AC09889E079CFA0911D0115
S1132630B0911E01FC909D012F0D311DF901808187
S1132640881F8827881FFD0183A7F90180818F7760
S1132650FD0181A721503040F9018081FD0180A74F
S1132660A0911D01B0911E01FD0132818FB7F89434
S11326709927209153018FBF222309F490C0832FFF
S11326809927969587959695879583709070823053
S1132690910541F5878146812FB7F89433276091DE
S11326A07001709171012FBF9927982F88275527A2
S11326B0842B952B8617970719F481E090E06CC062
S11326C0FD018781268140E050E09927982F8827D3
S11326D03327822B932B8F5F9F4F11F441E050E0FF
S11326E0CA015AC0039709F067C29E012F5F3F4F8A
S11326F04DE352E088E0FA010190AF01F901019243
S11327009F018150C1F79E012F5D3F4FAE014F5F86
S11327105F4F88E0FA010190AF01F90101929F0136
S11327208150C1F79E01275F3F4FAE014F5D5F4F60
S113273088E0FA010190AF01F90101929F018150F3
S1132740C1F79E012F5E3F4FAE01475F5F4F88E0A8
S1132750FA010190AF01F90101929F018150C1F783
S11327609E01275E3F4FAE014F5E5F4F88E0FA0146
S11327700190AF01F90101929F018150C1F748E036
S113278050E0BE01675E7F4FCD0106960E94811C1A
S1132790892B09F011C203C0882309F40DC2FCE09F
S11327A0FF1508F009C2A0901D01B0901E01F501AB
S11327B02281822F9927F6E096958795FA95E1F77D
S11327C0039719F468E070E002C062E070E0822FC1
S11327D0992796958795969587958370907003971A
S11327E019F488E090E002C082E090E026E030E056
S11327F0A20EB31E40E050E020E030E0F501E80F07
S1132800F91F8AEF9FEFA80EB91E05C08191480FEA
S1132810511D2F5F3F4F26173707C4F3F50163811E
S11328208FEF8093D2028FB7F894782F20E030E0B6
S1132830E8E2F1E0808191818417950729F482818F
S1132840861731F12093D2022F5F3F4F3396243005
S1132850310581F77FBF9091D2023FB7F8949F3F33
S113286021F0809117018917A9F520911701822F72
S11328709927FC01EE0FFF1FE80FF91FE85DFE4FDB
S11328805183408362832F5F2370209317012EC0EE
S11328907FBF8EC1D4018C91F4012181DA01AA0F8A
S11328A0BB1FAA0FBB1FA858BE4F9927982F882774
S11328B03327822B932B11969C938E9382852385A9
S11328C09927982F88273327822B932BFD019383F5
S11328D0828361C1892F9927FC01EE0FFF1FE80F46
S11328E0F91FE85DFE4F518340836283832F99274C
S11328F08FBF0FB7F8941127C5010E94DD00FC01BA
S113290090810FBFF50183A5882309F451C19F333A
S113291009F04EC1878146812FB7F894332760911F
S11329200601709107012FBF9927982F88275527F3
S1132930842B952B8617970761F087812681992729
S1132940982F88273327822B932B8F5F9F4F09F073
S11329502FC1F5018385863009F02AC1FEE1FF16F7
S113296009F026C18CE0882E912C8A0C9B1C0EE069
S1132970402E512C4A0C5B1CF50186851FE0612E0C
S1132980712C6A0C7B1C27859927982F882733275D
S1132990822B932B019759F51FB7F89482E090E0AE
S11329A09093580180935701848525859927982F02
S11329B088273327822B932B9093B9018093B801F6
S11329C080E00E9497008091D7018D7F8093D7018A
S11329D08091B6019091B701019731F460ED77E0F1
S11329E080E090E00E94BE0B812F99278FBFD20117
S11329F08C91F30120819927982F88273327822BE4
S1132A00932B0297B1F4CFB6F894DD248091E001C2
S1132A108D7F8093E0010E947000AB01BC01E1E076
S1132A20EE2E00ED17E020E030E084E00E94BE00CE
S1132A30CFBED2018C91F30120819927982F88274A
S1132A403327822B932B039709F060C080910001F8
S1132A5090910101892BA1F11FB7F89484E090E0D3
S1132A609093580180935701D4018C91F4012181F2
S1132A709927982F88273327822B932B9093B9017A
S1132A808093B80180E00E94970090911C019431DA
S1132A90A0F480911B01E82FFF27EE0FFF1FE85BD6
S1132AA0FD4F918280828F5F80931B01843111F4EA
S1132AB010921B019F5F90931C01812F99278FBF58
S1132AC08091C4019091C501892B69F40FB7F894E2
S1132AD0112781E090E0909358018093570180E0A2
S1132AE00E9497000FBF8091C4019091C501019786
S1132AF069F40FB7F894112783E090E0909358019C
S1132B008093570180E00E9497000FBFD2018C91FF
S1132B10F30120819927982F88273327822B932B21
S1132B20049731F40E94700070933C0160933B0160
S1132B30D2018C91F30120819927982F882733277C
S1132B40822B932B0597A1F58091000190910101AF
S1132B50892B71F1F401848125819927982F882785
S1132B603327822B932B20911F01309120012817AA
S1132B703907F0F040E050E0A8E7B1E08D919C9176
S1132B8011978F5F9F4F09F485CE4F5F5F4F149667
S1132B904F30510599F70E947000AB01BC01E1E090
S1132BA0EE2E00E117E220E030E083E00E94BE0058
S1132BB0B0921E01A0921D018FB7F894992710922C
S1132BC05A018FBF0E94090858C0909166018091F4
S1132BD00901981709F451C0909309019923D1F47C
S1132BE000911801109119016091B401C8010E946B
S1132BF00709482F5527442309F43FC08FEF8093DA
S1132C0009016091180170911901F80183850E94EE
S1132C107C0C33C08FEF809309012FC02091CF0229
S1132C20812F8223C1F0E92FFF27EE0FFF1FE0540D
S1132C30FE4F4081518111821082812F809528237B
S1132C402093CF02992339F463E0CA010E94DA0B7E
S1132C50110F91E0E3CF9F5F983078F4110FDECF2E
S1132C6080910C01E82FFF27EE0FFF1FE054FE4F69
S1132C706081718141E00E943C0CA8960FB6F894E3
S1132C80DEBF0FBECDBFDF91CF911F910F91FF909B
S1132C90EF90DF90CF90BF90AF909F908F907F90F8
S1132CA06F905F904F9008958091C9028F3FB1F06B
S1132CB0282F3327F901E25CFE4F80818093C902FB
S1132CC08F3F11F48093DB028FEF80832F3F31F02D
S1132CD0822F0E941C0F81E090E0089580E090E034
S1132CE008951F93CF93DF93CDB7DEB7E0970FB668
S1132CF0F894DEBF0FBECDBF1FB7F89440E150E09B
S1132D006FEF70E08EE391E00E948E1C8FEF809352
S1132D10C9028093DB0281E08EBD88E080BF83E03E
S1132D2083BF8CB59DB54AE72CB53DB52817390747
S1132D3008F44150442311F0C901F6CF92B782B789
S1132D408917E9F32CB53DB592B782B78917E9F332
S1132D508CB59DB5821B930B409625E0969587957F
S1132D602A95E1F79093CB028093CA0213BE83B7EE
S1132D708EBD8EB580BF12BE1DBC1CBC8FEF86BF3E
S1132D8086B780937C0080B7992787709070892BD1
S1132D90D1F7D29AD19AD09ADA9AD99AD89A15BAFE
S1132DA08FEF84BBD498DC981DBC1CBC87B78460AF
S1132DB087BF8EB5887F84608EBD0E945416882399
S1132DC0E1F78FEF80935601E8E2F1E08FEF9FEF98
S1132DD0918380831282339621E0E433F207C1F7B2
S1132DE00E94670260934702809100019091010163
S1132DF00196AA27BB278093620190936301A09355
S1132E006401B093650184E992E090931E0180937C
S1132E101D018E98B89A8C988FEF80936B01109255
S1132E203702109238021092390210923A02B89A7C
S1132E30D69AD59A8FB7F8949927209106013091A4
S1132E4007018FBF30937101209370010E94930496
S1132E5029A73AA74BA75CA76DA77EA78FA798AB16
S1132E60DE019196FE01B99688E001900D928150A1
S1132E70E1F7DE015196FE01B19688E001900D92D2
S1132E808150E1F7DE015996FE01719688E00190C8
S1132E900D928150E1F7ADE3B2E0FE01799688E04E
S1132EA001900D928150E1F7809108019927909348
S1132EB05C0180935B018FE1809332028AE180930D
S1132EC045020E94930429A73AA74BA75CA76DA7C4
S1132ED07EA78FA798ABDE019196FE01B99688E094
S1132EE001900D928150E1F7DE011196FE01B19639
S1132EF088E001900D928150E1F7DE011996FE0100
S1132F00319688E001900D928150E1F7ADE3B2E093
S1132F10FE01399688E001900D928150E1F7ADE30E
S1132F20B2E0FD0137969C9180818D939083319717
S1132F3082E0E034F807B9F781E0809353011092FE
S1132F40D50280935F0110923C0280B7886080BFF5
S1132F508BE083BF86EE81BF87B7826087BF0E9404
S1132F60F6030E9454168823E1F7812F99278FBF17
S1132F7078948FEF9FEF9093200180931F0110921C
S1132F80D4021092D30281E090E090935E0180938A
S1132F905D011092E0021092DF021092580110922B
S1132FA05701E8E7F1E08FEF9FEF918380839383EC
S1132FB08283349621E0E43BF207B9F70E94FA05D4
S1132FC08FB7F894482F55274BC087B7992783703C
S1132FD09070892B19F4E5E0F0E013C080B79927CD
S1132FE087709070892BD1F781B792B7891B8C3089
S1132FF030F082B7853F18F4E3E0F0E002C0E2E08D
S1133000F0E087B7887BC1F480917D008B7FA1F4C9
S11330106E9912C08AB190919A00892B887161F4DB
S11330208091740082FD08C0379B03C081E090E06A
S113303005C085E090E002C080E090E025B78E17DF
S113304008F4E82FFF27E457FF4FE491237E206222
S1133050E22BE5BF78948895F89485B78F7D85BF7A
S11330608091C9028F3F09F4B0CF282F3327F9018B
S1133070E25CFE4F80818093C9028F3F11F48093FC
S1133080DB028FEF80832F3F09F49FCF4FBF822F46
S11330900E941C0F95CF78941F920F920FB60F9237
S11330A011242F923F924F925F926F927F928F9250
S11330B09F92AF92BF92CF92DF92EF92FF920F93C3
S11330C01F932F933F934F935F936F937F938F93AC
S11330D09F93AF93BF93CF93DF93EF93FF93C6B5C3
S11330E0D7B58FB7F894282E0E94E7029B012C1BBA
S11330F03D0B442755272B013C01421A530A640A0D
S1133100750A80911401909115018530910521F083
S1133110069709F0E0C0BFC086E090E090931501E7
S11331208093140131E0332E30925901109216012C
S113313080E00E94C903E0916001F091610141AA1D
S1133140BB27A72D962D852D80ABC301AA27BB27AE
S113315087A7872D9927AA27BB2786A7E091600117
S1133160F091610185A5882309F484C060816550CC
S113317077274F01860E971EF4012081E18082811A
S1133180A3809927AA27BB27BA2FA92F982F88276E
S1133190332744275527522F442733272227FF2438
S11331A0002711278701FF24EE242E293F29402BD5
S11331B0512BBB24CC24DD242A293B294C295D290D
S11331C0822B932BA42BB52B84199509A609B70937
S11331D08383292F3A2F4B2F552722839D01442780
S11331E0552721838B2F9927AA27BB278083C09833
S11331F024E0A40180E090E00E943206C09AF40129
S11332002081E1808281A3809927AA27BB27BA2F36
S1133210A92F982F8827332744275527522F44272F
S113322033272227FF24002711278701FF24EE24B8
S11332302E293F29402B512BBB24CC24DD242A29C1
S11332403B294C295D29822B932BA42BB52B840D70
S1133250951DA61DB71D8383292F3A2F4B2F552764
S113326022839D014427552721838B2F9927AA2741
S1133270BB278083E0916001F0916101818185FF2A
S113328002C030923D0183E00E94BB0787B78F7E66
S113329087BF84997AC01092590181E00E94C903C2
S11332A0E0916001F0916101818185FF0FC087E0A9
S11332B090E090931501809314010E94E70220E0AE
S11332C031E040E050E00E94A40303C080E00E948B
S11332D0820A849B5AC080911601882391F58091BB
S11332E05901882371F511E0109359010E94C90313
S11332F080B32091C802283098F4E091CE02E20F06
S1133300FF27E770F070EE0FFF1FEE0FFF1FEC5862
S1133310FD4F40825182628273822F5F2093C802E4
S113332010931601D0937701C093760184992DC030
S1133330992734E0969587953A95E1F7182F1170FF
S113334001C010E0809159018130F9F410925901C3
S11333500E94C903109216011123B9F480917601D9
S113336090917701C81BD90B2A9778F48091C802F1
S1133370882319F081508093C80280916001909154
S11333806101009711F00E9458022FBEFF91EF9146
S1133390DF91CF91BF91AF919F918F917F916F9169
S11333A05F914F913F912F911F910F91FF90EF905B
S11333B0DF90CF90BF90AF909F908F907F906F9051
S11333C05F904F903F902F900F900FBE0F901F90E3
S11333D0189578941F920F920FB60F9211241F9391
S11333E02F933F934F935F936F937F938F939F9309
S11333F0AF93BF93EF93FF9387B78F7E87BF789484
S11334001FB7F8948091670190916801A0916901B8
S1133410B0916A010097A105B10509F051C08091EE
S11334201401909115018530910561F18630910563
S113343030F48330910549F0049781F51AC0873040
S11334409105F1F0089751F514C0869B0FC084E0F4
S113345090E090931501809314010E94E70227E005
S113346030E040E050E00E94A40318C00E948B0C9E
S113347015C00E94EB05882389F40E94B50C0EC088
S113348080E00AC089E00E94AB0681E00E94C90383
S113349083E00E94BB0787E00E94820A80910F01AB
S11334A090911001019771F482E090E090931001E3
S11334B080930F01DE98DE9A80E00E94930502C09B
S11334C00E940403812F99278FBFFF91EF91BF9131
S11334D0AF919F918F917F916F915F914F913F91A8
S11334E02F911F910F900FBE0F901F901895ACE273
S11334F0B0E0EDE7FAE10C944A1C222E332E442E60
S1133500552E662E772E882E992EFE013196A8E030
S11335101192AA95E9F729823A824B825C826D82E4
S11335207E828F829886FE013996B8E01192BA9510
S1133530E9F7A986BA86CB86DC86ED86FE860F87F8
S1133540188B89819A81AB81BC8189A79AA7ABA783
S1133550BCA77C018D018FEF9FEFA0E0B0E0E822D3
S1133560F9220A231B2389A59AA5ABA5BCA51D0195
S11335704424552489859A85AB85BC858DA39EA357
S1133580AFA3B8A75C016D018FEF9FEFA0E0B0E09F
S1133590A822B922CA22DB228DA19EA1AFA1B8A57F
S11335A03D0188249924C801B701A60195010E9410
S11335B02B1C69A37AA38BA39CA3C801B701A40104
S11335C093010E942B1C7B018C01C201B101A60155
S11335D095010E942B1C5B016C01C201B101A40185
S11335E093010E942B1C3B014C01EA0CFB1C0C1D9B
S11335F01D1D89A19AA1ABA1BCA19D0144275527FA
S11336002E0D3F1D401F511F2A153B054C055D051E
S113361040F480E090E0A1E0B0E0680E791E8A1EDC
S11336209B1ECA01AA27BB27860D971DA81DB91D7D
S11336308D8F9E8FAF8FB8A3A9013327222789A12D
S11336409AA1ABA1BCA1A070B070280F391F4A1F6A
S11336505B1F298F3A8F4B8F5C8FA98CBA8CCB8CD4
S1133660DC8CED8CFE8C0F8D18A1FE01719698E018
S113367011929A95E9F7ED8AFE8A0F8B188F2D81A6
S11336803E814F8158856DA17EA18FA198A50E948E
S11336902B1C3B014C012D853E854F85588969A51E
S11336A07AA58BA59CA50E942B1C2D893E894F8948
S11336B0588D260F371F481F591F260D371D481DCB
S11336C0591D2D8B3E8B4F8B588F6D887E888F882C
S11336D0988C2A2D3B2D4C2D5D2D662D772D882D14
S11336E0992DE2E1AC960C94661CA0E1B0E0EBE706
S11336F0FBE10C944A1C222E332E442E552E662EAA
S1133700772E882E992E002309F466C088E0FE01E6
S1133710319611928A95E9F729833A834B835C8326
S11337206D837E838F829887E0E2E01B1E16CCF5C2
S11337302D813E814F815885602F772767FD7095D5
S1133740DA01C901062E04C0B695A7959795879509
S11337500A94D2F78D879E87AF87B88B04C0220F57
S1133760331F441F551FEA95D2F789819A81AB8193
S1133770BC8104C0B695A795979587956A95D2F7AD
S1133780282B392B4A2B5B2B29873A874B875C875D
S113379029843A844B845C846D847E848F849888E5
S11337A01BC01D861E861F86188A2E2F332727FDD1
S11337B03095309521953F4F8D819E81AF81B8859D
S11337C004C0B695A795979587952A95D2F78987CA
S11337D09A87AB87BC87DCCF222D332D442D552D02
S11337E0662D772D882D992DE2E160960C94661C48
S11337F0991B79E004C0991F961708F0961B881F3F
S11338007A95C9F780950895AA1BBB1B51E107C09F
S1133810AA1FBB1FA617B70710F0A61BB70B881F5C
S1133820991F5A95A9F780959095BC01CD010895EB
S113383097FB092E07260AD077FD04D0E5DF06D0D2
S113384000201AF4709561957F4F0895F6F79095CE
S113385081959F4F0895629FD001739FF001829FCD
S1133860E00DF11D649FE00DF11D929FF00D839F0B
S1133870F00D749FF00D659FF00D9927729FB00DA8
S1133880E11DF91F639FB00DE11DF91FBD01CF01BB
S1133890112408952F923F924F925F926F927F92DC
S11338A08F929F92AF92BF92CF92DF92EF92FF924C
S11338B00F931F93CF93DF93CDB7DEB7CA1BDB0BF8
S11338C00FB6F894DEBF0FBECDBF09942A8839889D
S11338D048885F846E847D848C849B84AA84B984A4
S11338E0C884DF80EE80FD800C811B81AA81B981B0
S11338F0CE0FD11D0FB6F894DEBF0FBECDBFED01C4
S11339000895FB01DC0104C08D910190801921F41C
S113391041505040C8F7881B990B0895DC0101C041
S10F39206D9341505040E0F70895FFCF34
S111392C0100FFFFFFFF010022FFFFFF01006B
S9030000FC
