:100000000C9449000C9406050C9410050C941A05E8
:100010000C9424050C942E050C9438050C9454096A
:100020000C9442050C9468000C9468000C941B1806
:100030000C94B9190C94D0040C94E6040C944C055F
:100040000C94BF040C94A30E0C9468000C946800EC
:100050000C9468000C9468000C9468000C94680080
:100060000C94DB040C9468000C9468000C946800F9
:100070000C9468000C9468000C9468000C94680060
:100080000C9468000C9468000C94680000081C181C
:10009000141011241FBECFEFD0E1DEBFCDBF11E0A1
:1000A000A0E0B1E0ECECF8E300E00BBF02C0079089
:1000B0000D92AE30B107D9F712E0AEE0B1E001C069
:1000C0001D92AB3DB107E1F70E9445160C94651CEB
:1000D0000C9400008FB7F894992708958FBF089566
:1000E000282F9FB7F894E82FFF27E45CFE4F80810C
:1000F0008F3F81F4E091D902E21771F40BC0209395
:10010000C70204C0FF27E45CFE4F20832093D9027E
:1001100020E007C025E005C08091C7028F3F91F71E
:10012000EECF892F99278FBF822F992708957FB708
:10013000F89462B720912401309125014091260165
:100140005091270106B601FE0FC081B792B7280F64
:10015000311D411D511D2F5F3F4F4F4F5F4F290FE5
:10016000311D411D511D04C0260F311D411D511D62
:10017000872F99278FBFCA01B9010895FC01828199
:100180009927582F442781819927482B592BCA0139
:10019000892F992786958695837090708230910576
:1001A00059F08330910559F0892B19F420E030E0A3
:1001B00008C02CE93FEF05C022E030E002C028E093
:1001C00030E0CA0184E0989F812D99271124823064
:1001D000910559F08330910559F0892B19F480E08D
:1001E00090E008C08CE99FEF05C082E090E002C07B
:1001F00088E090E0280F391F2A5F3F4FCF01820F20
:10020000931F0895282F9FB7F894662349F0E82F8D
:10021000FF27EB5CFD4F8081882311F021E006C0B1
:10022000E22FFF27EB5CFD4F608320E0892F9927A9
:100230008FBF822F99270895E82F8FB7F894282F22
:10024000332790E0FF27EB5CFD4F8081861709F490
:1002500091E02FBF892F99270895882311F06E9A76
:1002600008956E980895882311F06F9A08956F98F5
:10027000089580E00E942D01BA9ABB98B99AB89A65
:100280006C9A80E00E9433016B986A9881E00E942A
:100290002D01709A8DB18C7F8DB908950F931F93A6
:1002A000182F0FB7F89461E080E00E9402018823C4
:1002B00071F510930201809105018823A9F58091C1
:1002C0001301823089F589E00CC00E9439018091C8
:1002D0001301882349F481E08093130110925301A4
:1002E0008BE00E9470002AC0809169018F3F31F538
:1002F000E0910401EE2311F11CC01092030104C02F
:10030000FF27E759FE4F10821092040117C081E0C9
:1003100090E002C0880F991F1A95E2F72091120110
:10032000282B209312010AC0809113018823E1F643
:10033000CCCF809103018F3F19F7DFCF802F992712
:100340008FBF80E090E01F910F9108951F93182FA9
:1003500081E00E942D011FB9779BFECF8FB19927B5
:100360001F9108958F929F92AF92BF92CF92DF928A
:10037000EF92FF920F931F93CF93DF938FB7F89471
:100380009927C090D402D090D5028090FA01909025
:10039000FB01C091BC01D091BD01209121013091A0
:1003A0002201EAE0AE2EB12CAC0EBD1E2A153B0593
:1003B00008F459018FBF7401EC0EFD1E86010C0F6D
:1003C0001D1F14C0C114D10419F0F801808101C0AF
:1003D00080E00E94A6018114910411F0F70180834E
:1003E00021960894E11CF11C0F5F1F4FC501019776
:1003F000C817D90738F381E00E9433019FB7F894FA
:10040000C114D10431F0CC0EDD1EF60180818FB90C
:1004100001C01FB8D093BD01C093BC01892F99279B
:100420008FBF80E090E0DF91CF911F910F91FF90FF
:10043000EF90DF90CF90BF90AF909F908F900895F6
:100440002FB7F894332750932201409321019093C2
:10045000D5028093D4027093FB016093FA0110924D
:10046000BD011092BC012FBF452B29F08FB10E9416
:10047000B201992708958AE00E94700080E090E020
:1004800008958FB7F8949927109237028FBF089577
:1004900080E880933A01109258011092CC02109299
:1004A000C602109252010895CF93DF93FC0115A666
:1004B000DC019E96ED011B821A82198280E886A7D4
:1004C000DF91CF9108952F923F924F925F926F925A
:1004D0007F928F929F92AF92BF92CF92DF92EF92D4
:1004E000FF920F931F93CF93DF93CDB7DEB728977B
:1004F0000FB6F894DEBF0FBECDBF209060013090E4
:100500006101409062015090630166247724882441
:10051000BEE4AB2EA3E8BA2ECC24DD24EE24FF24C7
:1005200000E010E0222D332D442D552D662D772D22
:10053000882D90E00E94471A29833A834B835C837D
:100540006D837E838F839887822E932EA42EB52E63
:100550002401350100E20E94451BA22EB32EC42EB9
:10056000D52EC301B20196958795779567956A0D4B
:100570007B1D8C1D9D1D97FF05C09F776F5F7F4F73
:100580008F4F9F4F60936001709361018093620170
:100590009093630128960FB6F894DEBF0FBECDBFCF
:1005A000DF91CF911F910F91FF90EF90DF90CF904F
:1005B000BF90AF909F908F907F906F905F904F9083
:1005C0003F902F9008958FB7F8946091C00170917B
:1005D000C1012CB53DB506B602FE04C06F5F7F4F6A
:1005E0002CB53DB599278FBF88279927CB01772751
:1005F000662744275527622B732B842B952B089550
:10060000EF92FF920F931F930E94E3027B018C01F4
:1006100020916A0130916B0140916C0150916D0104
:100620008091650190916601A0916701B091680188
:10063000820F931FA41FB51FE216F30604071507C8
:1006400030F082179307A407B50758F005C082174A
:100650009307A407B507E0F5E816F9060A071B0794
:10066000B8F59C01AD012E193F09400B510B21300B
:1006700060E8360760E0460760E0560768F180E012
:1006800090E8A0E0B0E0E80EF91E0A1F1B1FE09200
:100690006A01F0926B0100936C0110936D0180E090
:1006A00090E8AFEFBFEFE80EF91E0A1F1B1F2050A6
:1006B000304840405040209365013093660140939C
:1006C00067015093680120E030E840E050E014C03A
:1006D00020E030E040E050E080936A0190936B01AD
:1006E000A0936C01B0936D011092650110926601A8
:1006F0001092670110926801A901B7012CB53DB5B0
:10070000C9018E199F0903968417950720F0B90136
:100710006D5F7F4F02C0640F751F6115710511F485
:1007200061E070E0615070407BBD6ABD80E186BFD2
:1007300087B7806187BF1F910F91FF90EF90089559
:100740000F931F930FB7F894112760936A0170936A
:100750006B0180936C0190936D0120936501309340
:10076000660140936701509368010E9400030FBF28
:100770001F910F9108951092100110920F01DE98B1
:10078000DD98DE9A80E090E0089597B79F7D97BF4F
:1007900090E296BF882319F08EB5806402C08EB5B2
:1007A0008F7B8EBD87B7806287BF80E090E0089521
:1007B00020E030E0E6E7F1E0808191818F5F9F4F9C
:1007C00031F02F5F3F4F34962F303105A9F7C90123
:1007D00008958FB7F89499272BB332E023272BBBCA
:1007E0008FBF0895DF92EF92FF920F931F938FB701
:1007F000F894282F3327D22E91B782B746B798178F
:1008000011F041FF02C02FBF6AC08091BB01882355
:10081000E1F10E949700E0903102F09032020091E5
:10082000330210913402209136013091370140910A
:100830003801509139016E197F09800B910B6217B5
:1008400073078407950720F01092BB0171E01EC06A
:100850002E0D3F1D401F511F8091240190912501B5
:10086000A0912601B0912701281B390B4A0B5B0B85
:10087000273E31054105510540F4822F223010F00A
:1008800070E005C070E082E002C070E086EE682F84
:10089000615000B601FCFDCF82B7681709F46F5FA5
:1008A000209124013091250140912601509127018A
:1008B000DA01C9010196A11DB11D860F911DA11D6F
:1008C000B11D82179307A407B50710F4622F609536
:1008D00061BFDFBE772319F081E00E9470001F9195
:1008E0000F91FF90EF90DF900895AFB7F894BB277A
:1008F000E1E0E093BB016093310270933202809398
:1009000033029093340220933601309337014093A1
:10091000380150933901AFBF0E94F2030895AF929E
:10092000BF92CF92DF92EF92FF920F931F93CF93DC
:10093000DF93CDB7DEB728970FB6F894DEBF0FBEB2
:10094000CDBF20E070E0E0910001F091010132E1C3
:100950004DE65CE46FE4809101019E2F28960FB66E
:10096000F894DEBF0FBECDBFDF91CF911F910F91E5
:10097000FF90EF90DF90CF90BF90AF9008951F92BF
:100980000F920FB60F9211248F9383B783BF00B6D7
:1009900000FCFDCF8F910F900FBE0F901F90189508
:1009A00078941F920F920FB60F9211240F900FBEE2
:1009B0000F901F90189578941F920F920FB60F9278
:1009C00011240F900FBE0F901F90189578941F92CE
:1009D0000F920FB60F9211242F933F938F939F93F3
:1009E0002FB7F89433278091C0019091C1010196EF
:1009F0009093C1018093C0012FBF9F918F913F9130
:100A00002F910F900FBE0F901F9018951F920F926D
:100A10000FB60F9211240F900FBE0F901F901895D4
:100A20001F920F920FB60F9211240F900FBE0F90CE
:100A30001F9018951F920F920FB60F9211240F90CE
:100A40000FBE0F901F9018951F920F920FB60F9226
:100A500011240F900FBE0F901F9018951F920F92A8
:100A60000FB60F9211240F900FBE0F901F90189584
:100A70001F920F920FB60F9211240F900FBE0F907E
:100A80001F9018951F920F920FB60F9211240F907E
:100A90000FBE0F901F9018951F920F920FB60F92D6
:100AA00011242F933F934F935F936F937F938F9373
:100AB0009F93AF93BF93EF93FF9383B783BF00B62A
:100AC00000FCFDCF81B799270196AA27BB2720916B
:100AD0002401309125014091260150912701280FD2
:100AE000391F4A1F5B1F2093240130932501409337
:100AF00026015093270178940E94F203FF91EF9111
:100B0000BF91AF919F918F917F916F915F914F9125
:100B10003F912F910F900FBE0F901F9018950F933C
:100B20001F93CF93DF93182F8FB7F894C82FDD272B
:100B30000C2F61E080E00E940201882321F0CFBFEA
:100B400085E090E024C0809105018823A1F4809184
:100B50001301823081F409C082E080931301109266
:100B600005010E943901B89AC0981093020180E0F3
:100B70000FBF99270CC080911301882369F38FB7A9
:100B8000F8949927109235028FBF81E0F1CFDF9161
:100B9000CF911F910F9108951F9383E00E948F05BD
:100BA0009927182F882319F083E00E944E01812F86
:100BB00099271F910895EF920F931F93AE2D99E0FF
:100BC000899FF0011124EC53FE4F408351836283CF
:100BD00073830483158326833783A17080858E7F7A
:100BE0008A2B8260808782E00E9470001F910F91A3
:100BF000EF90089561E081E00E9402018823E9F40A
:100C00008FB7F894282F332780910F01909110010E
:100C1000892B11F02FBF20C081E090E0909310014C
:100C200080930F012FBFDD9A0E94E30224E130E0A0
:100C300040E050E00E94A0030FC062E081E00E940B
:100C40001C01882319F089E090E0089561E081E0BB
:100C50000E941C01882319F080E090E0089585E04F
:100C600090E00895FF920F931F93CF93DF93F82E98
:100C70008B018FB7F894C82FDD2760E080E00E94D9
:100C80001C01882321F0CFBF80E090E00CC0CFBFD3
:100C90008F2D0E94A601812F99270E94A601802FE7
:100CA0000E94A6019927DF91CF911F910F91FF908C
:100CB00008951F931FB7F89480915101882319F468
:100CC00060E070E009C060E08091D302882309F4FD
:100CD00061E081E06827772780915D01882319F41E
:100CE00080E090E00AC090E080913A02882309F405
:100CF00091E081E09827892F9927762F6627770F33
:100D0000770F770FE4E0880F991FEA95E1F7826E7D
:100D10009262682B792B81E10E943206812F9927FC
:100D20008FBF1F9108958FB7F89499276091430260
:100D30008FBF85E0689FB0011124625D7E4F7064B3
:100D400088E10E9432060895EF92FF921F93CF939D
:100D5000DF93E0905E01F0905F01F70182A5992793
:100D6000182F882309F41FE1C09880915001811742
:100D700049F0612F77276F717070606E706885E140
:100D80000E94320610935001F70110818FB7F8943A
:100D9000C82FDD2760E080E00E941C01882311F04D
:100DA000CFBF12C0CFBF8EE390E0909373018093CA
:100DB00072018EE30E94A6011150412F552760E079
:100DC00070E0C7010E942002DF91CF911F91FF9038
:100DD000EF9008950F931F93CF93DF93EC010FB71C
:100DE000F89411270E94BE00FC018FE380830FBF9F
:100DF0001092CF021092CE0261E082E00E940201C6
:100E0000882319F085E090E072C0809145028F5FE1
:100E10008093450281508B838FB7F894082F112758
:100E200062E081E00E941C01882329F40FBF0E9428
:100E3000410281E05BC08FB7F894992724E02093AA
:100E400036028FBFD093B901C093B8010FBFFE0126
:100E50003196818129819927982F88273327822BE2
:100E6000932B80729C7C8983892F99278183298188
:100E7000982F882733272164822B932B8983892FEE
:100E8000992781831CA618A619A619AA18AA1FA615
:100E900080E88EA761E0609339024091B8015091DB
:100EA000B9018FB7F894282F3327809114019091BE
:100EB00015018830910511F0019711F02FBF15C071
:100EC00082E090E090931501809314016093DA0220
:100ED00050935F0140935E01109223012FBF0E9447
:100EE000CC05882311F40E94A40680E09927DF91A5
:100EF000CF911F910F910895CF93DF93DA01422F85
:100F00002D3118F082E090E05EC0ED018B876E839A
:100F1000872F99278F832FB7F89433278091590112
:100F200090915A012FBFFD018483892F99278583D2
:100F30002FB7F894332780910601909107012FBFB6
:100F40008887892F992789873196818129819927D7
:100F5000982F8827332720643868822B932B898326
:100F6000892F99278183435F4C934D5080910901CC
:100F7000882359F010920901642FCD010E94EA06DE
:100F80009927282F8823A9F417C0842F9927909395
:100F9000B3018093B201B0931901A09318018DE0C1
:100FA0000E94700080910901882349F489E090E053
:100FB0000AC08FEF80930901822F992704C01092F5
:100FC000640180E090E0DF91CF910895CF93DF93AB
:100FD000FB01DB0116968683892F9927ED01898312
:100FE00086E083878091BE019091BF01892B19F023
:100FF00085E090E02BC07093BF016093BE01435F1A
:1010000040834D5080910C01882319F480E090E0DA
:101010001DC08385ED0169817727762F662726819C
:101020003327622B732B10920C01242FAF010E94E7
:101030007C079927282F882339F081E080930C01C1
:101040001092BF011092BE01822F9927DF91CF919C
:101050000895809100019091010180930902292F48
:1010600033272093080225E020930B0210920A02F6
:1010700020911F013091200120930D02232F33274F
:1010800020930C0210921502109214021092170273
:1010900010921602109218020E94D8038093130235
:1010A000892F99278093120281E080931102109278
:1010B000100241E16CEF71E08FEF9FEF0E94E607B5
:1010C000882311F40E94E9030895CF92DF92EF92F2
:1010D000FF920F931F93CF93DF938C01F62E6A013B
:1010E000E22E8FB7F894C82FDD2760E080E00E94E1
:1010F0001C01882321F0CFBF80E090E01EC0CFBF4D
:101100000F0D111D802F80680E94A601F82E1695E4
:101110000795802F807C0E94A6010E2D0AC0EE2D1F
:10112000FF27E01BF109EC0DFD1D80810E94A60147
:1011300001500023A1F78F2D9927DF91CF911F91A7
:101140000F91FF90EF90DF90CF900895CF93DF93B2
:10115000CDB7DEB72C970FB6F894DEBF0FBECDBF6C
:101160008FB7F894282FAE014F5F5F4FDA01EBE3A2
:10117000F2E088E001900D928150E1F780915901F1
:1011800090915A018987892F99278A8780916E01CA
:1011900090916F018B87892F99278C872FBF2CE027
:1011A00060E080E691E00E9465082C960FB6F89406
:1011B000DEBF0FBECDBFDF91CF9108951F93CF93B8
:1011C000DF93182F8FB7F894C82FDD2760E080E0F9
:1011D0000E941C01882321F0CFBF80E090E005C071
:1011E000CFBF812F0E94A6019927DF91CF911F9138
:1011F0000895EF92FF920F931F93CF93DF93182FD1
:101200007B01042F8FB7F894C82FDD2760E080E0C2
:101210000E941C01882321F0CFBF80E090E014C021
:10122000CFBF1064812F992790937301809372012F
:101230000E94A601182F402F5527B70180E090E0AB
:101240000E942002812F9927DF91CF911F910F914A
:10125000FF90EF900895C09860911D0170911E015C
:1012600041E08FE30E94F908089582E090E09093B6
:101270004D0180934C0181E08093580120E030E0E3
:1012800080910201843011F421E030E0232B29F415
:1012900084E00E948F05882319F40E942B09089589
:1012A00084E00E944E0108951F920F920FB60F9294
:1012B00011242F933F934F935F936F937F938F935B
:1012C0009F93AF93BF93EF93FF9380914C019091C5
:1012D0004D01019749F482E090E090934D01809395
:1012E0004C010E94350905C0809152018F5F8093A7
:1012F0005201FF91EF91BF91AF919F918F917F919B
:101300006F915F914F913F912F910F900FBE0F9072
:101310001F9018951F9380911201882309F04BC0EC
:10132000109102011F3F09F046C060E00E941C01BD
:10133000882309F440C081E08093440280913B01FE
:101340008823E1F11092440285E090E045C092309C
:1013500069F5C09A8091030120E030E08F3F11F4DD
:1013600021E030E0232BE9F4109305018F3F19F4BD
:101370002FEF30E00DC0282F3327F901E759FE4F3A
:101380008081809303018F3F11F410930401108337
:101390002093530181E0809313018BE00E94700041
:1013A00005C0109305011092130111C08091130123
:1013B000882369F00FC081E090E00EC080910501A4
:1013C00090911301882319F2923021F0EFCF80E041
:1013D0000E942D0180E090E01F9108951F93CF930C
:1013E000DF939FB7F894C92FDD271C2F909102013E
:1013F000981721F0CFBF81E090E03AC08FEF809343
:101400000201309112013323F1F48FB7F894992738
:10141000109235028FBF0E948A09CFBF11C020935E
:10142000020181E090E002C0880F991F4A95E2F71F
:10143000809538233093120189E00E9470001FBF0D
:1014400080E090E015C080E065E0E32FFF270E9478
:10145000C81B292F492F5527CF01042E02C095956F
:1014600087950A94E2F780FDDACF822F8F5FEFCF66
:10147000DF91CF911F9108950F931F930FB7F894A9
:101480001127109215011092140187B78F7E87BF24
:1014900087B78F7D87BF83E00E94EE09C09A0FBF98
:1014A0000FB7F894112710924D0110924C010E9431
:1014B0004802C09A89B78F7B89BF0FBF80E090E058
:1014C0001F910F9108951F93CF93DF938FB7F894D7
:1014D000C82FDD271C2F80914C0190914D01892B45
:1014E00029F484E00E94EE09CFBF1EC0109258017B
:1014F00080915201882311F0B79904C00E9908C059
:10150000882319F08150809352010E9435090BC045
:1015100081E090E090934D0180934C011092520134
:1015200084E00E94EE091FBFDF91CF911F910895C3
:101530000E944802C09AC09888E00E94DE0888E0B5
:101540000E94DE08C09A84E00E94EE090E94630AAD
:1015500008951F93182F81E090E0909315018093D8
:10156000140110923B010E948A098FB7F8949927C1
:1015700010930E018FBF85E00E9470001F910895A7
:1015800062E081E00E941C01882379F08FB7F89413
:10159000992723E0209336028FBF0E943C0A0E94C5
:1015A000BB0384E00E9470001DC060E081E00E94E7
:1015B0001C01882319F089E090E0089564E081E03F
:1015C0000E941C01882341F08FB7F894992723E0EB
:1015D000209336028FBF06C063E081E00E941C01A9
:1015E000882319F080E090E0089585E090E0089568
:1015F000AF92BF92CF92DF92EF92FF920F931F9321
:10160000CF93DF935B016C01C0E0D0E0E4ECF1E04C
:10161000608561FF92C02081318142815381E480E5
:10162000F58006811781D601C501821B930BA40B9F
:10163000B50B8E159F05A007B10708F47EC060FFAB
:1016400003C06D7F608708C02E0D3F1D401F511FD6
:101650002083318342835383C23009F46AC0C3308C
:1016600030F4CC2351F0C13009F06DC01DC0C3303F
:1016700081F1C43009F067C031C081E090E09093FF
:10168000D2028093D1028091CA029091CB02813024
:10169000910509F058C09093B5018093B4019093DF
:1016A00056018093550145C010925C0110925B0178
:1016B0008091CA029091CB02019711F40E94C00A56
:1016C0008091CA029091CB02892BE9F50E94FA051C
:1016D0003AC00E9429080E94C00A35C083E090E009
:1016E000909356018093550160E070E0A8E7B1E067
:1016F000C2E0D0E06F5F7F4F2496FE01EA58FE4FB4
:101700009B0110C04D915C9111978081918184174C
:1017100095072CF411969C938E93518340832F5FF1
:101720003F4F34962F3031056CF314966F307105AE
:1017300009F780E00E94700006C021963996C630F5
:10174000D10509F065CF82E00E947000DF91CF9152
:101750001F910F91FF90EF90DF90CF90BF90AF90CF
:101760000895AF92BF92CF92DF92EF920F931F93A3
:101770005B016C010E949700AB01BC01F1E0EF2E10
:101780009601850181E00E94DB051F910F91EF908A
:10179000DF90CF90BF90AF900895EF920F931F937B
:1017A0008C5F914009F04FC0809155019091560196
:1017B0008130910589F49093C3018093C2010E9406
:1017C0009700AB01BC01A1E0EA2E00ED17E020E09C
:1017D00030E082E00E94DB05809155019091560136
:1017E000039789F580911A0190911C01992389F042
:1017F0008F5F80931A01843111F410921A01892F9E
:10180000815080931C0190E0882309F491E0992392
:10181000D1F08091B4019091B501019739F460ED58
:1018200077E080E090E00E94B10B0DC00FB7F89414
:10183000112783E090E0909356018093550180E05A
:101840000E9470000FBF1092BA011F910F91EF908C
:1018500008950F931F93CF93DF93182FEB01042F5D
:10186000E82FFF27EE0FFF1FE254FE4F1182108278
:1018700010920C01E091BE01F091BF01309721F070
:101880008091CD0280FF0EC081E080930C0103C0E7
:101890008FE00E9470001123B9F4602FCE010E94E6
:1018A000CD0B12C020812D50332767817727762FEB
:1018B000662786819927682B792BAF0183850E9443
:1018C0007C07882341F3E4CFDF91CF911F910F91E3
:1018D00008959B0180910C01882349F46091BE0119
:1018E0007091BF016217730711F40E94290C0895CB
:1018F000CF92DF92EF92FF920F931F93CFB6F8949F
:10190000DD240E946302DC01CB0166E470E00E94EA
:10191000D41B2BE0E22EF12CE80EF91EF092D70238
:10192000E092D6020E94E30200271127A801970146
:101930000E94A003CFBE1F910F91FF90EF90DF9008
:10194000CF9008951F93CF93DF938FB7F894C82F4C
:10195000DD271C2F80911401909115010897C9F47F
:1019600089E00E94DE0883E00E94EE09C09A81E0CF
:1019700090E090931501809314018FB7F894992704
:1019800023E020930E018FBF85E00E947000CFBF3F
:1019900030C0C0988091DA02882311F085E001C040
:1019A00084E00E94DE0883FD09C080E00E94DE081A
:1019B00083FF04C085E090E020E003C083E090E076
:1019C00021E09093150180931401C09A1FBF222338
:1019D00041F01092230183E00E94EE090E94780CEE
:1019E00008C00E94E30220E431E040E050E00E94A1
:1019F000A003DF91CF911F910895EF92FF920F9373
:101A00001F93CF93DF938B018091720190917301AB
:101A100086FF40C18F7B8F3309F08EC1C0911D01BD
:101A2000D0911E01588150934E0180914C019091AC
:101A30004D018530910509F443C08630910509F4C4
:101A40008AC0029709F01FC185E090E090934D0194
:101A500080934C0140913A01852F99270196242FBC
:101A60003327281739074CF1B79906C00E9904C0DF
:101A7000451B415040933A0140914E014A32E8F4EF
:101A80004423A1F0BE016F5F7F4F483018F047E05C
:101A900050E007C086E090E090934D0180934C01A8
:101AA000552780E090E00E94200246C11092580124
:101AB000C09A84E00E94EE09E3C00E94980A3CC1EB
:101AC00086E090E090934D0180934C0180915D0100
:101AD000882309F439C080913A028823A9F58981C5
:101AE00085FF32C08F814E812FB7F89433276091E4
:101AF0006E0170916F012FBF9927982F8827552766
:101B0000842B952B8617970759F08F812E81992763
:101B1000982F88273327822B932B8F5F9F4FA1F419
:101B200089818770813081F4C09AC0988AE00E94D0
:101B3000DE08C09AC09840914E0147502896BE01D9
:101B40008FE30E94F908F8C040914E014750552795
:101B50002896BE01A6CFC09A80915201882339F4FD
:101B600084E00E94EE0980915201882311F0B79918
:101B70000AC00E9B08C09091C602992321F0809163
:101B80004E018B3038F480911D0190911E010E940E
:101B900054023DC0913001F5E091CC02FF27EE0FD9
:101BA000FF1FEE0FFF1FEE58FD4F20813181428154
:101BB0005381E0911D01F0911E0121ABBB27A52FA0
:101BC000942F832F80ABCA01AA27BB2787A7252F75
:101BD00033274427552726A78091CC0299270196C1
:101BE00068E070E00E94E81B8093CC028091C602FE
:101BF00081508093C602882351F080911D019091FD
:101C00001E010E9454021092CC021092C6028091D2
:101C10004E01FE01E80FF11D808187FF31C0012BCD
:101C200079F169816770E0911D01F0911E016230C8
:101C300019F5A0915E01B0915F01109709F18091B3
:101C40001401909115010797D9F4ED019B818381CF
:101C50009817B1F487B78F7E87BF908181E08CA7FA
:101C6000E90FF11D8291319688A780818F7789A72E
:101C700080E00E94A90A04C0613011F48CE02AC0FF
:101C80000E94630A59C010925801C09A84E00E94D1
:101C9000EE0952C08E3309F04FC0C09A80911401F2
:101CA000909115010897C9F4C09889E00E94DE0858
:101CB000C09A83E00E94EE0981E090E090931501C4
:101CC000809314018FB7F894992723E020930E0195
:101CD0008FBF85E00E9470002FC08091DA028823B8
:101CE00049F484E090E090931501809314010E94E0
:101CF000A20C22C083E00E94EE0983E090E0909362
:101D00001501809314010E946302DC01CB0166E39C
:101D100071E00E94D41B3BE0E32EF12CE80EF91E8B
:101D2000F0923501E09234010E94E302002711276E
:101D3000A80197010E94A003DF91CF911F910F91FD
:101D4000FF90EF9008951F920F920FB60F921124FB
:101D50002F933F934F935F936F937F938F939F93B3
:101D6000AF93BF93EF93FF932FB1E091FA01F091FE
:101D7000FB01309739F08091BC019091BD01E80FD3
:101D8000F91F20838091BC019091BD010196909331
:101D9000BD018093BC0180E00E943301409121018C
:101DA000509122018091BC019091BD01841795074B
:101DB00018F40E94B2011CC06091FA017091FB01FD
:101DC0008091D4029091D5021092FB011092FA01F9
:101DD0001092D5021092D402109222011092210189
:101DE0001092BD011092BC012FB120E00E94FD0CA9
:101DF000FF91EF91BF91AF919F918F917F916F91E3
:101E00005F914F913F912F910F900FBE0F901F90B8
:101E100018954F925F926F927F928F929F92AF929E
:101E2000BF92CF92DF92EF92FF920F931F93CF93C7
:101E3000DF93CDB7DEB7A8970FB6F894DEBF0FBE1D
:101E4000CDBF873009F4ABC2883098F4833009F4F1
:101E5000C1C1843038F4813009F431C1823008F0D6
:101E600061C127C0853009F451C2863008F07CC2B8
:101E700033C28B3009F4B3C38C3038F4893009F4A1
:101E8000CEC28A3008F088C391C28D3009F471C681
:101E90008D3008F4B8C38E3021F08F3009F0C1C600
:101EA000B3C68091CD02882309F4BBC690E011E04F
:101EB00089C68091550190915601019779F58091DD
:101EC00000019091010180930902292F332720936B
:101ED000080211E010930B0210920A0220911F01D8
:101EE0003091200120930D02232F332720930C02E1
:101EF00010921502109214021092170210921602FC
:101F0000109218020E94D80380931302892F9927F8
:101F100080931202109311021092100280915501C9
:101F200090915601029781F58091000190910101F5
:101F300080930902292F33272093080222E020935F
:101F40000B0210920A0220911F0130912001209370
:101F50000D02232F332720930C02109215021092AA
:101F600014021092170210921602109218020E9488
:101F7000D80380931302892F99278093120281E05E
:101F80008093110210921002809155019091560198
:101F9000039781F5809100019091010180930902DE
:101FA000292F33272093080223E020930B0210925D
:101FB0000A0220911F013091200120930D02232F4E
:101FC000332720930C0210921502109214021092E3
:101FD000170210921602109218020E94D8038093E2
:101FE0001302892F99278093120281E080931102B6
:101FF000109210028091550190915601049781F53D
:10200000809100019091010180930902292F3327CB
:102010002093080224E020930B0210920A022091E0
:102020001F013091200120930D02232F332720938D
:102030000C021092150210921402109217021092C4
:102040001602109218020E94D80380931302892F5F
:1020500099278093120281E080931102109210025E
:102060008091BA01882309F0DCC581E08093BA0130
:1020700020915501309156012130310531F48FEF17
:102080009FEF9093B7018093B6012330310541F45F
:1020900080917601909177019093B7018093B6017A
:1020A00041E16CEF71E08091B6019091B7010E941F
:1020B000E607882309F0B5C50E94E903B2C58091FF
:1020C0004F01882361F520916E0230916F0240919B
:1020D000700250917102EFB7F894FF2760913102BE
:1020E000709132028091330290913402E090360177
:1020F000F090370100913801109139016E0D7F1D6C
:10210000801F911FEFBF20936E0230936F024093A8
:1021100070025093710210924F010E9475040E9448
:10212000970043C00E9497005B016C018FB7F89441
:1021300099271092BB018FBFAFEFEA2EAFEFFA2EB7
:10214000AFEF0A2FAFE71A2F60E0E4ECF1E08085F3
:1021500081FF1CC080819181A281B381A60195017C
:10216000281B390B4A0B5B0BDA01C901248135812D
:1021700046815781281B390B4A0B5B0B2E153F05F7
:10218000400751071CF479018A0161E0399631E07A
:10219000EA3FF307E1F6662309F443C51E141F0462
:1021A000100611062CF0C601B5010E94F80A39C5C7
:1021B000E0926E02F0926F0200937002109371022F
:1021C00081E080934F01A8019701C601B5010E94EB
:1021D000750427C50FB7F894112781E00E94C50345
:1021E000F1E0EF2EF12CF0921501E0921401109223
:1021F000160110923B01109250010FBF0FB7F894D7
:1022000011270E944802F0924D01E0924C01109279
:10221000580189B78F7B89BF80E488BF8AB7806205
:102220008ABF8AB78F7E8ABF89B7806489BF0FBF94
:102230008FB7F894082F112780910F01909110010A
:10224000049719F483E00E94DE080FBF0FB7F894DB
:102250001127C09A80E00E94EE090FBF8FB7F89453
:10226000992722E0209336028FBF81E090E090937F
:10227000CB028093CA02DA9880915B0190915C0155
:10228000019769F48091000190910101892B09F077
:10229000C8C41092200110921F010E942908809149
:1022A0005B0190915C01892B09F0BBC41092C301C2
:1022B0001092C2011092B5011092B4010E949700D1
:1022C000AB01BC01E1E0EE2E08EE13E020E030E0CF
:1022D00080E00E94DB05A5C48FB7F894992710927F
:1022E00036028FBFDA9A1092B5011092B4011092A3
:1022F000C3011092C2011092CB021092CA0260E197
:1023000077E280E090E00E94B10B8BC48FB7F89425
:102310009927F0900E018FBF63E081E00E941C01BD
:10232000882341F00E943C0A0E94BB0384E00E9483
:10233000700007C08FB7F894992722E020933602E7
:102340008FBF0091B8011091B9010E9441028091A4
:10235000CE029091CF02892B09F063C48FEF809356
:1023600009014F2DB80125C48FB7F894282F3327C2
:10237000122F8091D802882309F581E08093D8023A
:1023800080910F0190911001049721F481E00E9447
:102390004E0103C087E00E9470001FBF42C48FB788
:1023A000F89499271092D8028FBF3BC48FB7F89446
:1023B000282F332780911101882311F02FBF31C4BA
:1023C0002FBF80B3992736E0969587953A95E1F728
:1023D000182F117090917001809171018917D9F0B7
:1023E0001917C9F484E090E09093100180930F01D5
:1023F0008FB7F894992721E0209311018FBF60E0F7
:1024000070E08DE10E9432060E94A608C09AC09832
:1024100083E00E9470001093710188E06DC08FB757
:10242000F8949927109102018FBF123009F467C008
:10243000133030F4112359F0113009F0F2C348C0C1
:10244000133009F476C0143009F0EBC3A2C0C09871
:102450008FB7F894082F112780910F0190911001E8
:102460000297A1F583E090E09093100180930F0113
:1024700068E170E08DE10E94320681E08093700196
:102480001092110180B3992726E0969587952A9599
:10249000E1F7817090708093710188E00E94700074
:1024A00081E00E94DE086FE772E08CE10E94320654
:1024B0000E9493060E94590666E57AE287E10E942F
:1024C00032066FEF70E885E10E9432060FBFA9C3A4
:1024D000C09886E00E94DE080E9493060E9459067A
:1024E0000E94A608C09AC09883E00E94DE08C09AA5
:1024F00081E00E94EE0987E00E94700092C3C098BC
:102500008FB7F894082F112760E080E00E941C012B
:10251000882311F00FBF0AC00FBF83E50E94A601F8
:1025200080E00E94A60180E00E94A601C09A82E09D
:102530002DC08FB7F8949927209114018FBF2430B4
:1025400039F0283041F0223001F50E94A40669C319
:102550000E94A20C66C3C09889E00E94DE08C09A5F
:1025600083E00E94EE098FB7F894992721E030E0CC
:1025700030931501209314018FBF8FB7F8949927DA
:1025800010930E018FBF85E0B7CF83E00E94EE0964
:1025900048C30E942B0945C30FB7F89411274091F7
:1025A0002101509122016091FA017091FB0180910B
:1025B000D4029091D5021092FB011092FA01109270
:1025C000D5021092D4021092220110922101109291
:1025D000BD011092BC0120E00E94FD0C77CF2FB707
:1025E000F8943327809153018093050182E0809312
:1025F00013012FBF80910501882309F012C3B89AF7
:10260000C09889E079CFA0911D01B0911E01FC9086
:102610009D012F0D311DF9018081881F8827881F9A
:10262000FD0183A7F90180818F77FD0181A72150EA
:102630003040F9018081FD0180A7A0911D01B0917A
:102640001E01FD0132818FB7F89499272091510125
:102650008FBF222309F490C0832F992796958795E1
:1026600096958795837090708230910541F58781AA
:1026700046812FB7F894332760916E0170916F01F6
:102680002FBF9927982F88275527842B952B86179E
:10269000970719F481E090E06CC0FD0187812681E5
:1026A00040E050E09927982F88273327822B932BDF
:1026B0008F5F9F4F11F441E050E0CA015AC0039769
:1026C00009F04EC29E012F5F3F4F4BE352E088E07E
:1026D000FA010190AF01F90101929F018150C1F708
:1026E0009E012F5D3F4FAE014F5F5F4F88E0FA01C3
:1026F0000190AF01F90101929F018150C1F79E0144
:10270000275F3F4FAE014F5D5F4F88E0FA010190B8
:10271000AF01F90101929F018150C1F79E012F5E27
:102720003F4FAE01475F5F4F88E0FA010190AF0174
:10273000F90101929F018150C1F79E01275E3F4F31
:10274000AE014F5E5F4F88E0FA010190AF01F901E1
:1027500001929F018150C1F748E050E0BE01675EE1
:102760007F4FCD0106960E94511C892B09F0F8C1BC
:1027700003C0882309F4F4C1FCE0FF1508F0F0C1A0
:10278000A0901D01B0901E01F5012281822F992792
:10279000F6E096958795FA95E1F7039719F468E0C6
:1027A00070E002C062E070E0822F992796958795CD
:1027B0009695879583709070039719F488E090E060
:1027C00002C082E090E026E030E0A20EB31E40E0BE
:1027D00050E020E030E0F501E80FF91F8AEF9FEFAD
:1027E000A80EB91E05C08191480F511D2F5F3F4FA4
:1027F00026173707C4F3F50163818FEF8093D0026A
:102800008FB7F894782F20E030E0E8E2F1E08081A3
:1028100091818417950729F48281861731F12093DD
:10282000D0022F5F3F4F33962430310581F77FBFB1
:102830009091D0023FB7F8949F3F21F0809117010B
:102840008917A9F520911701822F9927FC01EE0F16
:10285000FF1FE80FF91FE85DFE4F5183408362833D
:102860002F5F2370209317012EC07FBF75C1D40145
:102870008C91F4012181DA01AA0FBB1FAA0FBB1FA3
:10288000AA58BE4F9927982F88273327822B932B3E
:1028900011969C938E93828523859927982F88275C
:1028A0003327822B932BFD019383828333C1892F9E
:1028B0009927FC01EE0FFF1FE80FF91FE85DFE4F9F
:1028C000518340836283832F99278FBF0FB7F8947A
:1028D0001127C5010E94BE00FC0190810FBFF501C8
:1028E00083A5882309F438C19F3309F035C1878156
:1028F00046812FB7F8943327609106017091070144
:102900002FBF9927982F88275527842B952B86171B
:10291000970761F0878126819927982F8827332789
:10292000822B932B8F5F9F4F09F016C1F501838592
:10293000863009F011C1FEE1FF1609F00DC18CE0EF
:10294000882E912C8A0C9B1C0EE0402E512C4A0C98
:102950005B1CF50186851FE0612E712C6A0C7B1CC7
:1029600027859927982F88273327822B932B019728
:1029700059F51FB7F89482E090E090935601809348
:102980005501848525859927982F88273327822B01
:10299000932B9093B7018093B60180E00E94700062
:1029A0008091D5018D7F8093D5018091B401909164
:1029B000B501019731F460ED77E080E090E00E948E
:1029C000B10B812F99278FBFD2018C91F301208108
:1029D0009927982F88273327822B932B0297B1F4BE
:1029E000CFB6F894DD248091DE018D7F8093DE01E7
:1029F0000E949700AB01BC01E1E0EE2E00ED17E074
:102A000020E030E084E00E94DB05CFBED2018C9153
:102A1000F30120819927982F88273327822B932B26
:102A2000039709F05AC01FB7F89484E090E09093A0
:102A3000560180935501D4018C91F401218199278D
:102A4000982F88273327822B932B9093B70180935D
:102A5000B60180E00E94700090911C019431A0F4B6
:102A600080911B01E82FFF27EE0FFF1FEA5BFD4F50
:102A7000918280828F5F80931B01843111F41092C8
:102A80001B019F5F90931C01812F99278FBF80911D
:102A9000C2019091C301892B69F40FB7F8941127F3
:102AA00081E090E0909356018093550180E00E9470
:102AB00070000FBF8091C2019091C301019769F42A
:102AC0000FB7F894112783E090E09093560180931C
:102AD000550180E00E9470000FBFD2018C91F3017C
:102AE00020819927982F88273327822B932B0597AE
:102AF00099F540E050E0A6E7B1E08D919C911197E7
:102B00008F5F9F4F09F4B3CE4F5F5F4F14964F30E6
:102B1000510599F780911F01909120018F5F9F4F80
:102B200071F4F401848125819927982F8827332710
:102B3000822B932B01969093200180931F010E947A
:102B40009700AB01BC01E1E0EE2E08E813E120E0C4
:102B500030E083E00E94DB05B0921E01A0921D01CF
:102B60008FB7F8949927109258018FBF0E94630A7B
:102B700058C09091640180910901981709F451C0DF
:102B8000909309019923D1F4009118011091190132
:102B90006091B201C8010E94EA06482F55274423DC
:102BA00009F43FC08FEF8093090160911801709183
:102BB0001901F80183850E94690C33C08FEF80935F
:102BC00009012FC02091CD02812F8223C1F0E92F6E
:102BD000FF27EE0FFF1FE254FE4F4081518111820B
:102BE0001082812F809528232093CD02992339F4D8
:102BF00063E0CA010E94CD0B110F91E0E3CF9F5F0C
:102C0000983078F4110FDECF80910C01E82FFF2768
:102C1000EE0FFF1FE254FE4F6081718141E00E9480
:102C2000290CA8960FB6F894DEBF0FBECDBFDF917A
:102C3000CF911F910F91FF90EF90DF90CF90BF90B9
:102C4000AF909F908F907F906F905F904F9008957E
:102C50008091C7028F3FB1F0282F3327F901E45C40
:102C6000FE4F80818093C7028F3F11F48093D90279
:102C70008FEF80832F3F31F0822F0E94090F81E078
:102C800090E0089580E090E008951F93CF93DF9344
:102C9000CDB7DEB7E0970FB6F894DEBF0FBECDBF5D
:102CA0001FB7F89440E150E06FEF70E08CE391E0E3
:102CB0000E945E1C8FEF8093C7028093D90281E04F
:102CC0008EBD88E080BF83E083BF8CB59DB54AE7A9
:102CD0002CB53DB52817390708F44150442311F0AD
:102CE000C901F6CF92B782B78917E9F32CB53DB584
:102CF00092B782B78917E9F38CB59DB5821B930B08
:102D0000409625E0969587952A95E1F79093C9021C
:102D10008093C80213BE83B78EBD8EB580BF12BE2E
:102D20001DBC1CBC8FEF86BF86B780937C0080B72C
:102D3000992787709070892BD1F7D29AD19AD09A1F
:102D4000DA9AD99AD89A15BA8FEF84BBD498DC98BE
:102D50001DBC1CBC87B7846087BF8EB5887F84602C
:102D60008EBD0E9428168823E1F78FEF80935401CF
:102D7000E8E2F1E08FEF9FEF918380831282339638
:102D800021E0E433F207C1F70E9463026093450239
:102D900080910001909101010196AA27BB278093A1
:102DA000600190936101A0936201B093630182E995
:102DB00092E090931E0180931D018E98B89A8C9892
:102DC0008FEF8093690110923502109236021092B3
:102DD000370210923802B89AD69AD59A8FB7F894DB
:102DE000992720910601309107018FBF30936F0121
:102DF00020936E010E948F0429A73AA74BA75CA7D6
:102E00006DA77EA78FA798ABDE019196FE01B996BC
:102E100088E001900D928150E1F7DE015196FE01AC
:102E2000B19688E001900D928150E1F7DE0159964C
:102E3000FE01719688E001900D928150E1F7ABE3BD
:102E4000B2E0FE01799688E001900D928150E1F7A1
:102E500080910801992790935A01809359018FE13D
:102E6000809330028AE1809343020E948F0429A755
:102E70003AA74BA75CA76DA77EA78FA798ABDE01EB
:102E80009196FE01B99688E001900D928150E1F78C
:102E9000DE011196FE01B19688E001900D928150FD
:102EA000E1F7DE011996FE01319688E001900D925E
:102EB0008150E1F7ABE3B2E0FE01399688E0019082
:102EC0000D928150E1F7ABE3B2E0FD0137969C91A2
:102ED00080818D939083319782E0EE33F807B9F7C4
:102EE00081E0809351011092D30280935D01109292
:102EF0003A0280B7886080BF8BE083BF86EE81BFD7
:102F000087B7826087BF0E94F2030E942816882339
:102F1000E1F7812F99278FBF78948FEF9FEF9093E0
:102F2000200180931F011092D2021092D10281E001
:102F300090E090935C0180935B0110925601109297
:102F40005501E6E7F1E08FEF9FEF91838083938354
:102F50008283349621E0E23BF207B9F70E94FA053A
:102F60008FB7F894482F55274BC087B799278370A0
:102F70009070892B19F4E5E0F0E013C080B7992731
:102F800087709070892BD1F781B792B7891B8C30ED
:102F900030F082B7853F18F4E3E0F0E002C0E2E0F1
:102FA000F0E087B7887BC1F480917D008B7FA1F42E
:102FB0006E9912C08AB190919A00892B887161F440
:102FC0008091740082FD08C0379B03C081E090E0CF
:102FD00005C085E090E002C080E090E025B78E1744
:102FE00008F4E82FFF27E457FF4FE491237E206287
:102FF000E22BE5BF78948895F89485B78F7D85BFDF
:103000008091C7028F3F09F4B0CF282F3327F901F1
:10301000E45CFE4F80818093C7028F3F11F4809360
:10302000D9028FEF80832F3F09F49FCF4FBF822FAC
:103030000E94090F95CF78941F920F920FB60F92AE
:1030400011242F923F924F925F926F927F928F92B4
:103050009F92AF92BF92CF92DF92EF92FF920F9327
:103060001F932F933F934F935F936F937F938F9310
:103070009F93AF93BF93CF93DF93EF93FF93C6B527
:10308000D7B58FB7F894282E0E94E3029B012C1B22
:103090003D0B442755272B013C01421A530A640A71
:1030A000750A80911401909115018530910521F0E8
:1030B000069709F0E0C0BFC086E090E0909315014C
:1030C0008093140131E0332E309257011092160193
:1030D00080E00E94C503E0915E01F0915F0141AA8A
:1030E000BB27A72D962D852D80ABC301AA27BB2713
:1030F00087A7872D9927AA27BB2786A7E0915E017E
:10310000F0915F0185A5882309F484C06081655032
:1031100077274F01860E971EF4012081E18082817E
:10312000A3809927AA27BB27BA2FA92F982F8827D2
:10313000332744275527522F442733272227FF249C
:10314000002711278701FF24EE242E293F29402B39
:10315000512BBB24CC24DD242A293B294C295D2971
:10316000822B932BA42BB52B84199509A609B7099B
:103170008383292F3A2F4B2F552722839D014427E4
:10318000552721838B2F9927AA27BB278083C09897
:1031900024E0A40180E090E00E946508C09AF40158
:1031A0002081E1808281A3809927AA27BB27BA2F9B
:1031B000A92F982F8827332744275527522F442794
:1031C00033272227FF24002711278701FF24EE241D
:1031D0002E293F29402B512BBB24CC24DD242A2926
:1031E0003B294C295D29822B932BA42BB52B840DD5
:1031F000951DA61DB71D8383292F3A2F4B2F5527C9
:1032000022839D014427552721838B2F9927AA27A5
:10321000BB278083E0915E01F0915F01818185FF92
:1032200002C030923B0183E00E94EE0987B78F7E97
:1032300087BF84997AC01092570181E00E94C5032C
:10324000E0915E01F0915F01818185FF0FC087E011
:1032500090E090931501809314010E94E30220E016
:1032600031E040E050E00E94A00303C080E00E94F3
:10327000A90A849B5AC080911601882391F58091F8
:103280005701882371F511E0109357010E94C5037F
:1032900080B32091C602283098F4E091CC02E20F6E
:1032A000FF27E770F070EE0FFF1FEE0FFF1FEE58C5
:1032B000FD4F40825182628273822F5F2093C6024B
:1032C00010931601D0937501C093740184992DC099
:1032D000992734E0969587953A95E1F7182F117064
:1032E00001C010E0809157018130F9F4109257012C
:1032F0000E94C503109216011123B9F48091740144
:1033000090917501C81BD90B2A9778F48091C60259
:10331000882319F081508093C60280915E019091BC
:103320005F01009711F00E9454022FBEFF91EF91B0
:10333000DF91CF91BF91AF919F918F917F916F91CD
:103340005F914F913F912F911F910F91FF90EF90BF
:10335000DF90CF90BF90AF909F908F907F906F90B5
:103360005F904F903F902F900F900FBE0F901F9047
:10337000189578941F920F920FB60F9211241F93F5
:103380002F933F934F935F936F937F938F939F936D
:10339000AF93BF93EF93FF9387B78F7E87BF7894E8
:1033A0001FB7F8948091650190916601A091670123
:1033B000B09168010097A105B10509F051C0809155
:1033C0001401909115018530910561F186309105C8
:1033D00030F48330910549F0049781F51AC08730A5
:1033E0009105F1F0089751F514C0869B0FC084E059
:1033F00090E090931501809314010E94E30227E06E
:1034000030E040E050E00E94A00318C00E94780C19
:1034100015C00E94CC05882389F40E94A20C0EC01E
:1034200080E00AC089E00E94DE0881E00E94C503B6
:1034300083E00E94EE0987E00E94A90A80910F01B3
:1034400090911001019771F482E090E09093100147
:1034500080930F01DE98DE9A80E00E944E0102C048
:103460000E940003812F99278FBFFF91EF91BF9199
:10347000AF919F918F917F916F915F914F913F910C
:103480002F911F910F900FBE0F901F901895ACE2D7
:10349000B0E0EDE4FAE10C941A1C222E332E442EF7
:1034A000552E662E772E882E992EFE013196A8E095
:1034B0001192AA95E9F729823A824B825C826D8249
:1034C0007E828F829886FE013996B8E01192BA9575
:1034D000E9F7A986BA86CB86DC86ED86FE860F875D
:1034E000188B89819A81AB81BC8189A79AA7ABA7E8
:1034F000BCA77C018D018FEF9FEFA0E0B0E0E82238
:10350000F9220A231B2389A59AA5ABA5BCA51D01F9
:103510004424552489859A85AB85BC858DA39EA3BB
:10352000AFA3B8A75C016D018FEF9FEFA0E0B0E003
:10353000A822B922CA22DB228DA19EA1AFA1B8A5E3
:103540003D0188249924C801B701A60195010E9474
:10355000FB1B69A37AA38BA39CA3C801B701A40199
:1035600093010E94FB1B7B018C01C201B101A601EA
:1035700095010E94FB1B5B016C01C201B101A4011A
:1035800093010E94FB1B3B014C01EA0CFB1C0C1D30
:103590001D1D89A19AA1ABA1BCA19D01442755275E
:1035A0002E0D3F1D401F511F2A153B054C055D0583
:1035B00040F480E090E0A1E0B0E0680E791E8A1E41
:1035C0009B1ECA01AA27BB27860D971DA81DB91DE2
:1035D0008D8F9E8FAF8FB8A3A9013327222789A192
:1035E0009AA1ABA1BCA1A070B070280F391F4A1FCF
:1035F0005B1F298F3A8F4B8F5C8FA98CBA8CCB8C39
:10360000DC8CED8CFE8C0F8D18A1FE01719698E07C
:1036100011929A95E9F7ED8AFE8A0F8B188F2D810A
:103620003E814F8158856DA17EA18FA198A50E94F2
:10363000FB1B3B014C012D853E854F85588969A5B3
:103640007AA58BA59CA50E94FB1B2D893E894F89DD
:10365000588D260F371F481F591F260D371D481D2F
:10366000591D2D8B3E8B4F8B588F6D887E888F8890
:10367000988C2A2D3B2D4C2D5D2D662D772D882D78
:10368000992DE2E1AC960C94361CA0E1B0E0EBE49D
:10369000FBE10C941A1C222E332E442E552E662E3E
:1036A000772E882E992E002309F466C088E0FE014B
:1036B000319611928A95E9F729833A834B835C838B
:1036C0006D837E838F829887E0E2E01B1E16CCF527
:1036D0002D813E814F815885602F772767FD70953A
:1036E000DA01C901062E04C0B695A795979587956E
:1036F0000A94D2F78D879E87AF87B88B04C0220FBC
:10370000331F441F551FEA95D2F789819A81AB81F7
:10371000BC8104C0B695A795979587956A95D2F711
:10372000282B392B4A2B5B2B29873A874B875C87C1
:1037300029843A844B845C846D847E848F84988849
:103740001BC01D861E861F86188A2E2F332727FD35
:103750003095309521953F4F8D819E81AF81B88501
:1037600004C0B695A795979587952A95D2F789872E
:103770009A87AB87BC87DCCF222D332D442D552D66
:10378000662D772D882D992DE2E160960C94361CDC
:10379000991B79E004C0991F961708F0961B881FA3
:1037A0007A95C9F780950895AA1BBB1B51E107C004
:1037B000AA1FBB1FA617B70710F0A61BB70B881FC1
:1037C000991F5A95A9F780959095BC01CD01089550
:1037D00097FB092E07260AD077FD04D0E5DF06D037
:1037E00000201AF4709561957F4F0895F6F7909533
:1037F00081959F4F0895629FD001739FF001829F32
:10380000E00DF11D649FE00DF11D929FF00D839F6F
:10381000F00D749FF00D659FF00D9927729FB00D0C
:10382000E11DF91F639FB00DE11DF91FBD01CF011F
:10383000112408952F923F924F925F926F927F9240
:103840008F929F92AF92BF92CF92DF92EF92FF92B0
:103850000F931F93CF93DF93CDB7DEB7CA1BDB0B5C
:103860000FB6F894DEBF0FBECDBF09942A88398801
:1038700048885F846E847D848C849B84AA84B98408
:10388000C884DF80EE80FD800C811B81AA81B98114
:10389000CE0FD11D0FB6F894DEBF0FBECDBFED0128
:1038A0000895FB01DC0104C08D910190801921F481
:1038B00041505040C8F7881B990B0895DC0101C0A6
:0C38C0006D9341505040E0F70895FFCF99
:0E38CC000100FFFFFFFF010022FFFFFF0100D0
:00000001FF
